{"abi":[{"type":"constructor","inputs":[],"stateMutability":"nonpayable"},{"type":"function","name":"MAP_HEIGHT","inputs":[],"outputs":[{"name":"","type":"uint8","internalType":"uint8"}],"stateMutability":"view"},{"type":"function","name":"MAP_WIDTH","inputs":[],"outputs":[{"name":"","type":"uint8","internalType":"uint8"}],"stateMutability":"view"},{"type":"function","name":"MAX_PLAYERS","inputs":[],"outputs":[{"name":"","type":"uint8","internalType":"uint8"}],"stateMutability":"view"},{"type":"function","name":"TILE_COUNT","inputs":[],"outputs":[{"name":"","type":"uint8","internalType":"uint8"}],"stateMutability":"view"},{"type":"function","name":"adminBootAll","inputs":[{"name":"_roomId","type":"uint256","internalType":"uint256"}],"outputs":[{"name":"","type":"bool","internalType":"bool"}],"stateMutability":"nonpayable"},{"type":"function","name":"adminSetPlayerGamePosition","inputs":[{"name":"_roomId","type":"uint256","internalType":"uint256"},{"name":"_playerIndex","type":"uint8","internalType":"uint8"},{"name":"_position","type":"uint8","internalType":"uint8"}],"outputs":[{"name":"","type":"bool","internalType":"bool"}],"stateMutability":"nonpayable"},{"type":"function","name":"adminSetPlayerInGame","inputs":[{"name":"_player","type":"address","internalType":"address"},{"name":"_roomId","type":"uint256","internalType":"uint256"}],"outputs":[{"name":"","type":"bool","internalType":"bool"}],"stateMutability":"nonpayable"},{"type":"function","name":"adminSpawnPlayer","inputs":[{"name":"_roomId","type":"uint256","internalType":"uint256"},{"name":"_playerIndex","type":"uint8","internalType":"uint8"}],"outputs":[{"name":"","type":"bool","internalType":"bool"}],"stateMutability":"nonpayable"},{"type":"function","name":"adminTransferFunds","inputs":[{"name":"_amount","type":"uint256","internalType":"uint256"},{"name":"_to","type":"address","internalType":"address"}],"outputs":[{"name":"","type":"bool","internalType":"bool"}],"stateMutability":"nonpayable"},{"type":"function","name":"checkAdmin","inputs":[{"name":"_admin","type":"address","internalType":"address"}],"outputs":[{"name":"","type":"bool","internalType":"bool"}],"stateMutability":"view"},{"type":"function","name":"createGame","inputs":[{"name":"_minStake","type":"uint256","internalType":"uint256"}],"outputs":[{"name":"gameId","type":"uint256","internalType":"uint256"}],"stateMutability":"payable"},{"type":"function","name":"games","inputs":[{"name":"","type":"uint256","internalType":"uint256"}],"outputs":[{"name":"info","type":"tuple","internalType":"struct Royale.GameInfo","components":[{"name":"gameCreator","type":"address","internalType":"address"},{"name":"playersCount","type":"uint8","internalType":"uint8"},{"name":"itemCount","type":"uint8","internalType":"uint8"},{"name":"minStake","type":"uint256","internalType":"uint256"},{"name":"totalStaked","type":"uint256","internalType":"uint256"},{"name":"hasStarted","type":"bool","internalType":"bool"},{"name":"hasEnded","type":"bool","internalType":"bool"},{"name":"gamePaused","type":"bool","internalType":"bool"},{"name":"gameAbandoned","type":"bool","internalType":"bool"},{"name":"winner","type":"address","internalType":"address"}]}],"stateMutability":"view"},{"type":"function","name":"getGameInfo","inputs":[{"name":"_roomId","type":"uint256","internalType":"uint256"}],"outputs":[{"name":"","type":"tuple","internalType":"struct Royale.GameInfo","components":[{"name":"gameCreator","type":"address","internalType":"address"},{"name":"playersCount","type":"uint8","internalType":"uint8"},{"name":"itemCount","type":"uint8","internalType":"uint8"},{"name":"minStake","type":"uint256","internalType":"uint256"},{"name":"totalStaked","type":"uint256","internalType":"uint256"},{"name":"hasStarted","type":"bool","internalType":"bool"},{"name":"hasEnded","type":"bool","internalType":"bool"},{"name":"gamePaused","type":"bool","internalType":"bool"},{"name":"gameAbandoned","type":"bool","internalType":"bool"},{"name":"winner","type":"address","internalType":"address"}]}],"stateMutability":"view"},{"type":"function","name":"getGamesArray","inputs":[],"outputs":[{"name":"","type":"tuple[]","internalType":"struct Royale.GameRoom[]","components":[{"name":"info","type":"tuple","internalType":"struct Royale.GameInfo","components":[{"name":"gameCreator","type":"address","internalType":"address"},{"name":"playersCount","type":"uint8","internalType":"uint8"},{"name":"itemCount","type":"uint8","internalType":"uint8"},{"name":"minStake","type":"uint256","internalType":"uint256"},{"name":"totalStaked","type":"uint256","internalType":"uint256"},{"name":"hasStarted","type":"bool","internalType":"bool"},{"name":"hasEnded","type":"bool","internalType":"bool"},{"name":"gamePaused","type":"bool","internalType":"bool"},{"name":"gameAbandoned","type":"bool","internalType":"bool"},{"name":"winner","type":"address","internalType":"address"}]},{"name":"board","type":"tuple[100]","internalType":"struct Royale.Tile[100]","components":[{"name":"occupantId","type":"uint8","internalType":"uint8"},{"name":"isWall","type":"bool","internalType":"bool"}]},{"name":"playerIds","type":"address[4]","internalType":"address[4]"},{"name":"playerFTs","type":"uint16[4]","internalType":"uint16[4]"},{"name":"positions","type":"uint8[7]","internalType":"uint8[7]"},{"name":"playerAlive","type":"bool[4]","internalType":"bool[4]"},{"name":"playerReady","type":"bool[4]","internalType":"bool[4]"},{"name":"playerPauseVote","type":"bool[4]","internalType":"bool[4]"},{"name":"playerLastMoveTime","type":"uint256[4]","internalType":"uint256[4]"}]}],"stateMutability":"view"},{"type":"function","name":"getPiecePositions","inputs":[{"name":"_roomId","type":"uint256","internalType":"uint256"}],"outputs":[{"name":"","type":"uint8[7]","internalType":"uint8[7]"}],"stateMutability":"view"},{"type":"function","name":"getPlayerFTs","inputs":[{"name":"_roomId","type":"uint256","internalType":"uint256"}],"outputs":[{"name":"","type":"uint16[4]","internalType":"uint16[4]"}],"stateMutability":"view"},{"type":"function","name":"getPlayerIds","inputs":[{"name":"_roomId","type":"uint256","internalType":"uint256"}],"outputs":[{"name":"","type":"address[4]","internalType":"address[4]"}],"stateMutability":"view"},{"type":"function","name":"getPlayerLastMoveTime","inputs":[{"name":"_roomId","type":"uint256","internalType":"uint256"}],"outputs":[{"name":"","type":"uint256[4]","internalType":"uint256[4]"}],"stateMutability":"view"},{"type":"function","name":"getPlayerLives","inputs":[{"name":"_roomId","type":"uint256","internalType":"uint256"}],"outputs":[{"name":"","type":"bool[4]","internalType":"bool[4]"}],"stateMutability":"view"},{"type":"function","name":"getPlayerPauseVote","inputs":[{"name":"_roomId","type":"uint256","internalType":"uint256"}],"outputs":[{"name":"","type":"bool[4]","internalType":"bool[4]"}],"stateMutability":"view"},{"type":"function","name":"getPlayerReadiness","inputs":[{"name":"_roomId","type":"uint256","internalType":"uint256"}],"outputs":[{"name":"","type":"bool[4]","internalType":"bool[4]"}],"stateMutability":"view"},{"type":"function","name":"getRoomBoard","inputs":[{"name":"_roomId","type":"uint256","internalType":"uint256"},{"name":"_tilePos","type":"uint8","internalType":"uint8"}],"outputs":[{"name":"","type":"uint8","internalType":"uint8"},{"name":"","type":"bool","internalType":"bool"}],"stateMutability":"view"},{"type":"function","name":"getRoomMinStake","inputs":[{"name":"_roomId","type":"uint256","internalType":"uint256"}],"outputs":[{"name":"","type":"uint256","internalType":"uint256"}],"stateMutability":"view"},{"type":"function","name":"getRoomPlayersCount","inputs":[{"name":"_roomId","type":"uint256","internalType":"uint256"}],"outputs":[{"name":"","type":"uint8","internalType":"uint8"}],"stateMutability":"view"},{"type":"function","name":"getRoomTotalStaked","inputs":[{"name":"_roomId","type":"uint256","internalType":"uint256"}],"outputs":[{"name":"","type":"uint256","internalType":"uint256"}],"stateMutability":"view"},{"type":"function","name":"getTop10RanksByEarnings","inputs":[],"outputs":[{"name":"","type":"tuple[10]","internalType":"struct Royale.RankingRow[10]","components":[{"name":"player","type":"address","internalType":"address"},{"name":"amount","type":"uint256","internalType":"uint256"}]}],"stateMutability":"view"},{"type":"function","name":"getTop10RanksByWinnings","inputs":[],"outputs":[{"name":"","type":"tuple[10]","internalType":"struct Royale.RankingRow[10]","components":[{"name":"player","type":"address","internalType":"address"},{"name":"amount","type":"uint256","internalType":"uint256"}]}],"stateMutability":"view"},{"type":"function","name":"getTotalGames","inputs":[],"outputs":[{"name":"","type":"uint256","internalType":"uint256"}],"stateMutability":"view"},{"type":"function","name":"houseFee","inputs":[],"outputs":[{"name":"","type":"uint8","internalType":"uint8"}],"stateMutability":"view"},{"type":"function","name":"joinGame","inputs":[{"name":"_roomId","type":"uint256","internalType":"uint256"}],"outputs":[{"name":"","type":"address","internalType":"address"}],"stateMutability":"payable"},{"type":"function","name":"leaveGameB4start","inputs":[{"name":"_roomId","type":"uint256","internalType":"uint256"}],"outputs":[{"name":"","type":"bool","internalType":"bool"}],"stateMutability":"nonpayable"},{"type":"function","name":"movePlayer","inputs":[{"name":"_roomId","type":"uint256","internalType":"uint256"},{"name":"_dir","type":"uint8","internalType":"enum Royale.Dir"},{"name":"_player","type":"address","internalType":"address"},{"name":"_useBurner","type":"bool","internalType":"bool"}],"outputs":[{"name":"","type":"bool","internalType":"bool"}],"stateMutability":"nonpayable"},{"type":"function","name":"owner","inputs":[],"outputs":[{"name":"","type":"address","internalType":"address"}],"stateMutability":"view"},{"type":"function","name":"paused","inputs":[],"outputs":[{"name":"","type":"bool","internalType":"bool"}],"stateMutability":"view"},{"type":"function","name":"playerInGame","inputs":[{"name":"","type":"address","internalType":"address"}],"outputs":[{"name":"","type":"uint256","internalType":"uint256"}],"stateMutability":"view"},{"type":"function","name":"playerReadyUp","inputs":[{"name":"_roomId","type":"uint256","internalType":"uint256"},{"name":"_player","type":"address","internalType":"address"},{"name":"_useBurner","type":"bool","internalType":"bool"}],"outputs":[{"name":"","type":"bool","internalType":"bool"}],"stateMutability":"nonpayable"},{"type":"function","name":"playerTogglePause","inputs":[{"name":"_roomId","type":"uint256","internalType":"uint256"},{"name":"_player","type":"address","internalType":"address"},{"name":"_useBurner","type":"bool","internalType":"bool"}],"outputs":[{"name":"","type":"bool","internalType":"bool"}],"stateMutability":"nonpayable"},{"type":"function","name":"renounceOwnership","inputs":[],"outputs":[],"stateMutability":"nonpayable"},{"type":"function","name":"setHouseFee","inputs":[{"name":"_houseFee","type":"uint8","internalType":"uint8"}],"outputs":[],"stateMutability":"nonpayable"},{"type":"function","name":"setStartingFT","inputs":[{"name":"_startingFT","type":"uint16","internalType":"uint16"}],"outputs":[],"stateMutability":"nonpayable"},{"type":"function","name":"startGame","inputs":[{"name":"_roomId","type":"uint256","internalType":"uint256"}],"outputs":[{"name":"","type":"bool","internalType":"bool"}],"stateMutability":"nonpayable"},{"type":"function","name":"starting_FT","inputs":[],"outputs":[{"name":"","type":"uint16","internalType":"uint16"}],"stateMutability":"view"},{"type":"function","name":"togglePause","inputs":[],"outputs":[],"stateMutability":"nonpayable"},{"type":"function","name":"toggleSetAdmin","inputs":[{"name":"_admin","type":"address","internalType":"address"}],"outputs":[],"stateMutability":"nonpayable"},{"type":"function","name":"top10Earned","inputs":[{"name":"","type":"uint256","internalType":"uint256"}],"outputs":[{"name":"player","type":"address","internalType":"address"},{"name":"amount","type":"uint256","internalType":"uint256"}],"stateMutability":"view"},{"type":"function","name":"top10Wins","inputs":[{"name":"","type":"uint256","internalType":"uint256"}],"outputs":[{"name":"player","type":"address","internalType":"address"},{"name":"amount","type":"uint256","internalType":"uint256"}],"stateMutability":"view"},{"type":"function","name":"transferOwnership","inputs":[{"name":"newOwner","type":"address","internalType":"address"}],"outputs":[],"stateMutability":"nonpayable"},{"type":"function","name":"userStats","inputs":[{"name":"","type":"address","internalType":"address"}],"outputs":[{"name":"totalWins","type":"uint256","internalType":"uint256"},{"name":"totalLosses","type":"uint256","internalType":"uint256"},{"name":"totalGasEarned","type":"uint256","internalType":"uint256"},{"name":"totalGasLost","type":"uint256","internalType":"uint256"}],"stateMutability":"view"},{"type":"event","name":"EarningsTopped","inputs":[{"name":"_player","type":"address","indexed":true,"internalType":"address"},{"name":"_earnings","type":"uint256","indexed":false,"internalType":"uint256"}],"anonymous":false},{"type":"event","name":"GameAbandoned","inputs":[{"name":"_roomId","type":"uint256","indexed":true,"internalType":"uint256"}],"anonymous":false},{"type":"event","name":"GameCreated","inputs":[{"name":"_roomId","type":"uint256","indexed":true,"internalType":"uint256"},{"name":"_creator","type":"address","indexed":true,"internalType":"address"}],"anonymous":false},{"type":"event","name":"GameEnded","inputs":[{"name":"_roomId","type":"uint256","indexed":true,"internalType":"uint256"},{"name":"_winner","type":"address","indexed":true,"internalType":"address"}],"anonymous":false},{"type":"event","name":"GamePaused","inputs":[{"name":"_roomId","type":"uint256","indexed":false,"internalType":"uint256"}],"anonymous":false},{"type":"event","name":"GameStarted","inputs":[{"name":"_roomId","type":"uint256","indexed":true,"internalType":"uint256"}],"anonymous":false},{"type":"event","name":"GameUnPaused","inputs":[{"name":"_roomId","type":"uint256","indexed":false,"internalType":"uint256"}],"anonymous":false},{"type":"event","name":"ItemOpened","inputs":[{"name":"_roomId","type":"uint256","indexed":false,"internalType":"uint256"},{"name":"_player","type":"address","indexed":false,"internalType":"address"},{"name":"_tilePos","type":"uint8","indexed":false,"internalType":"uint8"},{"name":"_ftDiff","type":"int16","indexed":false,"internalType":"int16"}],"anonymous":false},{"type":"event","name":"ItemSpawned","inputs":[{"name":"_roomId","type":"uint256","indexed":false,"internalType":"uint256"},{"name":"_itemId","type":"uint8","indexed":false,"internalType":"uint8"},{"name":"_tile","type":"uint8","indexed":false,"internalType":"uint8"}],"anonymous":false},{"type":"event","name":"OwnershipTransferred","inputs":[{"name":"previousOwner","type":"address","indexed":true,"internalType":"address"},{"name":"newOwner","type":"address","indexed":true,"internalType":"address"}],"anonymous":false},{"type":"event","name":"Paused","inputs":[{"name":"account","type":"address","indexed":false,"internalType":"address"}],"anonymous":false},{"type":"event","name":"PlayerJoined","inputs":[{"name":"_roomId","type":"uint256","indexed":false,"internalType":"uint256"},{"name":"_player","type":"address","indexed":false,"internalType":"address"}],"anonymous":false},{"type":"event","name":"PlayerKilled","inputs":[{"name":"_roomId","type":"uint256","indexed":false,"internalType":"uint256"},{"name":"_player","type":"address","indexed":false,"internalType":"address"}],"anonymous":false},{"type":"event","name":"PlayerKilledPlayer","inputs":[{"name":"_roomId","type":"uint256","indexed":false,"internalType":"uint256"},{"name":"_aggressor","type":"address","indexed":false,"internalType":"address"},{"name":"_victim","type":"address","indexed":false,"internalType":"address"}],"anonymous":false},{"type":"event","name":"PlayerMoved","inputs":[{"name":"_roomId","type":"uint256","indexed":false,"internalType":"uint256"},{"name":"_player","type":"address","indexed":false,"internalType":"address"},{"name":"_destinationTile","type":"uint8","indexed":false,"internalType":"uint8"}],"anonymous":false},{"type":"event","name":"PlayerPaused","inputs":[{"name":"_roomId","type":"uint256","indexed":false,"internalType":"uint256"},{"name":"_player","type":"address","indexed":false,"internalType":"address"}],"anonymous":false},{"type":"event","name":"PlayerSpawned","inputs":[{"name":"_roomId","type":"uint256","indexed":false,"internalType":"uint256"},{"name":"_player","type":"address","indexed":false,"internalType":"address"},{"name":"_tile","type":"uint8","indexed":false,"internalType":"uint8"}],"anonymous":false},{"type":"event","name":"PlayerToggleReady","inputs":[{"name":"_roomId","type":"uint256","indexed":false,"internalType":"uint256"},{"name":"_player","type":"address","indexed":false,"internalType":"address"}],"anonymous":false},{"type":"event","name":"PlayerUnPaused","inputs":[{"name":"_roomId","type":"uint256","indexed":false,"internalType":"uint256"},{"name":"_player","type":"address","indexed":false,"internalType":"address"}],"anonymous":false},{"type":"event","name":"RewardSent","inputs":[{"name":"_roomId","type":"uint256","indexed":true,"internalType":"uint256"},{"name":"_winner","type":"address","indexed":true,"internalType":"address"},{"name":"_reward","type":"uint256","indexed":true,"internalType":"uint256"}],"anonymous":false},{"type":"event","name":"Unpaused","inputs":[{"name":"account","type":"address","indexed":false,"internalType":"address"}],"anonymous":false},{"type":"event","name":"WinningsTopped","inputs":[{"name":"_player","type":"address","indexed":true,"internalType":"address"},{"name":"_winnings","type":"uint256","indexed":false,"internalType":"uint256"}],"anonymous":false},{"type":"error","name":"EnforcedPause","inputs":[]},{"type":"error","name":"ExpectedPause","inputs":[]},{"type":"error","name":"OwnableInvalidOwner","inputs":[{"name":"owner","type":"address","internalType":"address"}]},{"type":"error","name":"OwnableUnauthorizedAccount","inputs":[{"name":"account","type":"address","internalType":"address"}]}],"bytecode":{"object":"0x60808060405234620001615760009081549033156200014b575033600882901c6001600160a01b03167f8be0079c531659141344cd1fd0a4f28419497f9722a3daafe3b4186f6b6457e08480a36001600160b81b0319163360081b610100600160a81b031617601960aa1b1760ff60b81b1916600160b91b1781556001546801000000000000000081101562000137576001810180918160015510156200012357156200010f577fb10e2d527612073b26eecdfd717e6a320cf44b4afac2b0732d9fcbe2b7fa0cf9805461ff001916610100179055805462ffffff60a81b191661801960aa1b1781553381526004602052604090819020805460ff1916600117905551613fcd9081620001678239f35b634e487b7160e01b81526032600452602490fd5b634e487b7160e01b82526032600452602482fd5b634e487b7160e01b82526041600452602482fd5b631e4fbdf760e01b815260048101839052602490fd5b600080fdfe6080604052600436101561001257600080fd5b60003560e01c806202727714612769578063026b875a146127345780630ed469b8146127105780630ffb0e6214612697578063117a5b901461266a578063197614bb1461264a578063235a3d2c1461239557806328547f431461195a5780632b782981146118f05780632d72b8bc146118a957806333e84b101461160f57806338a8f681146115da5780633dbf0b5514610ddd5780634411b3eb146115be57806346cbb38f1461156757806347e1d5501461152957806348e837b914610f4657806351e3779514610efa578063535b6d8914610eb357806354c0fc1214610e55578063571711dc14610dfe5780635941905f14610de257806359b7868114610ddd5780635bd4349b14610dbf5780635c975abb14610d9c578063715018a614610d3f5780637282947f14610cf75780637d08163e14610ca95780637dc9387214610c615780638a65d87414610c055780638da5cb5b14610bd85780639026dee814610b9957806393efecbb14610b4f578063989b820014610af55780639bf0e1da14610aca578063af3e942014610aa5578063b5cbde6814610a5d578063ba425cce14610a2f578063c4ae316814610967578063da0786411461083c578063e5ed1d591461070a578063e63a7d91146106c0578063e8c2f73414610674578063e935571814610632578063ec6a7c9f146105f8578063efaa55a014610327578063f2fde38b1461028b5763fd6736dd1461022b57600080fd5b3461028657604036600319011261028657604060043560ff61027261024e612a8f565b60046102628461026984846102628a612856565b5001612f09565b50541695612856565b505460081c16825191825215156020820152f35b600080fd5b34610286576020366003190112610286576102a4612a46565b6102ac612b95565b6001600160a01b0381811691821561030e5760008054610100600160a81b03198116600893841b610100600160a81b031617825590911c91909116907f8be0079c531659141344cd1fd0a4f28419497f9722a3daafe3b4186f6b6457e09080a3005b604051631e4fbdf760e01b815260006004820152602490fd5b60203660031901126102865760043561033e612bf6565b33600052600260205261035660406000205415613262565b61035f81612856565b509060ff80925460a01c161515806105df575b156105b55761038081612856565b50916103938160038095015416156132a0565b6103ae81846103a185612856565b50015460081c16156132d1565b6103c981846103bc85612856565b50015460181c1615613302565b6103ff6103d583612856565b506103e583825460a01c16612d90565b815460ff60a01b191660a09190911b60ff60a01b16179055565b61040882612856565b509061041b600180930154341015613231565b8161042584612856565b500154610440600261043686612856565b5001918254613333565b905561045a8161044f85612856565b505460a01c16612db1565b916000815b61055d575b7f87969bc7faf902221a147b95ceba76e011c5efb0339a0a8ee7a2bb82d9cfbbd6610550866105398787878c6104a684606861049f89612856565b5001612da1565b81546001600160a01b0391841b91821b19163390911b17905560005460a81c61ffff166104fb6104e286606c6104db8b612856565b5001613340565b819391549060031b9161ffff809116831b921b19161790565b905561051384606e61050c89612856565b500161335c565b81949154921b92831b921b191617905533600052600260205282604060002055826130ab565b506040805191825233602083015290918291820190565b0390a16020604051338152f35b61056685612856565b5050600483821610156105b05761058281606861049f88612856565b905490871b1c6001600160a01b0316156105a6576105a08291612d90565b9061045f565b9250610539610464565b610464565b60405162461bcd60e51b8152602060048201526002602482015261114d60f21b6044820152606490fd5b506004826105ec83612856565b505460a01c1610610372565b34610286576020366003190112610286576001600160a01b03610619612a46565b1660005260026020526020604060002054604051908152f35b346102865760203660031901126102865733600052600460205261065d60ff60406000205416612bc4565b602061066a600435612c14565b6040519015158152f35b34610286576020366003190112610286576080604051610693816128e7565b3690376106bc6106b0606f6106a9600435612856565b5001612fe6565b60405191829182612826565b0390f35b346102865760203660031901126102865760806040516106df816128e7565b36903760806106fb60686106f4600435612856565b5001612f19565b6107086040518092612a9f565bf35b3461028657602036600319011261028657600435610726612bf6565b61074060ff600361073684612856565b50015416156132a0565b600160ff61074d83612856565b505460a01c1611156108125761076281613646565b156107e75761077760ff60036103bc84612856565b61079561078382612856565b50546001600160a01b03163314612bc4565b60036107a082612856565b5001805460ff191660011790556107b68161369f565b507f50ad08f58a27f2851d7e3a1b3a6a46b290f2ce677e99642d30ff639721e77790600080a2602060405160018152f35b60405162461bcd60e51b815260206004820152600360248201526204531360ec1b6044820152606490fd5b60405162461bcd60e51b8152602060048201526002602482015261453960f01b6044820152606490fd5b34610286577f0c6a58d9f79b85a8f6842da406726f10a43321574f1fb3d9f41ec3bfcfb783616108ca6108c561093161087436612a5c565b610882959295949194612bf6565b61089260ff600361073689612856565b801561096057845b6001600160a01b039586166000908152600260205260409020546108bf908814613375565b8661340a565b612db1565b6108e060ff6108d883613099565b161515613375565b60ff6108f182606f61050c88612856565b90549060031b1c161561092461090c83606f61050c89612856565b819391549060ff809160031b9316831b921b19161790565b9055606861049f85612856565b90546040805194855260039290921b1c919091166001600160a01b0316602083015290a1602060405160018152f35b339461089a565b346102865760003660031901126102865733600052600460205261099260ff60406000205416612bc4565b60005460ff8116156109f0575060005460ff8116156109de5760ff19166000557f5db9ee0a495bf2e6ff9c91a7834c1ba4fdd244a5e8aa4e537bd38aeae4b073aa6020604051338152a1005b604051638dfc202b60e01b8152600490fd5b6001906109fb612bf6565b60ff1916176000557f62e78cea01bee320cd4e420270b5ea74000d11b0c9f74754ebdbfc544b05a2586020604051338152a1005b3461028657602036600319011261028657602060ff610a4f600435612856565b505460a01c16604051908152f35b34610286576020366003190112610286576080604051610a7c816128e7565b3690376080610a986071610a91600435612856565b5001613023565b6107086040518092612b51565b3461028657600036600319011261028657602061ffff60005460a81c16604051908152f35b346102865760203660031901126102865760206002610aea600435612856565b500154604051908152f35b346102865760203660031901126102865760043561ffff8116810361028657336000526004602052610b2e60ff60406000205416612bc4565b6000805461ffff60a81b191660a89290921b61ffff60a81b16919091179055005b3461028657604036600319011261028657610b8d610b6b612a8f565b336000526004602052610b8560ff60406000205416612bc4565b6004356130ab565b50602060405160018152f35b34610286576020366003190112610286576001600160a01b03610bba612a46565b166000526004602052602060ff604060002054166040519015158152f35b346102865760003660031901126102865760005460405160089190911c6001600160a01b03168152602090f35b34610286576020366003190112610286576001600160a01b03610c26612a46565b166000526003602052608060406000208054906001810154906003600282015491015491604051938452602084015260408301526060820152f35b34610286576020366003190112610286576080604051610c80816128e7565b3690376080610c9c606c610c95600435612856565b5001612f58565b6107086040518092612ad0565b3461028657602036600319011261028657602061066a600435610cca612bf6565b610cda60ff600361073684612856565b3360005260028352610cf28160406000205414613375565b61348f565b346102865760203660031901126102865760e0604051610d1681612903565b36903760e0610d32606d610d2b600435612856565b5001612f8f565b6107086040518092612afc565b3461028657600036600319011261028657610d58612b95565b60008054610100600160a81b03198116825560081c6001600160a01b03167f8be0079c531659141344cd1fd0a4f28419497f9722a3daafe3b4186f6b6457e08280a3005b3461028657600036600319011261028657602060ff600054166040519015158152f35b34610286576000366003190112610286576020600154604051908152f35b612b79565b3461028657600036600319011261028657602060405160648152f35b3461028657604036600319011261028657610e17612a46565b336000526004602052610e3160ff60406000205416612bc4565b60018060a01b03166000526002602052602435604060002055602060405160018152f35b34610286576040366003190112610286576024356001600160a01b0381169081900361028657600080808060209433825260048652610e9a60ff604084205416612bc4565b600435905af1610ea8612d37565b506040519015158152f35b3461028657602036600319011261028657600435600a8110156102865760011b6019810154601a90910154604080516001600160a01b039093168352602083019190915290f35b3461028657602036600319011261028657610f13612a46565b610f1b612b95565b6001600160a01b03166000908152600460205260409020805460ff818116151660ff19909116179055005b602036600319011261028657610f5a612bf6565b610f68600435341015613231565b336000526002602052610f8060406000205415613262565b604051610f8c81612891565b610f94612ebd565b8152604051610c8080820182811067ffffffffffffffff8211176114f05760405260005b8181106115065750506020820152604051610fd2816128e7565b60803682376040820152604051610fe8816128e7565b60803682376060820152604051610ffe81612903565b60e03682376080820152604051611014816128e7565b608036823760a082015260405161102a816128e7565b608036823760c0820152604051611040816128e7565b608036823760e0820152604051611056816128e7565b60803682376101008201523381515260016020825101526004356060825101526004356080825101523360408201515261ffff60005460a81c1660608201515260005b60ff90600782821610156110c4576110bf916080840151611fe08360051b160152612d90565b611099565b82600160a082015152600154680100000000000000008110156114f0578060016110f19201600155612856565b9190916114da578051805183546020830151604084015160ff60a01b60a092831b166001600160a01b039094166001600160b01b0319909316929092179290921760a89190911b60ff60a81b16178455606082015160018501556080820151600285015581015160038401805460ff191691151560ff169190911781556111e49160c0810151825461ff00191690151560081b61ff001617825560e081015182546101008301516101209093015162010000600160c01b031990911691151560101b62ff0000169190911791151560181b63ff000000169190911760209190911b640100000000600160c01b0316179055565b602081015160048301906000905b606482106114a357505050604081015160005b60048110611483575050606081015160009060005b60048110611452575050606c830155608081015160009060005b60078110611424575050606d83015560a081015160009060005b600481106113f7575050606e83015560c081015160009060005b600481106113ca575050606f83015560e081015160009060005b6004811061139d578461010085856070840155015160005b6004811061138657600154600019810190811161137057602090336000526002825280604060002055601a6112ce82612856565b500160ff19906001828254161790556016606d6112ea84612856565b5001918254161790557f77e6743d8e2e96f1c711a902e1df1a77d6144b056ec2e83f86136c4267db0d99606061131f83612856565b5060680154604080518581526001600160a01b0390921686830152601690820152a16040519033817fc3e0f84839dc888c892a013d10c8f9d6dc05a21a879d0ce468ca558013e9121c600080a38152f35b634e487b7160e01b600052601160045260246000fd5b60019060208351930192607182860101550161129a565b909160206113c16001928486511515919060ff809160031b9316831b921b19161790565b93019101611282565b909160206113ee6001928486511515919060ff809160031b9316831b921b19161790565b93019101611268565b9091602061141b6001928486511515919060ff809160031b9316831b921b19161790565b9301910161124e565b909160206114496001928460ff875116919060ff809160031b9316831b921b19161790565b93019101611234565b9091602061147a60019261ffff8651169085851b60031b9161ffff809116831b921b19161790565b9301910161121a565b81516001600160a01b031660688286010155602090910190600101611205565b80518051845460209283015161ff0090151560081b1660ff90921661ffff19909116171784556001918291019301910190916111f2565b634e487b7160e01b600052600060045260246000fd5b634e487b7160e01b600052604160045260246000fd5b602090604051611515816128ae565b600081526000838201528185015201610fb8565b3461028657602036600319011261028657611542612ebd565b5061014061155a611554600435612856565b50612941565b61070860405180926129cd565b346102865760203660031901126102865760043560ff811681036102865733600052600460205261159f60ff60406000205416612bc4565b6000805460ff60b81b191660b89290921b60ff60b81b16919091179055005b3461028657600036600319011261028657602060405160048152f35b346102865760203660031901126102865760806040516115f9816128e7565b3690376106bc6106b0606e6106a9600435612856565b346102865760003660031901126102865760015467ffffffffffffffff81116114f0576040519061164660208260051b018361291f565b80825260208201809160016000527fb10e2d527612073b26eecdfd717e6a320cf44b4afac2b0732d9fcbe2b7fa0cf6916000905b82821061179a5784866040519182916020830190602084525180915260408301919060005b8181106116ad575050500390f35b91809450929092516116c08282516129cd565b602081015160009061014084015b6064831061177557505050611e20600192611767610100846116fb60406020970151611a40860190612a9f565b61170e6060820151611ac0860190612ad0565b6117216080820151611b40860190612afc565b61173460a0820151611c20860190612b27565b61174760c0820151611ca0860190612b27565b61175a60e0820151611d20860190612b27565b0151611da0830190612b51565b01940191019184939261169f565b6020604060019282855160ff81511683520151151583820152019201920191906116ce565b6040516117a681612891565b6117af85612941565b8152604051610c80810181811067ffffffffffffffff8211176114f057604052600060048701825b6064831061187557505050600192826020928360759501526117fb60688901612f19565b604082015261180c606c8901612f58565b606082015261181d606d8901612f8f565b608082015261182e606e8901612fe6565b60a082015261183f606f8901612fe6565b60c082015261185060708901612fe6565b60e082015261186160718901613023565b61010082015281520194019101909261167a565b600160208192604051611887816128ae565b855460ff90818116835260081c161515838201528152019201920191906117d7565b3461028657602036600319011261028657600435600a8110156102865760011b6005810154600690910154604080516001600160a01b039093168352602083019190915290f35b3461028657606036600319011261028657611909612a8f565b6044359060ff82168092036102865761090c61194d9133600052600460205261193960ff60406000205416612bc4565b606d611946600435612856565b5001612d77565b9055602060405160018152f35b346102865760803660031901126102865760046024351015610286576044356001600160a01b0381169003610286576064351515606435036102865761199e612bf6565b600160ff60036119af600435612856565b5001541615150361236b5760ff60036119c9600435612856565b50015460101c16612340576119e660ff60036103a1600435612856565b6119f860ff60036103bc600435612856565b6064351561233a576044355b6001600160a01b0316600090815260026020526040902054611a299060043514613375565b611a4760ff611a3f60643560443560043561340a565b161515612bc4565b600160ff611a77611a59600435612856565b50606e611a706108c560643560443560043561340a565b910161335c565b90549060031b1c1615150361230f57611a9a6108c560643560443560043561340a565b60ff611aad82606d611946600435612856565b90549060031b1c16611ac0602435613a2d565b60000b8160000b0190607f198212607f8313176113705760ff600a600992611ae9600435612856565b5050611af96064868516106139db565b828282061615806122f8575b6122e1575b061614806122ca575b6122b2575b60ff611b35611b28600435612856565b5060048484169101612f09565b505460081c166122875760ff611b4f611b28600435612856565b50541661200057611b669060ff1682600435613a70565b505b600160ff611b77600435612856565b505460a01c1614611bb4575b611b9490607161049f600435612856565b81549060031b9042821b91600019901b1916179055602060405160018152f35b6003611bc1600435612856565b5001805461ff00191661010017905560005b611bde600435612856565b5050600460ff82161015611ff657600160ff611c0183606e61050c600435612856565b90549060031b1c16151514611c1e57611c1990612d90565b611bd3565b611c2f90606861049f600435612856565b9054600391821b1c6001600160a01b03169190611c80908390611c53600435612856565b50018054640100000000600160c01b03191660209290921b640100000000600160c01b0316919091179055565b816004357f3d5fcd8fa3235aeb3897f25c8ea49989174981afcb01b9d03189d1056a16775b600080a3611d4f6064611cda6002611cbe600435612856565b50015460ff611cd38160005460b81c16612dc4565b1690612dd5565b04611cf5600080808085895af1611cef612d37565b50612de8565b80846004357f2d2c3375da5b0a5f617bbcefa38e413a9ef5f70e50d0f9c5f6cc0adc3fa35779600080a48360005260036020526040600020611d3781546139bf565b90556001611d46600435612856565b50015490613293565b826000526003602052611d6b6002604060002001918254613333565b90558160005260036020526002604060002001546018548111611ee7575b5081600052600360205260406000205491602c548311611dbe575b50611b9491505b611db6600435612e1a565b509050611b83565b60005b600a8110611e0f575b50611b9492508060005260036020527f3c6f7494b388aaf4947e5d85eb5a50078031fc2332493b751f7596351f23c1b96020604060002054604051908152a282611da4565b601a8160011b01548411611e2b57611e26906139bf565b611dc1565b9260095b848111611e615750601a84611b949560011b601901846001600160601b0360a01b82541617905560011b015583611dca565b8060001981011161137057600a60001982011015611ed1576019600019820160011b01546001600160a01b031690600a811015611ed157611ecc918160011b9081601901906001600160601b0360a01b825416179055601a80600019840160011b01549101556139ce565b611e2f565b634e487b7160e01b600052603260045260246000fd5b9060005b600a8110611f3a575b509050816000526003602052817f9cb8864a722bf07d0c04c1323e8c2768a9200d39440c236ee5f41d91b911ccf56020600260406000200154604051908152a282611d89565b60068160011b01548311611f5657611f51906139bf565b611eeb565b60099291925b818111611f86575060011b6005810180546001600160a01b03191685179055600601558083611ef4565b8060001981011161137057600a60001982011015611ed1576005600019820160011b01546001600160a01b031690600a811015611ed157611ff1918160011b9081600501906001600160601b0360a01b825416179055600680600019840160011b01549101556139ce565b611f5c565b50611b9490611dab565b600460ff61201d6120118335612856565b50838584169101612f09565b505416111561223f5760ff61204661204e92600461203b8135612856565b509184169101612f09565b505416612db1565b61207a60ff61206483606d611946600435612856565b90549060031b1c1691606d611946600435612856565b60ff82549160031b1b9081191617905561209a8160046102628135612856565b50805460ff191690556120dc6120b1600435612856565b506120c260ff825460a81c1661347f565b815460ff60a81b191660a89190911b60ff60a81b16179055565b604051608260208201428152446040840152606f60631b606084015260548352612105836128e7565b91519091200660010b60401901617fff198112617fff821317611370577f4168397e3332cba8985a16a57159387a99c724a169bfcdf065ef6674896a7b44608061215685606861049f600435612856565b60018060a01b0391549060031b1c1692604051936004358552602085015284604085015260010b92836060820152a161ffff61219984606c6104db600435612856565b90549060031b1c1660010b01617fff198112617fff82131761137057806000600182900b136122035750506121d082600435613b43565b5061ffff60005b166121ef575b506121e960043561369f565b50611b68565b6121fc9082600435613a70565b50816121dd565b61ffff916122388361221c87606c6104db600435612856565b919093169083549060031b9161ffff809116831b921b19161790565b90556121d7565b600460ff6122506120118335612856565b505416111561225f5750611b68565b61227760ff61204661228093600461203b8135612856565b82600435613ce0565b50816121e9565b60405162461bcd60e51b815260206004820152600360248201526245313560e81b6044820152606490fd5b6122c560ff600a838216061615156139db565b611b18565b506122d6602435613a0d565b600360243514611b13565b6122f3848484888216061614156139db565b611b0a565b50612304602435613a0d565b600160243514611b05565b60405162461bcd60e51b815260206004820152600360248201526245313360e81b6044820152606490fd5b33611a04565b60405162461bcd60e51b815260206004820152600360248201526208a62760eb1b6044820152606490fd5b60405162461bcd60e51b815260206004820152600260248201526108a760f31b6044820152606490fd5b34610286576123a336612a5c565b6123ab612bf6565b801561264457815b6001600160a01b03166000908152600260205260409020546123d6908414613375565b6123e46108c582848661340a565b9260ff926123f5846108d887613099565b6123fe82612856565b50928461245561241288607080980161335c565b98905461244984612427848b61050c8c612856565b91909360039d8e1b1c16159083549060ff809160031b9316831b921b19161790565b90558661050c87612856565b905490881b1c166125c4575b50508261246d82612856565b505460a01c169260009260005b61248384612856565b5050600483821610156124fe5761249e818361050c87612856565b9054600191891b1c84161515811490816124dc575b506124c7575b6124c290612d90565b61247a565b936124d46124c291612d90565b9490506124b9565b9050836124ee83606e61050c89612856565b9054908a1b1c16151514886124b3565b8387868516881485816125aa575b501561256457816020916125407f60f26477008aa4c656f8e1e30cdc74fa0be1c07ff15eead918e9614cdca8d16694612856565b5001805462ff0000191662010000179055604051908152a15b602060405160018152f35b816020916125927fd89f8445e94a8e31afc10a82c48d2518eff9f4efc746fdf7b029c28e3fc5463a94612856565b5001805462ff000019169055604051908152a1612559565b9050816125b684612856565b50015460101c16158361250c565b156126195761260f7f2b02cf7e1a7798ae84c4e889779d06feaed067d1a58cdbc014f6a98fb619f2bb915b604080518581526001600160a01b03909216602083015290918291820190565b0390a18480612461565b507f2b02cf7e1a7798ae84c4e889779d06feaed067d1a58cdbc014f6a98fb619f2bb61260f336125ef565b336123b3565b346102865760203660031901126102865760206001610aea600435612856565b34610286576020366003190112610286576004356001548110156102865761155a61155461014092612856565b34610286576000366003190112610286576126b0613056565b506040516126bd816128ca565b60196000825b600a82106126d957604051806106bc86826127e2565b6002600191604051906126eb826128ae565b838060a01b0386541682528386015491602092838201528152019301910190916126c3565b3461028657600036600319011261028657602060ff60005460b81c16604051908152f35b34610286576020366003190112610286576080604051612753816128e7565b3690376106bc6106b060706106a9600435612856565b3461028657600036600319011261028657612782613056565b5060405161278f816128ca565b60056000825b600a82106127ab57604051806106bc86826127e2565b6002600191604051906127bd826128ae565b838060a01b038654168252838601549160209283820152815201930191019091612795565b610280810192916000915b600a83106127fa57505050565b815180516001600160a01b031682526020908101518183015260019390930192909101906040016127ed565b6080810192916000915b6004831061283d57505050565b6001908251151581526020809101920192019190612830565b600154811015611ed1576075906001600052027fb10e2d527612073b26eecdfd717e6a320cf44b4afac2b0732d9fcbe2b7fa0cf60190600090565b610120810190811067ffffffffffffffff8211176114f057604052565b6040810190811067ffffffffffffffff8211176114f057604052565b610140810190811067ffffffffffffffff8211176114f057604052565b6080810190811067ffffffffffffffff8211176114f057604052565b60e0810190811067ffffffffffffffff8211176114f057604052565b90601f8019910116810190811067ffffffffffffffff8211176114f057604052565b9060405161294e816128ca565b61012081938054600360018060a01b0392838316865260ff8381809560a01c16602089015260a81c1660408701526001810154606087015260028101546080870152015490808216151560a0860152808260081c16151560c0860152808260101c16151560e08601528160181c16151561010085015260201c16910152565b60018060a01b0380825116835260ff602083015116602084015260ff6040830151166040840152606082015160608401526080820151608084015260a0820151151560a084015260c0820151151560c084015260e0820151151560e0840152610100808301511515908401526101208092015116910152565b600435906001600160a01b038216820361028657565b606090600319011261028657600435906024356001600160a01b0381168103610286579060443580151581036102865790565b6024359060ff8216820361028657565b6000915b60048310612ab057505050565b81516001600160a01b031681526001929092019160209182019101612aa3565b6000915b60048310612ae157505050565b60019061ffff83511681526020809101920192019190612ad4565b6000915b60078310612b0d57505050565b60019060ff83511681526020809101920192019190612b00565b6000915b60048310612b3857505050565b6001908251151581526020809101920192019190612b2b565b6000915b60048310612b6257505050565b600190825181526020809101920192019190612b55565b34610286576000366003190112610286576020604051600a8152f35b60005460081c6001600160a01b03163303612bac57565b60405163118cdaa760e01b8152336004820152602490fd5b15612bcb57565b60405162461bcd60e51b815260206004820152600360248201526222989960e91b6044820152606490fd5b60ff60005416612c0257565b60405163d93c066560e01b8152600490fd5b60005b612c2082612856565b505060ff9060048282161015612ce35780612c8392612c3e85612856565b509085612c4f846068809501612da1565b91909260018060a01b03809454600394851b1c1660005260026020528160406000205414612c88575b505050505050612d90565b612c17565b6064612ccc60009695879695612ca7612cd89a899861049f8a99612856565b9054911b1c16926001612cb98d612856565b50015490611cd381875460b81c16612dc4565b04905af1611cef612d37565b803880808681612c78565b5050612cee81612e1a565b506003612cfa82612856565b5001805463ff000000191663010000001790557fc6cdad3b3d7abda636116a8e94d054f37e923a63418e338faefe22d5cd582ab2600080a2600190565b3d15612d72573d9067ffffffffffffffff82116114f05760405191612d66601f8201601f19166020018461291f565b82523d6000602084013e565b606090565b9190916007831015611ed157601f908360051c01921690565b60ff1660ff81146113705760010190565b6004821015611ed1570190600090565b60ff6000199116019060ff821161137057565b60ff166064039060ff821161137057565b8181029291811591840414171561137057565b15612def57565b60405162461bcd60e51b815260206004820152600360248201526222989b60e91b6044820152606490fd5b60005b612e2682612856565b5050600460ff82161015612eb65780612e8991612e4284612856565b50612e51826068809301612da1565b60018060a01b03809254600392831b1c1660005260029160209183835260409489866000205414612e8e575b50505050505050612d90565b612e1d565b600096612e9e9161049f8c612856565b9054911b1c1684525281205580388080808080612e7d565b5050600190565b60405190612eca826128ca565b816101206000918281528260208201528260408201528260608201528260808201528260a08201528260c08201528260e0820152826101008201520152565b6064821015611ed1570190600090565b60405191906000835b60048210612f3857505050612f36826128e7565b565b82546001600160a01b031681526001928301929190910190602001612f22565b90604051915461ffff908181168452818160101c166020850152818160201c16604085015260301c166060830152612f36826128e7565b90604051915460ff908181168452818160081c166020850152818160101c166040850152818160181c166060850152818160201c166080850152818160281c1660a085015260301c1660c0830152612f3682612903565b9060ff604051925481811615158452818160081c1615156020850152818160101c161515604085015260181c1615156060830152612f36826128e7565b60405191906000835b6004821061304057505050612f36826128e7565b600160208192855481520193019101909161302c565b604090815191613065836128ca565b600083815b61014081106130795750505050565b6020908451613087816128ae565b8481528483820152818401520161306a565b60ff60019116019060ff821161137057565b61313d917f77e6743d8e2e96f1c711a902e1df1a77d6144b056ec2e83f86136c4267db0d9991600060ff83168061317757505061317160169485935b6130f081613099565b60ff61310187600461026289612856565b50911660ff1982541617905561092461311f82606d61194688612856565b60ff88939293169083549060ff809160031b9316831b921b19161790565b90546040805194855260039290921b1c6001600160a01b0316602084015260ff909316928201929092529081906060820190565b0390a190565b6001810361318e575050613171604d9485936130e7565b600281036131db5750508260606131aa84606861049f86612856565b9054906040519185835260018060a01b039160031b1c166020820152601b6040820152a1613171601b9485936130e7565b60030361322557508260606131f584606861049f86612856565b60018060a01b0391549060031b1c1660405190848252602082015260486040820152a161317160489485936130e7565b613171909485936130e7565b1561323857565b60405162461bcd60e51b8152602060048201526002602482015261229960f11b6044820152606490fd5b1561326957565b60405162461bcd60e51b8152602060048201526002602482015261453360f01b6044820152606490fd5b9190820391821161137057565b156132a757565b60405162461bcd60e51b8152602060048201526002602482015261453560f01b6044820152606490fd5b156132d857565b60405162461bcd60e51b8152602060048201526002602482015261229b60f11b6044820152606490fd5b1561330957565b60405162461bcd60e51b8152602060048201526002602482015261453760f01b6044820152606490fd5b9190820180921161137057565b9190916004831015611ed157601e908360041c019260011b1690565b9190916004831015611ed157601f908360051c01921690565b1561337c57565b60405162461bcd60e51b815260206004820152600360248201526245313160e81b6044820152606490fd5b60005b6133b382612856565b5050600460ff82161015613403576133d081606861049f85612856565b905460039190911b1c6001600160a01b031633146133f6576133f190612d90565b6133aa565b6134009150613099565b90565b5050600090565b9160005b61341784612856565b5050600460ff821610156134765761343481606861049f87612856565b9054831561346f5784905b60018060a01b038092169260031b1c16146134625761345d90612d90565b61340e565b9150506134009150613099565b339061343f565b50505050600090565b60ff168015611370576000190190565b61349b6108c5826133a7565b60ff908181161561361b576135fe8291607061050c866134ec6134e060016134c460649b612856565b500154600080809c819482948d611cd381865460b81c16612dc4565b04335af1611cef612d37565b6135086134f882612856565b506103e588825460a01c1661347f565b600161351382612856565b50015461352e600261352484612856565b5001918254613293565b905561355f61353c82612856565b50600461354e87606d61194687612856565b99905460039a8b1b1c169101612f09565b50805460ff1916905561357784606861049f84612856565b81546001600160a01b0391891b9190911b1916905561359b84606c6104db84612856565b61ffff825491891b1b191690556135b784606d61194684612856565b88825491891b1b908119161790556135d484606e61050c84612856565b88825491891b1b191690556135ee84606f61050c84612856565b88825491891b1b19169055612856565b81939154921b1b1916905533815260026020526040812055600190565b509061362f61364092600361073684612856565b61363b61078382612856565b612c14565b50600190565b6000805b61365383612856565b5060ff80915460a01c1681831610156136965761367582606f61050c87612856565b90549060031b1c16156136905761368b90612d90565b61364a565b50905090565b50505050600190565b90600060045b6136ae84612856565b505060ff600781831610156136fe57806136cd83606d61194689612856565b90549060031b1c16036136e9575b6136e490612d90565b6136a5565b906136f66136e491612d90565b9190506136db565b505091600090815b61370f82612856565b505060ff600481831610156137635760019061373083606e61050c87612856565b90549060031b1c1615151461374e575b61374990612d90565b613706565b9161375b61374991612d90565b929050613740565b50509092919260ff8080941660000b911660000b0390607f1990607f831382841217611370576000199260000b8301828112607f8213176113705760008082810b136000146138f657505b9360045b6137bb83612856565b5050600782821610156138eb576137d183612856565b5082806137e284606d809501612d77565b90549060031b1c16146137ff575b506137fa90612d90565b6137b2565b909560000b9060008213156138df576060837f7fa8af5a083dce9776f1c477855a76d7d16c984c6b39ac52003310cd5e71c35e926138926138768b6138468533168b613920565b938a8661386187600461026261385b88613099565b95612856565b50911660ff198254161790556119468b612856565b93909216809383549060ff809160031b9316831b921b19161790565b90556138b06138a087612856565b506120c287825460a81c16612d90565b6138b989613099565b90604086815193898552166020840152820152a1838114611370578401946137fa6137f0565b50505050505050600190565b505050505050600190565b90506137ae565b6001600160a01b0390811660038181029092169291818404149015171561137057565b60ff61396060405160208101904282524460408201526001600160601b03198660601b16606082015260548152613956816128e7565b5190206064900690565b1660ff61397282600461026286612856565b5054161580159061399c575b156139965750613990613400926138fd565b90613920565b91505090565b506139ba6139af82600461026286612856565b505460081c60ff1690565b61397e565b60001981146113705760010190565b8015611370576000190190565b156139e257565b60405162461bcd60e51b8152602060048201526003602482015262114c4d60ea1b6044820152606490fd5b60041115613a1757565b634e487b7160e01b600052602160045260246000fd5b6004811015613a175760028103613a445750600a90565b80613a50575060091990565b60018103613a5f575060001990565b600303613a6b57600190565b600090565b613b137f689254b753ca60742e68c59d0d98cc6d231f56da7de5fa9040dadc96ab3b0c5092613ac4613aa184612856565b50600460ff613ab585606d6119468a612856565b90549060031b1c169101612f09565b5060ff1990818154169055613ad882613099565b9060ff613aea88600461026289612856565b50921690825416179055613b0661311f82606d61194687612856565b9055606861049f84612856565b90546040805193845260039290921b1c6001600160a01b0316602083015260ff8416908201528060608101613171565b613c4a613b5583606e61050c85612856565b90805460ff600393841b1b19169055613b92613b7084612856565b50600460ff613b8488606d6119468a612856565b905490861b1c169101612f09565b50805460ff19169055613baa84606d61194686612856565b60ff825491841b1b90811916179055613bc884606c6104db86612856565b61ffff825491841b1b19169055613bf2613be184612856565b506103e560ff825460a01c1661347f565b7f17bbddf7564415da2a525f1a441df1385857f5438a6c5836a1a5d71fa1c1bb8c613c2285606861049f87612856565b90546040805187815292851b9190911c6001600160a01b039081166020840152948291820190565b0390a1613ccb84606861049f85613c65848461049f8b612856565b905490871b1c169660009788528560205260016040892001613c8781546139bf565b90556001613c9482612856565b50015487613ca6868661049f86612856565b905490891b1c16895286602052613cc48760408b2001918254613333565b9055612856565b9054911b1c1681526002602052604081205590565b9091613cf181606d61194685612856565b905491613cff818686613e54565b60ff808716911614600014613dbd57839285927f2840e066f6437c6fb9c7a3af38071a68da790571d095d010b1120d231f17c9eb85613d73613dab61049f87613d4d60ff99613db99d613b43565b50613d5d8a606861049f88612856565b949091606860018060a01b039485945498612856565b90549060031b1c169060405194859460031b1c168a849160409194936060840195845260018060a01b03809216602085015216910152565b0390a160031b1c1691613a70565b5090565b9391505081613ded827f2840e066f6437c6fb9c7a3af38071a68da790571d095d010b1120d231f17c9eb94613b43565b50613171613e1c613e0386606861049f86612856565b939060018060a01b039283915496606861049f85612856565b90549060031b1c169160405195869560031b1c1690849160409194936060840195845260018060a01b03809216602085015216910152565b919091613e6683606c6104db84612856565b90613e8484606c6104db61ffff80968196549060031b1c1696612856565b90549060031b1c16820181811161137057168015613f4057670de0b6b3a7640000808302928084048214811517156113705768056bc75e2d631000000292808404606414901517156113705780820291820403611370578015613f2a5760646040516020810190428252446040820152600b60631b606082015260548152613f0b816128e7565b519020069160018301809311611370570410613f25575090565b905090565b634e487b7160e01b600052601260045260246000fd5b60405162461bcd60e51b815260206004820152602960248201527f6469766973696f6e206279207a65726f2077696c6c20726573756c7420696e2060448201526834b73334b734ba3c9760b91b6064820152608490fdfea26469706673582212209b36ebe32ec944cd084ddfebac128e43c07b38204fdbef71ecf65b66a4400f0e64736f6c63430008140033","linkReferences":{}},"methodIdentifiers":{"MAP_HEIGHT()":"59b78681","MAP_WIDTH()":"3dbf0b55","MAX_PLAYERS()":"4411b3eb","TILE_COUNT()":"5941905f","adminBootAll(uint256)":"e9355718","adminSetPlayerGamePosition(uint256,uint8,uint8)":"2b782981","adminSetPlayerInGame(address,uint256)":"571711dc","adminSpawnPlayer(uint256,uint8)":"93efecbb","adminTransferFunds(uint256,address)":"54c0fc12","checkAdmin(address)":"9026dee8","createGame(uint256)":"48e837b9","games(uint256)":"117a5b90","getGameInfo(uint256)":"47e1d550","getGamesArray()":"33e84b10","getPiecePositions(uint256)":"7282947f","getPlayerFTs(uint256)":"7dc93872","getPlayerIds(uint256)":"e63a7d91","getPlayerLastMoveTime(uint256)":"b5cbde68","getPlayerLives(uint256)":"38a8f681","getPlayerPauseVote(uint256)":"026b875a","getPlayerReadiness(uint256)":"e8c2f734","getRoomBoard(uint256,uint8)":"fd6736dd","getRoomMinStake(uint256)":"197614bb","getRoomPlayersCount(uint256)":"ba425cce","getRoomTotalStaked(uint256)":"9bf0e1da","getTop10RanksByEarnings()":"00027277","getTop10RanksByWinnings()":"0ffb0e62","getTotalGames()":"5bd4349b","houseFee()":"0ed469b8","joinGame(uint256)":"efaa55a0","leaveGameB4start(uint256)":"7d08163e","movePlayer(uint256,uint8,address,bool)":"28547f43","owner()":"8da5cb5b","paused()":"5c975abb","playerInGame(address)":"ec6a7c9f","playerReadyUp(uint256,address,bool)":"da078641","playerTogglePause(uint256,address,bool)":"235a3d2c","renounceOwnership()":"715018a6","setHouseFee(uint8)":"46cbb38f","setStartingFT(uint16)":"989b8200","startGame(uint256)":"e5ed1d59","starting_FT()":"af3e9420","togglePause()":"c4ae3168","toggleSetAdmin(address)":"51e37795","top10Earned(uint256)":"2d72b8bc","top10Wins(uint256)":"535b6d89","transferOwnership(address)":"f2fde38b","userStats(address)":"8a65d874"},"id":3}