{
    "abi": [
        {
            "type": "constructor",
            "inputs": [],
            "stateMutability": "nonpayable"
        },
        {
            "type": "function",
            "name": "MAP_HEIGHT",
            "inputs": [],
            "outputs": [
                {
                    "name": "",
                    "type": "uint8",
                    "internalType": "uint8"
                }
            ],
            "stateMutability": "view"
        },
        {
            "type": "function",
            "name": "MAP_WIDTH",
            "inputs": [],
            "outputs": [
                {
                    "name": "",
                    "type": "uint8",
                    "internalType": "uint8"
                }
            ],
            "stateMutability": "view"
        },
        {
            "type": "function",
            "name": "MAX_PLAYERS",
            "inputs": [],
            "outputs": [
                {
                    "name": "",
                    "type": "uint8",
                    "internalType": "uint8"
                }
            ],
            "stateMutability": "view"
        },
        {
            "type": "function",
            "name": "TILE_COUNT",
            "inputs": [],
            "outputs": [
                {
                    "name": "",
                    "type": "uint8",
                    "internalType": "uint8"
                }
            ],
            "stateMutability": "view"
        },
        {
            "type": "function",
            "name": "adminBootAll",
            "inputs": [
                {
                    "name": "_roomId",
                    "type": "uint256",
                    "internalType": "uint256"
                }
            ],
            "outputs": [
                {
                    "name": "",
                    "type": "bool",
                    "internalType": "bool"
                }
            ],
            "stateMutability": "nonpayable"
        },
        {
            "type": "function",
            "name": "adminSetPlayerGamePosition",
            "inputs": [
                {
                    "name": "_roomId",
                    "type": "uint256",
                    "internalType": "uint256"
                },
                {
                    "name": "_playerIndex",
                    "type": "uint8",
                    "internalType": "uint8"
                },
                {
                    "name": "_position",
                    "type": "uint8",
                    "internalType": "uint8"
                }
            ],
            "outputs": [
                {
                    "name": "",
                    "type": "bool",
                    "internalType": "bool"
                }
            ],
            "stateMutability": "nonpayable"
        },
        {
            "type": "function",
            "name": "adminSetPlayerInGame",
            "inputs": [
                {
                    "name": "_player",
                    "type": "address",
                    "internalType": "address"
                },
                {
                    "name": "_roomId",
                    "type": "uint256",
                    "internalType": "uint256"
                }
            ],
            "outputs": [
                {
                    "name": "",
                    "type": "bool",
                    "internalType": "bool"
                }
            ],
            "stateMutability": "nonpayable"
        },
        {
            "type": "function",
            "name": "adminSpawnPlayer",
            "inputs": [
                {
                    "name": "_roomId",
                    "type": "uint256",
                    "internalType": "uint256"
                },
                {
                    "name": "_playerIndex",
                    "type": "uint8",
                    "internalType": "uint8"
                }
            ],
            "outputs": [
                {
                    "name": "",
                    "type": "bool",
                    "internalType": "bool"
                }
            ],
            "stateMutability": "nonpayable"
        },
        {
            "type": "function",
            "name": "adminTransferFunds",
            "inputs": [
                {
                    "name": "_amount",
                    "type": "uint256",
                    "internalType": "uint256"
                },
                {
                    "name": "_to",
                    "type": "address",
                    "internalType": "address"
                }
            ],
            "outputs": [
                {
                    "name": "",
                    "type": "bool",
                    "internalType": "bool"
                }
            ],
            "stateMutability": "nonpayable"
        },
        {
            "type": "function",
            "name": "checkAdmin",
            "inputs": [
                {
                    "name": "_admin",
                    "type": "address",
                    "internalType": "address"
                }
            ],
            "outputs": [
                {
                    "name": "",
                    "type": "bool",
                    "internalType": "bool"
                }
            ],
            "stateMutability": "view"
        },
        {
            "type": "function",
            "name": "createGame",
            "inputs": [
                {
                    "name": "_minStake",
                    "type": "uint256",
                    "internalType": "uint256"
                }
            ],
            "outputs": [
                {
                    "name": "gameId",
                    "type": "uint256",
                    "internalType": "uint256"
                }
            ],
            "stateMutability": "payable"
        },
        {
            "type": "function",
            "name": "games",
            "inputs": [
                {
                    "name": "",
                    "type": "uint256",
                    "internalType": "uint256"
                }
            ],
            "outputs": [
                {
                    "name": "info",
                    "type": "tuple",
                    "internalType": "struct Royale.GameInfo",
                    "components": [
                        {
                            "name": "gameCreator",
                            "type": "address",
                            "internalType": "address"
                        },
                        {
                            "name": "playersCount",
                            "type": "uint8",
                            "internalType": "uint8"
                        },
                        {
                            "name": "itemCount",
                            "type": "uint8",
                            "internalType": "uint8"
                        },
                        {
                            "name": "minStake",
                            "type": "uint256",
                            "internalType": "uint256"
                        },
                        {
                            "name": "totalStaked",
                            "type": "uint256",
                            "internalType": "uint256"
                        },
                        {
                            "name": "hasStarted",
                            "type": "bool",
                            "internalType": "bool"
                        },
                        {
                            "name": "hasEnded",
                            "type": "bool",
                            "internalType": "bool"
                        },
                        {
                            "name": "gamePaused",
                            "type": "bool",
                            "internalType": "bool"
                        },
                        {
                            "name": "gameAbandoned",
                            "type": "bool",
                            "internalType": "bool"
                        },
                        {
                            "name": "winner",
                            "type": "address",
                            "internalType": "address"
                        }
                    ]
                }
            ],
            "stateMutability": "view"
        },
        {
            "type": "function",
            "name": "getGameInfo",
            "inputs": [
                {
                    "name": "_roomId",
                    "type": "uint256",
                    "internalType": "uint256"
                }
            ],
            "outputs": [
                {
                    "name": "",
                    "type": "tuple",
                    "internalType": "struct Royale.GameInfo",
                    "components": [
                        {
                            "name": "gameCreator",
                            "type": "address",
                            "internalType": "address"
                        },
                        {
                            "name": "playersCount",
                            "type": "uint8",
                            "internalType": "uint8"
                        },
                        {
                            "name": "itemCount",
                            "type": "uint8",
                            "internalType": "uint8"
                        },
                        {
                            "name": "minStake",
                            "type": "uint256",
                            "internalType": "uint256"
                        },
                        {
                            "name": "totalStaked",
                            "type": "uint256",
                            "internalType": "uint256"
                        },
                        {
                            "name": "hasStarted",
                            "type": "bool",
                            "internalType": "bool"
                        },
                        {
                            "name": "hasEnded",
                            "type": "bool",
                            "internalType": "bool"
                        },
                        {
                            "name": "gamePaused",
                            "type": "bool",
                            "internalType": "bool"
                        },
                        {
                            "name": "gameAbandoned",
                            "type": "bool",
                            "internalType": "bool"
                        },
                        {
                            "name": "winner",
                            "type": "address",
                            "internalType": "address"
                        }
                    ]
                }
            ],
            "stateMutability": "view"
        },
        {
            "type": "function",
            "name": "getGamesArray",
            "inputs": [],
            "outputs": [
                {
                    "name": "",
                    "type": "tuple[]",
                    "internalType": "struct Royale.GameRoom[]",
                    "components": [
                        {
                            "name": "info",
                            "type": "tuple",
                            "internalType": "struct Royale.GameInfo",
                            "components": [
                                {
                                    "name": "gameCreator",
                                    "type": "address",
                                    "internalType": "address"
                                },
                                {
                                    "name": "playersCount",
                                    "type": "uint8",
                                    "internalType": "uint8"
                                },
                                {
                                    "name": "itemCount",
                                    "type": "uint8",
                                    "internalType": "uint8"
                                },
                                {
                                    "name": "minStake",
                                    "type": "uint256",
                                    "internalType": "uint256"
                                },
                                {
                                    "name": "totalStaked",
                                    "type": "uint256",
                                    "internalType": "uint256"
                                },
                                {
                                    "name": "hasStarted",
                                    "type": "bool",
                                    "internalType": "bool"
                                },
                                {
                                    "name": "hasEnded",
                                    "type": "bool",
                                    "internalType": "bool"
                                },
                                {
                                    "name": "gamePaused",
                                    "type": "bool",
                                    "internalType": "bool"
                                },
                                {
                                    "name": "gameAbandoned",
                                    "type": "bool",
                                    "internalType": "bool"
                                },
                                {
                                    "name": "winner",
                                    "type": "address",
                                    "internalType": "address"
                                }
                            ]
                        },
                        {
                            "name": "board",
                            "type": "tuple[100]",
                            "internalType": "struct Royale.Tile[100]",
                            "components": [
                                {
                                    "name": "occupantId",
                                    "type": "uint8",
                                    "internalType": "uint8"
                                },
                                {
                                    "name": "isWall",
                                    "type": "bool",
                                    "internalType": "bool"
                                }
                            ]
                        },
                        {
                            "name": "playerIds",
                            "type": "address[4]",
                            "internalType": "address[4]"
                        },
                        {
                            "name": "playerFTs",
                            "type": "uint16[4]",
                            "internalType": "uint16[4]"
                        },
                        {
                            "name": "positions",
                            "type": "uint8[7]",
                            "internalType": "uint8[7]"
                        },
                        {
                            "name": "playerAlive",
                            "type": "bool[4]",
                            "internalType": "bool[4]"
                        },
                        {
                            "name": "playerReady",
                            "type": "bool[4]",
                            "internalType": "bool[4]"
                        },
                        {
                            "name": "playerPauseVote",
                            "type": "bool[4]",
                            "internalType": "bool[4]"
                        },
                        {
                            "name": "playerLastMoveTime",
                            "type": "uint256[4]",
                            "internalType": "uint256[4]"
                        }
                    ]
                }
            ],
            "stateMutability": "view"
        },
        {
            "type": "function",
            "name": "getPiecePositions",
            "inputs": [
                {
                    "name": "_roomId",
                    "type": "uint256",
                    "internalType": "uint256"
                }
            ],
            "outputs": [
                {
                    "name": "",
                    "type": "uint8[7]",
                    "internalType": "uint8[7]"
                }
            ],
            "stateMutability": "view"
        },
        {
            "type": "function",
            "name": "getPlayerFTs",
            "inputs": [
                {
                    "name": "_roomId",
                    "type": "uint256",
                    "internalType": "uint256"
                }
            ],
            "outputs": [
                {
                    "name": "",
                    "type": "uint16[4]",
                    "internalType": "uint16[4]"
                }
            ],
            "stateMutability": "view"
        },
        {
            "type": "function",
            "name": "getPlayerIds",
            "inputs": [
                {
                    "name": "_roomId",
                    "type": "uint256",
                    "internalType": "uint256"
                }
            ],
            "outputs": [
                {
                    "name": "",
                    "type": "address[4]",
                    "internalType": "address[4]"
                }
            ],
            "stateMutability": "view"
        },
        {
            "type": "function",
            "name": "getPlayerLastMoveTime",
            "inputs": [
                {
                    "name": "_roomId",
                    "type": "uint256",
                    "internalType": "uint256"
                }
            ],
            "outputs": [
                {
                    "name": "",
                    "type": "uint256[4]",
                    "internalType": "uint256[4]"
                }
            ],
            "stateMutability": "view"
        },
        {
            "type": "function",
            "name": "getPlayerLives",
            "inputs": [
                {
                    "name": "_roomId",
                    "type": "uint256",
                    "internalType": "uint256"
                }
            ],
            "outputs": [
                {
                    "name": "",
                    "type": "bool[4]",
                    "internalType": "bool[4]"
                }
            ],
            "stateMutability": "view"
        },
        {
            "type": "function",
            "name": "getPlayerPauseVote",
            "inputs": [
                {
                    "name": "_roomId",
                    "type": "uint256",
                    "internalType": "uint256"
                }
            ],
            "outputs": [
                {
                    "name": "",
                    "type": "bool[4]",
                    "internalType": "bool[4]"
                }
            ],
            "stateMutability": "view"
        },
        {
            "type": "function",
            "name": "getPlayerReadiness",
            "inputs": [
                {
                    "name": "_roomId",
                    "type": "uint256",
                    "internalType": "uint256"
                }
            ],
            "outputs": [
                {
                    "name": "",
                    "type": "bool[4]",
                    "internalType": "bool[4]"
                }
            ],
            "stateMutability": "view"
        },
        {
            "type": "function",
            "name": "getRoomBoard",
            "inputs": [
                {
                    "name": "_roomId",
                    "type": "uint256",
                    "internalType": "uint256"
                },
                {
                    "name": "_tilePos",
                    "type": "uint8",
                    "internalType": "uint8"
                }
            ],
            "outputs": [
                {
                    "name": "",
                    "type": "uint8",
                    "internalType": "uint8"
                },
                {
                    "name": "",
                    "type": "bool",
                    "internalType": "bool"
                }
            ],
            "stateMutability": "view"
        },
        {
            "type": "function",
            "name": "getRoomMinStake",
            "inputs": [
                {
                    "name": "_roomId",
                    "type": "uint256",
                    "internalType": "uint256"
                }
            ],
            "outputs": [
                {
                    "name": "",
                    "type": "uint256",
                    "internalType": "uint256"
                }
            ],
            "stateMutability": "view"
        },
        {
            "type": "function",
            "name": "getRoomPlayersCount",
            "inputs": [
                {
                    "name": "_roomId",
                    "type": "uint256",
                    "internalType": "uint256"
                }
            ],
            "outputs": [
                {
                    "name": "",
                    "type": "uint8",
                    "internalType": "uint8"
                }
            ],
            "stateMutability": "view"
        },
        {
            "type": "function",
            "name": "getRoomTotalStaked",
            "inputs": [
                {
                    "name": "_roomId",
                    "type": "uint256",
                    "internalType": "uint256"
                }
            ],
            "outputs": [
                {
                    "name": "",
                    "type": "uint256",
                    "internalType": "uint256"
                }
            ],
            "stateMutability": "view"
        },
        {
            "type": "function",
            "name": "getTop10RanksByEarnings",
            "inputs": [],
            "outputs": [
                {
                    "name": "",
                    "type": "tuple[10]",
                    "internalType": "struct Royale.RankingRow[10]",
                    "components": [
                        {
                            "name": "player",
                            "type": "address",
                            "internalType": "address"
                        },
                        {
                            "name": "amount",
                            "type": "uint256",
                            "internalType": "uint256"
                        }
                    ]
                }
            ],
            "stateMutability": "view"
        },
        {
            "type": "function",
            "name": "getTop10RanksByWinnings",
            "inputs": [],
            "outputs": [
                {
                    "name": "",
                    "type": "tuple[10]",
                    "internalType": "struct Royale.RankingRow[10]",
                    "components": [
                        {
                            "name": "player",
                            "type": "address",
                            "internalType": "address"
                        },
                        {
                            "name": "amount",
                            "type": "uint256",
                            "internalType": "uint256"
                        }
                    ]
                }
            ],
            "stateMutability": "view"
        },
        {
            "type": "function",
            "name": "getTotalGames",
            "inputs": [],
            "outputs": [
                {
                    "name": "",
                    "type": "uint256",
                    "internalType": "uint256"
                }
            ],
            "stateMutability": "view"
        },
        {
            "type": "function",
            "name": "houseFee",
            "inputs": [],
            "outputs": [
                {
                    "name": "",
                    "type": "uint8",
                    "internalType": "uint8"
                }
            ],
            "stateMutability": "view"
        },
        {
            "type": "function",
            "name": "joinGame",
            "inputs": [
                {
                    "name": "_roomId",
                    "type": "uint256",
                    "internalType": "uint256"
                }
            ],
            "outputs": [
                {
                    "name": "",
                    "type": "address",
                    "internalType": "address"
                }
            ],
            "stateMutability": "payable"
        },
        {
            "type": "function",
            "name": "leaveGameB4start",
            "inputs": [
                {
                    "name": "_roomId",
                    "type": "uint256",
                    "internalType": "uint256"
                }
            ],
            "outputs": [
                {
                    "name": "",
                    "type": "bool",
                    "internalType": "bool"
                }
            ],
            "stateMutability": "nonpayable"
        },
        {
            "type": "function",
            "name": "movePlayer",
            "inputs": [
                {
                    "name": "_roomId",
                    "type": "uint256",
                    "internalType": "uint256"
                },
                {
                    "name": "_dir",
                    "type": "uint8",
                    "internalType": "enum Royale.Dir"
                },
                {
                    "name": "_player",
                    "type": "address",
                    "internalType": "address"
                },
                {
                    "name": "_useBurner",
                    "type": "bool",
                    "internalType": "bool"
                }
            ],
            "outputs": [
                {
                    "name": "",
                    "type": "bool",
                    "internalType": "bool"
                }
            ],
            "stateMutability": "nonpayable"
        },
        {
            "type": "function",
            "name": "owner",
            "inputs": [],
            "outputs": [
                {
                    "name": "",
                    "type": "address",
                    "internalType": "address"
                }
            ],
            "stateMutability": "view"
        },
        {
            "type": "function",
            "name": "paused",
            "inputs": [],
            "outputs": [
                {
                    "name": "",
                    "type": "bool",
                    "internalType": "bool"
                }
            ],
            "stateMutability": "view"
        },
        {
            "type": "function",
            "name": "playerInGame",
            "inputs": [
                {
                    "name": "",
                    "type": "address",
                    "internalType": "address"
                }
            ],
            "outputs": [
                {
                    "name": "",
                    "type": "uint256",
                    "internalType": "uint256"
                }
            ],
            "stateMutability": "view"
        },
        {
            "type": "function",
            "name": "playerReadyUp",
            "inputs": [
                {
                    "name": "_roomId",
                    "type": "uint256",
                    "internalType": "uint256"
                },
                {
                    "name": "_player",
                    "type": "address",
                    "internalType": "address"
                },
                {
                    "name": "_useBurner",
                    "type": "bool",
                    "internalType": "bool"
                }
            ],
            "outputs": [
                {
                    "name": "",
                    "type": "bool",
                    "internalType": "bool"
                }
            ],
            "stateMutability": "nonpayable"
        },
        {
            "type": "function",
            "name": "playerTogglePause",
            "inputs": [
                {
                    "name": "_roomId",
                    "type": "uint256",
                    "internalType": "uint256"
                },
                {
                    "name": "_player",
                    "type": "address",
                    "internalType": "address"
                },
                {
                    "name": "_useBurner",
                    "type": "bool",
                    "internalType": "bool"
                }
            ],
            "outputs": [
                {
                    "name": "",
                    "type": "bool",
                    "internalType": "bool"
                }
            ],
            "stateMutability": "nonpayable"
        },
        {
            "type": "function",
            "name": "renounceOwnership",
            "inputs": [],
            "outputs": [],
            "stateMutability": "nonpayable"
        },
        {
            "type": "function",
            "name": "setHouseFee",
            "inputs": [
                {
                    "name": "_houseFee",
                    "type": "uint8",
                    "internalType": "uint8"
                }
            ],
            "outputs": [],
            "stateMutability": "nonpayable"
        },
        {
            "type": "function",
            "name": "setStartingFT",
            "inputs": [
                {
                    "name": "_startingFT",
                    "type": "uint16",
                    "internalType": "uint16"
                }
            ],
            "outputs": [],
            "stateMutability": "nonpayable"
        },
        {
            "type": "function",
            "name": "startGame",
            "inputs": [
                {
                    "name": "_roomId",
                    "type": "uint256",
                    "internalType": "uint256"
                }
            ],
            "outputs": [
                {
                    "name": "",
                    "type": "bool",
                    "internalType": "bool"
                }
            ],
            "stateMutability": "nonpayable"
        },
        {
            "type": "function",
            "name": "starting_FT",
            "inputs": [],
            "outputs": [
                {
                    "name": "",
                    "type": "uint16",
                    "internalType": "uint16"
                }
            ],
            "stateMutability": "view"
        },
        {
            "type": "function",
            "name": "togglePause",
            "inputs": [],
            "outputs": [],
            "stateMutability": "nonpayable"
        },
        {
            "type": "function",
            "name": "toggleSetAdmin",
            "inputs": [
                {
                    "name": "_admin",
                    "type": "address",
                    "internalType": "address"
                }
            ],
            "outputs": [],
            "stateMutability": "nonpayable"
        },
        {
            "type": "function",
            "name": "top10Earned",
            "inputs": [
                {
                    "name": "",
                    "type": "uint256",
                    "internalType": "uint256"
                }
            ],
            "outputs": [
                {
                    "name": "player",
                    "type": "address",
                    "internalType": "address"
                },
                {
                    "name": "amount",
                    "type": "uint256",
                    "internalType": "uint256"
                }
            ],
            "stateMutability": "view"
        },
        {
            "type": "function",
            "name": "top10Wins",
            "inputs": [
                {
                    "name": "",
                    "type": "uint256",
                    "internalType": "uint256"
                }
            ],
            "outputs": [
                {
                    "name": "player",
                    "type": "address",
                    "internalType": "address"
                },
                {
                    "name": "amount",
                    "type": "uint256",
                    "internalType": "uint256"
                }
            ],
            "stateMutability": "view"
        },
        {
            "type": "function",
            "name": "transferOwnership",
            "inputs": [
                {
                    "name": "newOwner",
                    "type": "address",
                    "internalType": "address"
                }
            ],
            "outputs": [],
            "stateMutability": "nonpayable"
        },
        {
            "type": "function",
            "name": "userStats",
            "inputs": [
                {
                    "name": "",
                    "type": "address",
                    "internalType": "address"
                }
            ],
            "outputs": [
                {
                    "name": "totalWins",
                    "type": "uint256",
                    "internalType": "uint256"
                },
                {
                    "name": "totalLosses",
                    "type": "uint256",
                    "internalType": "uint256"
                },
                {
                    "name": "totalGasEarned",
                    "type": "uint256",
                    "internalType": "uint256"
                },
                {
                    "name": "totalGasLost",
                    "type": "uint256",
                    "internalType": "uint256"
                }
            ],
            "stateMutability": "view"
        },
        {
            "type": "event",
            "name": "EarningsTopped",
            "inputs": [
                {
                    "name": "_player",
                    "type": "address",
                    "indexed": true,
                    "internalType": "address"
                },
                {
                    "name": "_earnings",
                    "type": "uint256",
                    "indexed": false,
                    "internalType": "uint256"
                }
            ],
            "anonymous": false
        },
        {
            "type": "event",
            "name": "GameAbandoned",
            "inputs": [
                {
                    "name": "_roomId",
                    "type": "uint256",
                    "indexed": true,
                    "internalType": "uint256"
                }
            ],
            "anonymous": false
        },
        {
            "type": "event",
            "name": "GameCreated",
            "inputs": [
                {
                    "name": "_roomId",
                    "type": "uint256",
                    "indexed": true,
                    "internalType": "uint256"
                },
                {
                    "name": "_creator",
                    "type": "address",
                    "indexed": true,
                    "internalType": "address"
                }
            ],
            "anonymous": false
        },
        {
            "type": "event",
            "name": "GameEnded",
            "inputs": [
                {
                    "name": "_roomId",
                    "type": "uint256",
                    "indexed": true,
                    "internalType": "uint256"
                },
                {
                    "name": "_winner",
                    "type": "address",
                    "indexed": true,
                    "internalType": "address"
                }
            ],
            "anonymous": false
        },
        {
            "type": "event",
            "name": "GamePaused",
            "inputs": [
                {
                    "name": "_roomId",
                    "type": "uint256",
                    "indexed": false,
                    "internalType": "uint256"
                }
            ],
            "anonymous": false
        },
        {
            "type": "event",
            "name": "GameStarted",
            "inputs": [
                {
                    "name": "_roomId",
                    "type": "uint256",
                    "indexed": true,
                    "internalType": "uint256"
                }
            ],
            "anonymous": false
        },
        {
            "type": "event",
            "name": "GameUnPaused",
            "inputs": [
                {
                    "name": "_roomId",
                    "type": "uint256",
                    "indexed": false,
                    "internalType": "uint256"
                }
            ],
            "anonymous": false
        },
        {
            "type": "event",
            "name": "ItemSpawned",
            "inputs": [
                {
                    "name": "_roomId",
                    "type": "uint256",
                    "indexed": false,
                    "internalType": "uint256"
                },
                {
                    "name": "_itemId",
                    "type": "uint8",
                    "indexed": false,
                    "internalType": "uint8"
                },
                {
                    "name": "_tile",
                    "type": "uint8",
                    "indexed": false,
                    "internalType": "uint8"
                }
            ],
            "anonymous": false
        },
        {
            "type": "event",
            "name": "OwnershipTransferred",
            "inputs": [
                {
                    "name": "previousOwner",
                    "type": "address",
                    "indexed": true,
                    "internalType": "address"
                },
                {
                    "name": "newOwner",
                    "type": "address",
                    "indexed": true,
                    "internalType": "address"
                }
            ],
            "anonymous": false
        },
        {
            "type": "event",
            "name": "Paused",
            "inputs": [
                {
                    "name": "account",
                    "type": "address",
                    "indexed": false,
                    "internalType": "address"
                }
            ],
            "anonymous": false
        },
        {
            "type": "event",
            "name": "PlayerJoined",
            "inputs": [
                {
                    "name": "_roomId",
                    "type": "uint256",
                    "indexed": false,
                    "internalType": "uint256"
                },
                {
                    "name": "_player",
                    "type": "address",
                    "indexed": false,
                    "internalType": "address"
                }
            ],
            "anonymous": false
        },
        {
            "type": "event",
            "name": "PlayerKilled",
            "inputs": [
                {
                    "name": "_roomId",
                    "type": "uint256",
                    "indexed": false,
                    "internalType": "uint256"
                },
                {
                    "name": "_player",
                    "type": "address",
                    "indexed": false,
                    "internalType": "address"
                }
            ],
            "anonymous": false
        },
        {
            "type": "event",
            "name": "PlayerKilledPlayer",
            "inputs": [
                {
                    "name": "_roomId",
                    "type": "uint256",
                    "indexed": false,
                    "internalType": "uint256"
                },
                {
                    "name": "_aggressor",
                    "type": "address",
                    "indexed": false,
                    "internalType": "address"
                },
                {
                    "name": "_victim",
                    "type": "address",
                    "indexed": false,
                    "internalType": "address"
                }
            ],
            "anonymous": false
        },
        {
            "type": "event",
            "name": "PlayerMoved",
            "inputs": [
                {
                    "name": "_roomId",
                    "type": "uint256",
                    "indexed": false,
                    "internalType": "uint256"
                },
                {
                    "name": "_player",
                    "type": "address",
                    "indexed": false,
                    "internalType": "address"
                },
                {
                    "name": "_destinationTile",
                    "type": "uint8",
                    "indexed": false,
                    "internalType": "uint8"
                }
            ],
            "anonymous": false
        },
        {
            "type": "event",
            "name": "PlayerPaused",
            "inputs": [
                {
                    "name": "_roomId",
                    "type": "uint256",
                    "indexed": false,
                    "internalType": "uint256"
                },
                {
                    "name": "_player",
                    "type": "address",
                    "indexed": false,
                    "internalType": "address"
                }
            ],
            "anonymous": false
        },
        {
            "type": "event",
            "name": "PlayerSpawned",
            "inputs": [
                {
                    "name": "_roomId",
                    "type": "uint256",
                    "indexed": false,
                    "internalType": "uint256"
                },
                {
                    "name": "_player",
                    "type": "address",
                    "indexed": false,
                    "internalType": "address"
                },
                {
                    "name": "_tile",
                    "type": "uint8",
                    "indexed": false,
                    "internalType": "uint8"
                }
            ],
            "anonymous": false
        },
        {
            "type": "event",
            "name": "PlayerToggleReady",
            "inputs": [
                {
                    "name": "_roomId",
                    "type": "uint256",
                    "indexed": false,
                    "internalType": "uint256"
                },
                {
                    "name": "_player",
                    "type": "address",
                    "indexed": false,
                    "internalType": "address"
                }
            ],
            "anonymous": false
        },
        {
            "type": "event",
            "name": "PlayerUnPaused",
            "inputs": [
                {
                    "name": "_roomId",
                    "type": "uint256",
                    "indexed": false,
                    "internalType": "uint256"
                },
                {
                    "name": "_player",
                    "type": "address",
                    "indexed": false,
                    "internalType": "address"
                }
            ],
            "anonymous": false
        },
        {
            "type": "event",
            "name": "RewardSent",
            "inputs": [
                {
                    "name": "_roomId",
                    "type": "uint256",
                    "indexed": true,
                    "internalType": "uint256"
                },
                {
                    "name": "_winner",
                    "type": "address",
                    "indexed": true,
                    "internalType": "address"
                },
                {
                    "name": "_reward",
                    "type": "uint256",
                    "indexed": true,
                    "internalType": "uint256"
                }
            ],
            "anonymous": false
        },
        {
            "type": "event",
            "name": "Unpaused",
            "inputs": [
                {
                    "name": "account",
                    "type": "address",
                    "indexed": false,
                    "internalType": "address"
                }
            ],
            "anonymous": false
        },
        {
            "type": "event",
            "name": "WinningsTopped",
            "inputs": [
                {
                    "name": "_player",
                    "type": "address",
                    "indexed": true,
                    "internalType": "address"
                },
                {
                    "name": "_winnings",
                    "type": "uint256",
                    "indexed": false,
                    "internalType": "uint256"
                }
            ],
            "anonymous": false
        },
        {
            "type": "error",
            "name": "EnforcedPause",
            "inputs": []
        },
        {
            "type": "error",
            "name": "ExpectedPause",
            "inputs": []
        },
        {
            "type": "error",
            "name": "OwnableInvalidOwner",
            "inputs": [
                {
                    "name": "owner",
                    "type": "address",
                    "internalType": "address"
                }
            ]
        },
        {
            "type": "error",
            "name": "OwnableUnauthorizedAccount",
            "inputs": [
                {
                    "name": "account",
                    "type": "address",
                    "internalType": "address"
                }
            ]
        }
    ],
    "bytecode": {
        "object": "0x60808060405234620001615760009081549033156200014b575033600882901c6001600160a01b03167f8be0079c531659141344cd1fd0a4f28419497f9722a3daafe3b4186f6b6457e08480a36001600160b81b0319163360081b610100600160a81b031617601960aa1b1760ff60b81b1916600160b91b1781556001546801000000000000000081101562000137576001810180918160015510156200012357156200010f577fb10e2d527612073b26eecdfd717e6a320cf44b4afac2b0732d9fcbe2b7fa0cf9805461ff001916610100179055805462ffffff60a81b191661801960aa1b1781553381526004602052604090819020805460ff1916600117905551613f809081620001678239f35b634e487b7160e01b81526032600452602490fd5b634e487b7160e01b82526032600452602482fd5b634e487b7160e01b82526041600452602482fd5b631e4fbdf760e01b815260048101839052602490fd5b600080fdfe6080604052600436101561001257600080fd5b60003560e01c80620272771461271c578063026b875a146126e75780630ed469b8146126c35780630ffb0e621461264a578063117a5b901461261d578063197614bb146125fd578063235a3d2c1461234857806328547f431461195a5780632b782981146118f05780632d72b8bc146118a957806333e84b101461160f57806338a8f681146115da5780633dbf0b5514610ddd5780634411b3eb146115be57806346cbb38f1461156757806347e1d5501461152957806348e837b914610f4657806351e3779514610efa578063535b6d8914610eb357806354c0fc1214610e55578063571711dc14610dfe5780635941905f14610de257806359b7868114610ddd5780635bd4349b14610dbf5780635c975abb14610d9c578063715018a614610d3f5780637282947f14610cf75780637d08163e14610ca95780637dc9387214610c615780638a65d87414610c055780638da5cb5b14610bd85780639026dee814610b9957806393efecbb14610b4f578063989b820014610af55780639bf0e1da14610aca578063af3e942014610aa5578063b5cbde6814610a5d578063ba425cce14610a2f578063c4ae316814610967578063da0786411461083c578063e5ed1d591461070a578063e63a7d91146106c0578063e8c2f73414610674578063e935571814610632578063ec6a7c9f146105f8578063efaa55a014610327578063f2fde38b1461028b5763fd6736dd1461022b57600080fd5b3461028657604036600319011261028657604060043560ff61027261024e612a42565b60046102628461026984846102628a612809565b5001612ebc565b50541695612809565b505460081c16825191825215156020820152f35b600080fd5b34610286576020366003190112610286576102a46129f9565b6102ac612b48565b6001600160a01b0381811691821561030e5760008054610100600160a81b03198116600893841b610100600160a81b031617825590911c91909116907f8be0079c531659141344cd1fd0a4f28419497f9722a3daafe3b4186f6b6457e09080a3005b604051631e4fbdf760e01b815260006004820152602490fd5b60203660031901126102865760043561033e612ba9565b33600052600260205261035660406000205415613215565b61035f81612809565b509060ff80925460a01c161515806105df575b156105b55761038081612809565b5091610393816003809501541615613253565b6103ae81846103a185612809565b50015460081c1615613284565b6103c981846103bc85612809565b50015460181c16156132b5565b6103ff6103d583612809565b506103e583825460a01c16612d43565b815460ff60a01b191660a09190911b60ff60a01b16179055565b61040882612809565b509061041b6001809301543410156131e4565b8161042584612809565b500154610440600261043686612809565b50019182546132e6565b905561045a8161044f85612809565b505460a01c16612d64565b916000815b61055d575b7f87969bc7faf902221a147b95ceba76e011c5efb0339a0a8ee7a2bb82d9cfbbd6610550866105398787878c6104a684606861049f89612809565b5001612d54565b81546001600160a01b0391841b91821b19163390911b17905560005460a81c61ffff166104fb6104e286606c6104db8b612809565b50016132f3565b819391549060031b9161ffff809116831b921b19161790565b905561051384606e61050c89612809565b500161330f565b81949154921b92831b921b1916179055336000526002602052826040600020558261305e565b506040805191825233602083015290918291820190565b0390a16020604051338152f35b61056685612809565b5050600483821610156105b05761058281606861049f88612809565b905490871b1c6001600160a01b0316156105a6576105a08291612d43565b9061045f565b9250610539610464565b610464565b60405162461bcd60e51b8152602060048201526002602482015261114d60f21b6044820152606490fd5b506004826105ec83612809565b505460a01c1610610372565b34610286576020366003190112610286576001600160a01b036106196129f9565b1660005260026020526020604060002054604051908152f35b346102865760203660031901126102865733600052600460205261065d60ff60406000205416612b77565b602061066a600435612bc7565b6040519015158152f35b346102865760203660031901126102865760806040516106938161289a565b3690376106bc6106b0606f6106a9600435612809565b5001612f99565b604051918291826127d9565b0390f35b346102865760203660031901126102865760806040516106df8161289a565b36903760806106fb60686106f4600435612809565b5001612ecc565b6107086040518092612a52565bf35b3461028657602036600319011261028657600435610726612ba9565b61074060ff600361073684612809565b5001541615613253565b600160ff61074d83612809565b505460a01c16111561081257610762816135f9565b156107e75761077760ff60036103bc84612809565b61079561078382612809565b50546001600160a01b03163314612b77565b60036107a082612809565b5001805460ff191660011790556107b681613652565b507f50ad08f58a27f2851d7e3a1b3a6a46b290f2ce677e99642d30ff639721e77790600080a2602060405160018152f35b60405162461bcd60e51b815260206004820152600360248201526204531360ec1b6044820152606490fd5b60405162461bcd60e51b8152602060048201526002602482015261453960f01b6044820152606490fd5b34610286577f0c6a58d9f79b85a8f6842da406726f10a43321574f1fb3d9f41ec3bfcfb783616108ca6108c561093161087436612a0f565b610882959295949194612ba9565b61089260ff600361073689612809565b801561096057845b6001600160a01b039586166000908152600260205260409020546108bf908814613328565b866133bd565b612d64565b6108e060ff6108d88361304c565b161515613328565b60ff6108f182606f61050c88612809565b90549060031b1c161561092461090c83606f61050c89612809565b819391549060ff809160031b9316831b921b19161790565b9055606861049f85612809565b90546040805194855260039290921b1c919091166001600160a01b0316602083015290a1602060405160018152f35b339461089a565b346102865760003660031901126102865733600052600460205261099260ff60406000205416612b77565b60005460ff8116156109f0575060005460ff8116156109de5760ff19166000557f5db9ee0a495bf2e6ff9c91a7834c1ba4fdd244a5e8aa4e537bd38aeae4b073aa6020604051338152a1005b604051638dfc202b60e01b8152600490fd5b6001906109fb612ba9565b60ff1916176000557f62e78cea01bee320cd4e420270b5ea74000d11b0c9f74754ebdbfc544b05a2586020604051338152a1005b3461028657602036600319011261028657602060ff610a4f600435612809565b505460a01c16604051908152f35b34610286576020366003190112610286576080604051610a7c8161289a565b3690376080610a986071610a91600435612809565b5001612fd6565b6107086040518092612b04565b3461028657600036600319011261028657602061ffff60005460a81c16604051908152f35b346102865760203660031901126102865760206002610aea600435612809565b500154604051908152f35b346102865760203660031901126102865760043561ffff8116810361028657336000526004602052610b2e60ff60406000205416612b77565b6000805461ffff60a81b191660a89290921b61ffff60a81b16919091179055005b3461028657604036600319011261028657610b8d610b6b612a42565b336000526004602052610b8560ff60406000205416612b77565b60043561305e565b50602060405160018152f35b34610286576020366003190112610286576001600160a01b03610bba6129f9565b166000526004602052602060ff604060002054166040519015158152f35b346102865760003660031901126102865760005460405160089190911c6001600160a01b03168152602090f35b34610286576020366003190112610286576001600160a01b03610c266129f9565b166000526003602052608060406000208054906001810154906003600282015491015491604051938452602084015260408301526060820152f35b34610286576020366003190112610286576080604051610c808161289a565b3690376080610c9c606c610c95600435612809565b5001612f0b565b6107086040518092612a83565b3461028657602036600319011261028657602061066a600435610cca612ba9565b610cda60ff600361073684612809565b3360005260028352610cf28160406000205414613328565b613442565b346102865760203660031901126102865760e0604051610d16816128b6565b36903760e0610d32606d610d2b600435612809565b5001612f42565b6107086040518092612aaf565b3461028657600036600319011261028657610d58612b48565b60008054610100600160a81b03198116825560081c6001600160a01b03167f8be0079c531659141344cd1fd0a4f28419497f9722a3daafe3b4186f6b6457e08280a3005b3461028657600036600319011261028657602060ff600054166040519015158152f35b34610286576000366003190112610286576020600154604051908152f35b612b2c565b3461028657600036600319011261028657602060405160648152f35b3461028657604036600319011261028657610e176129f9565b336000526004602052610e3160ff60406000205416612b77565b60018060a01b03166000526002602052602435604060002055602060405160018152f35b34610286576040366003190112610286576024356001600160a01b0381169081900361028657600080808060209433825260048652610e9a60ff604084205416612b77565b600435905af1610ea8612cea565b506040519015158152f35b3461028657602036600319011261028657600435600a8110156102865760011b6019810154601a90910154604080516001600160a01b039093168352602083019190915290f35b3461028657602036600319011261028657610f136129f9565b610f1b612b48565b6001600160a01b03166000908152600460205260409020805460ff818116151660ff19909116179055005b602036600319011261028657610f5a612ba9565b610f686004353410156131e4565b336000526002602052610f8060406000205415613215565b604051610f8c81612844565b610f94612e70565b8152604051610c8080820182811067ffffffffffffffff8211176114f05760405260005b8181106115065750506020820152604051610fd28161289a565b60803682376040820152604051610fe88161289a565b60803682376060820152604051610ffe816128b6565b60e036823760808201526040516110148161289a565b608036823760a082015260405161102a8161289a565b608036823760c08201526040516110408161289a565b608036823760e08201526040516110568161289a565b60803682376101008201523381515260016020825101526004356060825101526004356080825101523360408201515261ffff60005460a81c1660608201515260005b60ff90600782821610156110c4576110bf916080840151611fe08360051b160152612d43565b611099565b82600160a082015152600154680100000000000000008110156114f0578060016110f19201600155612809565b9190916114da578051805183546020830151604084015160ff60a01b60a092831b166001600160a01b039094166001600160b01b0319909316929092179290921760a89190911b60ff60a81b16178455606082015160018501556080820151600285015581015160038401805460ff191691151560ff169190911781556111e49160c0810151825461ff00191690151560081b61ff001617825560e081015182546101008301516101209093015162010000600160c01b031990911691151560101b62ff0000169190911791151560181b63ff000000169190911760209190911b640100000000600160c01b0316179055565b602081015160048301906000905b606482106114a357505050604081015160005b60048110611483575050606081015160009060005b60048110611452575050606c830155608081015160009060005b60078110611424575050606d83015560a081015160009060005b600481106113f7575050606e83015560c081015160009060005b600481106113ca575050606f83015560e081015160009060005b6004811061139d578461010085856070840155015160005b6004811061138657600154600019810190811161137057602090336000526002825280604060002055601a6112ce82612809565b500160ff19906001828254161790556016606d6112ea84612809565b5001918254161790557f77e6743d8e2e96f1c711a902e1df1a77d6144b056ec2e83f86136c4267db0d99606061131f83612809565b5060680154604080518581526001600160a01b0390921686830152601690820152a16040519033817fc3e0f84839dc888c892a013d10c8f9d6dc05a21a879d0ce468ca558013e9121c600080a38152f35b634e487b7160e01b600052601160045260246000fd5b60019060208351930192607182860101550161129a565b909160206113c16001928486511515919060ff809160031b9316831b921b19161790565b93019101611282565b909160206113ee6001928486511515919060ff809160031b9316831b921b19161790565b93019101611268565b9091602061141b6001928486511515919060ff809160031b9316831b921b19161790565b9301910161124e565b909160206114496001928460ff875116919060ff809160031b9316831b921b19161790565b93019101611234565b9091602061147a60019261ffff8651169085851b60031b9161ffff809116831b921b19161790565b9301910161121a565b81516001600160a01b031660688286010155602090910190600101611205565b80518051845460209283015161ff0090151560081b1660ff90921661ffff19909116171784556001918291019301910190916111f2565b634e487b7160e01b600052600060045260246000fd5b634e487b7160e01b600052604160045260246000fd5b60209060405161151581612861565b600081526000838201528185015201610fb8565b3461028657602036600319011261028657611542612e70565b5061014061155a611554600435612809565b506128f4565b6107086040518092612980565b346102865760203660031901126102865760043560ff811681036102865733600052600460205261159f60ff60406000205416612b77565b6000805460ff60b81b191660b89290921b60ff60b81b16919091179055005b3461028657600036600319011261028657602060405160048152f35b346102865760203660031901126102865760806040516115f98161289a565b3690376106bc6106b0606e6106a9600435612809565b346102865760003660031901126102865760015467ffffffffffffffff81116114f0576040519061164660208260051b01836128d2565b80825260208201809160016000527fb10e2d527612073b26eecdfd717e6a320cf44b4afac2b0732d9fcbe2b7fa0cf6916000905b82821061179a5784866040519182916020830190602084525180915260408301919060005b8181106116ad575050500390f35b91809450929092516116c0828251612980565b602081015160009061014084015b6064831061177557505050611e20600192611767610100846116fb60406020970151611a40860190612a52565b61170e6060820151611ac0860190612a83565b6117216080820151611b40860190612aaf565b61173460a0820151611c20860190612ada565b61174760c0820151611ca0860190612ada565b61175a60e0820151611d20860190612ada565b0151611da0830190612b04565b01940191019184939261169f565b6020604060019282855160ff81511683520151151583820152019201920191906116ce565b6040516117a681612844565b6117af856128f4565b8152604051610c80810181811067ffffffffffffffff8211176114f057604052600060048701825b6064831061187557505050600192826020928360759501526117fb60688901612ecc565b604082015261180c606c8901612f0b565b606082015261181d606d8901612f42565b608082015261182e606e8901612f99565b60a082015261183f606f8901612f99565b60c082015261185060708901612f99565b60e082015261186160718901612fd6565b61010082015281520194019101909261167a565b60016020819260405161188781612861565b855460ff90818116835260081c161515838201528152019201920191906117d7565b3461028657602036600319011261028657600435600a8110156102865760011b6005810154600690910154604080516001600160a01b039093168352602083019190915290f35b3461028657606036600319011261028657611909612a42565b6044359060ff82168092036102865761090c61194d9133600052600460205261193960ff60406000205416612b77565b606d611946600435612809565b5001612d2a565b9055602060405160018152f35b346102865760803660031901126102865760046024351015610286576044356001600160a01b0381169003610286576064351515606435036102865761199e612ba9565b600160ff60036119af600435612809565b5001541615150361231e5760ff60036119c9600435612809565b50015460101c166122f3576119e660ff60036103a1600435612809565b6119f860ff60036103bc600435612809565b606435156122ed576044355b6001600160a01b0316600090815260026020526040902054611a299060043514613328565b611a4760ff611a3f6064356044356004356133bd565b161515612b77565b600160ff611a77611a59600435612809565b50606e611a706108c56064356044356004356133bd565b910161330f565b90549060031b1c161515036122c257611a9a6108c56064356044356004356133bd565b60ff611aad82606d611946600435612809565b90549060031b1c16611ac06024356139e0565b60000b8160000b0190607f198212607f8313176113705760ff600a600992611ae9600435612809565b5050611af960648685161061398e565b828282061615806122ab575b612294575b0616148061227d575b612265575b60ff611b35611b28600435612809565b5060048484169101612ebc565b505460081c1661223a5760ff611b4f611b28600435612809565b50541661200057611b669060ff1682600435613a23565b505b600160ff611b77600435612809565b505460a01c1614611bb4575b611b9490607161049f600435612809565b81549060031b9042821b91600019901b1916179055602060405160018152f35b6003611bc1600435612809565b5001805461ff00191661010017905560005b611bde600435612809565b5050600460ff82161015611ff657600160ff611c0183606e61050c600435612809565b90549060031b1c16151514611c1e57611c1990612d43565b611bd3565b611c2f90606861049f600435612809565b9054600391821b1c6001600160a01b03169190611c80908390611c53600435612809565b50018054640100000000600160c01b03191660209290921b640100000000600160c01b0316919091179055565b816004357f3d5fcd8fa3235aeb3897f25c8ea49989174981afcb01b9d03189d1056a16775b600080a3611d4f6064611cda6002611cbe600435612809565b50015460ff611cd38160005460b81c16612d77565b1690612d88565b04611cf5600080808085895af1611cef612cea565b50612d9b565b80846004357f2d2c3375da5b0a5f617bbcefa38e413a9ef5f70e50d0f9c5f6cc0adc3fa35779600080a48360005260036020526040600020611d378154613972565b90556001611d46600435612809565b50015490613246565b826000526003602052611d6b60026040600020019182546132e6565b90558160005260036020526002604060002001546018548111611ee7575b5081600052600360205260406000205491602c548311611dbe575b50611b9491505b611db6600435612dcd565b509050611b83565b60005b600a8110611e0f575b50611b9492508060005260036020527f3c6f7494b388aaf4947e5d85eb5a50078031fc2332493b751f7596351f23c1b96020604060002054604051908152a282611da4565b601a8160011b01548411611e2b57611e2690613972565b611dc1565b9260095b848111611e615750601a84611b949560011b601901846001600160601b0360a01b82541617905560011b015583611dca565b8060001981011161137057600a60001982011015611ed1576019600019820160011b01546001600160a01b031690600a811015611ed157611ecc918160011b9081601901906001600160601b0360a01b825416179055601a80600019840160011b0154910155613981565b611e2f565b634e487b7160e01b600052603260045260246000fd5b9060005b600a8110611f3a575b509050816000526003602052817f9cb8864a722bf07d0c04c1323e8c2768a9200d39440c236ee5f41d91b911ccf56020600260406000200154604051908152a282611d89565b60068160011b01548311611f5657611f5190613972565b611eeb565b60099291925b818111611f86575060011b6005810180546001600160a01b03191685179055600601558083611ef4565b8060001981011161137057600a60001982011015611ed1576005600019820160011b01546001600160a01b031690600a811015611ed157611ff1918160011b9081600501906001600160601b0360a01b825416179055600680600019840160011b0154910155613981565b611f5c565b50611b9490611dab565b600460ff61201d6120118335612809565b50838584169101612ebc565b50541611156121f25760ff61204661204e92600461203b8135612809565b509184169101612ebc565b505416612d64565b61207a60ff61206483606d611946600435612809565b90549060031b1c1691606d611946600435612809565b60ff82549160031b1b9081191617905561209a8160046102628135612809565b50805460ff191690556120dc6120b1600435612809565b506120c260ff825460a81c16613432565b815460ff60a81b191660a89190911b60ff60a81b16179055565b604051608260208201428152446040840152606f60631b6060840152605483526121058361289a565b91519091200660010b60401901617fff198112617fff8213176113705761ffff61213684606c6104db600435612809565b90549060031b1c1660010b90617fff198160010b830112617fff8260010b8401131761137057600181810b8301919060009083900b136121b25750505061217f82600435613af6565b5061ffff60005b1661219e575b50612198600435613652565b50611b68565b6121ab9082600435613a23565b508161218c565b6121eb61ffff93846121cb88606c6104db600435612809565b92909460010b01169083549060031b9161ffff809116831b921b19161790565b9055612186565b600460ff6122036120118335612809565b50541611156122125750611b68565b61222a60ff61204661223393600461203b8135612809565b82600435613c93565b5081612198565b60405162461bcd60e51b815260206004820152600360248201526245313560e81b6044820152606490fd5b61227860ff600a8382160616151561398e565b611b18565b506122896024356139c0565b600360243514611b13565b6122a68484848882160616141561398e565b611b0a565b506122b76024356139c0565b600160243514611b05565b60405162461bcd60e51b815260206004820152600360248201526245313360e81b6044820152606490fd5b33611a04565b60405162461bcd60e51b815260206004820152600360248201526208a62760eb1b6044820152606490fd5b60405162461bcd60e51b815260206004820152600260248201526108a760f31b6044820152606490fd5b346102865761235636612a0f565b61235e612ba9565b80156125f757815b6001600160a01b0316600090815260026020526040902054612389908414613328565b6123976108c58284866133bd565b9260ff926123a8846108d88761304c565b6123b182612809565b5092846124086123c588607080980161330f565b9890546123fc846123da848b61050c8c612809565b91909360039d8e1b1c16159083549060ff809160031b9316831b921b19161790565b90558661050c87612809565b905490881b1c16612577575b50508261242082612809565b505460a01c169260009260005b61243684612809565b5050600483821610156124b157612451818361050c87612809565b9054600191891b1c841615158114908161248f575b5061247a575b61247590612d43565b61242d565b9361248761247591612d43565b94905061246c565b9050836124a183606e61050c89612809565b9054908a1b1c1615151488612466565b83878685168814858161255d575b501561251757816020916124f37f60f26477008aa4c656f8e1e30cdc74fa0be1c07ff15eead918e9614cdca8d16694612809565b5001805462ff0000191662010000179055604051908152a15b602060405160018152f35b816020916125457fd89f8445e94a8e31afc10a82c48d2518eff9f4efc746fdf7b029c28e3fc5463a94612809565b5001805462ff000019169055604051908152a161250c565b90508161256984612809565b50015460101c1615836124bf565b156125cc576125c27f2b02cf7e1a7798ae84c4e889779d06feaed067d1a58cdbc014f6a98fb619f2bb915b604080518581526001600160a01b03909216602083015290918291820190565b0390a18480612414565b507f2b02cf7e1a7798ae84c4e889779d06feaed067d1a58cdbc014f6a98fb619f2bb6125c2336125a2565b33612366565b346102865760203660031901126102865760206001610aea600435612809565b34610286576020366003190112610286576004356001548110156102865761155a61155461014092612809565b3461028657600036600319011261028657612663613009565b506040516126708161287d565b60196000825b600a821061268c57604051806106bc8682612795565b60026001916040519061269e82612861565b838060a01b038654168252838601549160209283820152815201930191019091612676565b3461028657600036600319011261028657602060ff60005460b81c16604051908152f35b346102865760203660031901126102865760806040516127068161289a565b3690376106bc6106b060706106a9600435612809565b3461028657600036600319011261028657612735613009565b506040516127428161287d565b60056000825b600a821061275e57604051806106bc8682612795565b60026001916040519061277082612861565b838060a01b038654168252838601549160209283820152815201930191019091612748565b610280810192916000915b600a83106127ad57505050565b815180516001600160a01b031682526020908101518183015260019390930192909101906040016127a0565b6080810192916000915b600483106127f057505050565b60019082511515815260208091019201920191906127e3565b600154811015611ed1576075906001600052027fb10e2d527612073b26eecdfd717e6a320cf44b4afac2b0732d9fcbe2b7fa0cf60190600090565b610120810190811067ffffffffffffffff8211176114f057604052565b6040810190811067ffffffffffffffff8211176114f057604052565b610140810190811067ffffffffffffffff8211176114f057604052565b6080810190811067ffffffffffffffff8211176114f057604052565b60e0810190811067ffffffffffffffff8211176114f057604052565b90601f8019910116810190811067ffffffffffffffff8211176114f057604052565b906040516129018161287d565b61012081938054600360018060a01b0392838316865260ff8381809560a01c16602089015260a81c1660408701526001810154606087015260028101546080870152015490808216151560a0860152808260081c16151560c0860152808260101c16151560e08601528160181c16151561010085015260201c16910152565b60018060a01b0380825116835260ff602083015116602084015260ff6040830151166040840152606082015160608401526080820151608084015260a0820151151560a084015260c0820151151560c084015260e0820151151560e0840152610100808301511515908401526101208092015116910152565b600435906001600160a01b038216820361028657565b606090600319011261028657600435906024356001600160a01b0381168103610286579060443580151581036102865790565b6024359060ff8216820361028657565b6000915b60048310612a6357505050565b81516001600160a01b031681526001929092019160209182019101612a56565b6000915b60048310612a9457505050565b60019061ffff83511681526020809101920192019190612a87565b6000915b60078310612ac057505050565b60019060ff83511681526020809101920192019190612ab3565b6000915b60048310612aeb57505050565b6001908251151581526020809101920192019190612ade565b6000915b60048310612b1557505050565b600190825181526020809101920192019190612b08565b34610286576000366003190112610286576020604051600a8152f35b60005460081c6001600160a01b03163303612b5f57565b60405163118cdaa760e01b8152336004820152602490fd5b15612b7e57565b60405162461bcd60e51b815260206004820152600360248201526222989960e91b6044820152606490fd5b60ff60005416612bb557565b60405163d93c066560e01b8152600490fd5b60005b612bd382612809565b505060ff9060048282161015612c965780612c3692612bf185612809565b509085612c02846068809501612d54565b91909260018060a01b03809454600394851b1c1660005260026020528160406000205414612c3b575b505050505050612d43565b612bca565b6064612c7f60009695879695612c5a612c8b9a899861049f8a99612809565b9054911b1c16926001612c6c8d612809565b50015490611cd381875460b81c16612d77565b04905af1611cef612cea565b803880808681612c2b565b5050612ca181612dcd565b506003612cad82612809565b5001805463ff000000191663010000001790557fc6cdad3b3d7abda636116a8e94d054f37e923a63418e338faefe22d5cd582ab2600080a2600190565b3d15612d25573d9067ffffffffffffffff82116114f05760405191612d19601f8201601f1916602001846128d2565b82523d6000602084013e565b606090565b9190916007831015611ed157601f908360051c01921690565b60ff1660ff81146113705760010190565b6004821015611ed1570190600090565b60ff6000199116019060ff821161137057565b60ff166064039060ff821161137057565b8181029291811591840414171561137057565b15612da257565b60405162461bcd60e51b815260206004820152600360248201526222989b60e91b6044820152606490fd5b60005b612dd982612809565b5050600460ff82161015612e695780612e3c91612df584612809565b50612e04826068809301612d54565b60018060a01b03809254600392831b1c1660005260029160209183835260409489866000205414612e41575b50505050505050612d43565b612dd0565b600096612e519161049f8c612809565b9054911b1c1684525281205580388080808080612e30565b5050600190565b60405190612e7d8261287d565b816101206000918281528260208201528260408201528260608201528260808201528260a08201528260c08201528260e0820152826101008201520152565b6064821015611ed1570190600090565b60405191906000835b60048210612eeb57505050612ee98261289a565b565b82546001600160a01b031681526001928301929190910190602001612ed5565b90604051915461ffff908181168452818160101c166020850152818160201c16604085015260301c166060830152612ee98261289a565b90604051915460ff908181168452818160081c166020850152818160101c166040850152818160181c166060850152818160201c166080850152818160281c1660a085015260301c1660c0830152612ee9826128b6565b9060ff604051925481811615158452818160081c1615156020850152818160101c161515604085015260181c1615156060830152612ee98261289a565b60405191906000835b60048210612ff357505050612ee98261289a565b6001602081928554815201930191019091612fdf565b6040908151916130188361287d565b600083815b610140811061302c5750505050565b602090845161303a81612861565b8481528483820152818401520161301d565b60ff60019116019060ff821161137057565b6130f0917f77e6743d8e2e96f1c711a902e1df1a77d6144b056ec2e83f86136c4267db0d9991600060ff83168061312a57505061312460169485935b6130a38161304c565b60ff6130b487600461026289612809565b50911660ff198254161790556109246130d282606d61194688612809565b60ff88939293169083549060ff809160031b9316831b921b19161790565b90546040805194855260039290921b1c6001600160a01b0316602084015260ff909316928201929092529081906060820190565b0390a190565b60018103613141575050613124604d94859361309a565b6002810361318e57505082606061315d84606861049f86612809565b9054906040519185835260018060a01b039160031b1c166020820152601b6040820152a1613124601b94859361309a565b6003036131d857508260606131a884606861049f86612809565b60018060a01b0391549060031b1c1660405190848252602082015260486040820152a1613124604894859361309a565b6131249094859361309a565b156131eb57565b60405162461bcd60e51b8152602060048201526002602482015261229960f11b6044820152606490fd5b1561321c57565b60405162461bcd60e51b8152602060048201526002602482015261453360f01b6044820152606490fd5b9190820391821161137057565b1561325a57565b60405162461bcd60e51b8152602060048201526002602482015261453560f01b6044820152606490fd5b1561328b57565b60405162461bcd60e51b8152602060048201526002602482015261229b60f11b6044820152606490fd5b156132bc57565b60405162461bcd60e51b8152602060048201526002602482015261453760f01b6044820152606490fd5b9190820180921161137057565b9190916004831015611ed157601e908360041c019260011b1690565b9190916004831015611ed157601f908360051c01921690565b1561332f57565b60405162461bcd60e51b815260206004820152600360248201526245313160e81b6044820152606490fd5b60005b61336682612809565b5050600460ff821610156133b65761338381606861049f85612809565b905460039190911b1c6001600160a01b031633146133a9576133a490612d43565b61335d565b6133b3915061304c565b90565b5050600090565b9160005b6133ca84612809565b5050600460ff82161015613429576133e781606861049f87612809565b905483156134225784905b60018060a01b038092169260031b1c16146134155761341090612d43565b6133c1565b9150506133b3915061304c565b33906133f2565b50505050600090565b60ff168015611370576000190190565b61344e6108c58261335a565b60ff90818116156135ce576135b18291607061050c8661349f613493600161347760649b612809565b500154600080809c819482948d611cd381865460b81c16612d77565b04335af1611cef612cea565b6134bb6134ab82612809565b506103e588825460a01c16613432565b60016134c682612809565b5001546134e160026134d784612809565b5001918254613246565b90556135126134ef82612809565b50600461350187606d61194687612809565b99905460039a8b1b1c169101612ebc565b50805460ff1916905561352a84606861049f84612809565b81546001600160a01b0391891b9190911b1916905561354e84606c6104db84612809565b61ffff825491891b1b1916905561356a84606d61194684612809565b88825491891b1b9081191617905561358784606e61050c84612809565b88825491891b1b191690556135a184606f61050c84612809565b88825491891b1b19169055612809565b81939154921b1b1916905533815260026020526040812055600190565b50906135e26135f392600361073684612809565b6135ee61078382612809565b612bc7565b50600190565b6000805b61360683612809565b5060ff80915460a01c1681831610156136495761362882606f61050c87612809565b90549060031b1c16156136435761363e90612d43565b6135fd565b50905090565b50505050600190565b90600060045b61366184612809565b505060ff600781831610156136b1578061368083606d61194689612809565b90549060031b1c160361369c575b61369790612d43565b613658565b906136a961369791612d43565b91905061368e565b505091600090815b6136c282612809565b505060ff60048183161015613716576001906136e383606e61050c87612809565b90549060031b1c16151514613701575b6136fc90612d43565b6136b9565b9161370e6136fc91612d43565b9290506136f3565b50509092919260ff8080941660000b911660000b0390607f1990607f831382841217611370576000199260000b8301828112607f8213176113705760008082810b136000146138a957505b9360045b61376e83612809565b50506007828216101561389e5761378483612809565b50828061379584606d809501612d2a565b90549060031b1c16146137b2575b506137ad90612d43565b613765565b909560000b906000821315613892576060837f7fa8af5a083dce9776f1c477855a76d7d16c984c6b39ac52003310cd5e71c35e926138456138298b6137f98533168b6138d3565b938a8661381487600461026261380e8861304c565b95612809565b50911660ff198254161790556119468b612809565b93909216809383549060ff809160031b9316831b921b19161790565b905561386361385387612809565b506120c287825460a81c16612d43565b61386c8961304c565b90604086815193898552166020840152820152a1838114611370578401946137ad6137a3565b50505050505050600190565b505050505050600190565b9050613761565b6001600160a01b0390811660038181029092169291818404149015171561137057565b60ff61391360405160208101904282524460408201526001600160601b03198660601b166060820152605481526139098161289a565b5190206064900690565b1660ff61392582600461026286612809565b5054161580159061394f575b1561394957506139436133b3926138b0565b906138d3565b91505090565b5061396d61396282600461026286612809565b505460081c60ff1690565b613931565b60001981146113705760010190565b8015611370576000190190565b1561399557565b60405162461bcd60e51b8152602060048201526003602482015262114c4d60ea1b6044820152606490fd5b600411156139ca57565b634e487b7160e01b600052602160045260246000fd5b60048110156139ca57600281036139f75750600a90565b80613a03575060091990565b60018103613a12575060001990565b600303613a1e57600190565b600090565b613ac67f689254b753ca60742e68c59d0d98cc6d231f56da7de5fa9040dadc96ab3b0c5092613a77613a5484612809565b50600460ff613a6885606d6119468a612809565b90549060031b1c169101612ebc565b5060ff1990818154169055613a8b8261304c565b9060ff613a9d88600461026289612809565b50921690825416179055613ab96130d282606d61194687612809565b9055606861049f84612809565b90546040805193845260039290921b1c6001600160a01b0316602083015260ff8416908201528060608101613124565b613bfd613b0883606e61050c85612809565b90805460ff600393841b1b19169055613b45613b2384612809565b50600460ff613b3788606d6119468a612809565b905490861b1c169101612ebc565b50805460ff19169055613b5d84606d61194686612809565b60ff825491841b1b90811916179055613b7b84606c6104db86612809565b61ffff825491841b1b19169055613ba5613b9484612809565b506103e560ff825460a01c16613432565b7f17bbddf7564415da2a525f1a441df1385857f5438a6c5836a1a5d71fa1c1bb8c613bd585606861049f87612809565b90546040805187815292851b9190911c6001600160a01b039081166020840152948291820190565b0390a1613c7e84606861049f85613c18848461049f8b612809565b905490871b1c169660009788528560205260016040892001613c3a8154613972565b90556001613c4782612809565b50015487613c59868661049f86612809565b905490891b1c16895286602052613c778760408b20019182546132e6565b9055612809565b9054911b1c1681526002602052604081205590565b9091613ca481606d61194685612809565b905491613cb2818686613e07565b60ff808716911614600014613d7057839285927f2840e066f6437c6fb9c7a3af38071a68da790571d095d010b1120d231f17c9eb85613d26613d5e61049f87613d0060ff99613d6c9d613af6565b50613d108a606861049f88612809565b949091606860018060a01b039485945498612809565b90549060031b1c169060405194859460031b1c168a849160409194936060840195845260018060a01b03809216602085015216910152565b0390a160031b1c1691613a23565b5090565b9391505081613da0827f2840e066f6437c6fb9c7a3af38071a68da790571d095d010b1120d231f17c9eb94613af6565b50613124613dcf613db686606861049f86612809565b939060018060a01b039283915496606861049f85612809565b90549060031b1c169160405195869560031b1c1690849160409194936060840195845260018060a01b03809216602085015216910152565b919091613e1983606c6104db84612809565b90613e3784606c6104db61ffff80968196549060031b1c1696612809565b90549060031b1c16820181811161137057168015613ef357670de0b6b3a7640000808302928084048214811517156113705768056bc75e2d631000000292808404606414901517156113705780820291820403611370578015613edd5760646040516020810190428252446040820152600b60631b606082015260548152613ebe8161289a565b519020069160018301809311611370570410613ed8575090565b905090565b634e487b7160e01b600052601260045260246000fd5b60405162461bcd60e51b815260206004820152602960248201527f6469766973696f6e206279207a65726f2077696c6c20726573756c7420696e2060448201526834b73334b734ba3c9760b91b6064820152608490fdfea2646970667358221220c7194da81648f50f92e2fd1fc491fff911d58236e8cf798a02fb97949fd8b7ac64736f6c63430008140033",
        "linkReferences": {}
    },
    "methodIdentifiers": {
        "MAP_HEIGHT()": "59b78681",
        "MAP_WIDTH()": "3dbf0b55",
        "MAX_PLAYERS()": "4411b3eb",
        "TILE_COUNT()": "5941905f",
        "adminBootAll(uint256)": "e9355718",
        "adminSetPlayerGamePosition(uint256,uint8,uint8)": "2b782981",
        "adminSetPlayerInGame(address,uint256)": "571711dc",
        "adminSpawnPlayer(uint256,uint8)": "93efecbb",
        "adminTransferFunds(uint256,address)": "54c0fc12",
        "checkAdmin(address)": "9026dee8",
        "createGame(uint256)": "48e837b9",
        "games(uint256)": "117a5b90",
        "getGameInfo(uint256)": "47e1d550",
        "getGamesArray()": "33e84b10",
        "getPiecePositions(uint256)": "7282947f",
        "getPlayerFTs(uint256)": "7dc93872",
        "getPlayerIds(uint256)": "e63a7d91",
        "getPlayerLastMoveTime(uint256)": "b5cbde68",
        "getPlayerLives(uint256)": "38a8f681",
        "getPlayerPauseVote(uint256)": "026b875a",
        "getPlayerReadiness(uint256)": "e8c2f734",
        "getRoomBoard(uint256,uint8)": "fd6736dd",
        "getRoomMinStake(uint256)": "197614bb",
        "getRoomPlayersCount(uint256)": "ba425cce",
        "getRoomTotalStaked(uint256)": "9bf0e1da",
        "getTop10RanksByEarnings()": "00027277",
        "getTop10RanksByWinnings()": "0ffb0e62",
        "getTotalGames()": "5bd4349b",
        "houseFee()": "0ed469b8",
        "joinGame(uint256)": "efaa55a0",
        "leaveGameB4start(uint256)": "7d08163e",
        "movePlayer(uint256,uint8,address,bool)": "28547f43",
        "owner()": "8da5cb5b",
        "paused()": "5c975abb",
        "playerInGame(address)": "ec6a7c9f",
        "playerReadyUp(uint256,address,bool)": "da078641",
        "playerTogglePause(uint256,address,bool)": "235a3d2c",
        "renounceOwnership()": "715018a6",
        "setHouseFee(uint8)": "46cbb38f",
        "setStartingFT(uint16)": "989b8200",
        "startGame(uint256)": "e5ed1d59",
        "starting_FT()": "af3e9420",
        "togglePause()": "c4ae3168",
        "toggleSetAdmin(address)": "51e37795",
        "top10Earned(uint256)": "2d72b8bc",
        "top10Wins(uint256)": "535b6d89",
        "transferOwnership(address)": "f2fde38b",
        "userStats(address)": "8a65d874"
    },
    "id": 3
}