{"abi":[{"type":"constructor","inputs":[],"stateMutability":"nonpayable"},{"type":"function","name":"MAP_HEIGHT","inputs":[],"outputs":[{"name":"","type":"uint8","internalType":"uint8"}],"stateMutability":"view"},{"type":"function","name":"MAP_WIDTH","inputs":[],"outputs":[{"name":"","type":"uint8","internalType":"uint8"}],"stateMutability":"view"},{"type":"function","name":"MAX_PLAYERS","inputs":[],"outputs":[{"name":"","type":"uint8","internalType":"uint8"}],"stateMutability":"view"},{"type":"function","name":"TILE_COUNT","inputs":[],"outputs":[{"name":"","type":"uint8","internalType":"uint8"}],"stateMutability":"view"},{"type":"function","name":"UPGRADE_INTERFACE_VERSION","inputs":[],"outputs":[{"name":"","type":"string","internalType":"string"}],"stateMutability":"view"},{"type":"function","name":"adminBootAll","inputs":[{"name":"_roomId","type":"uint256","internalType":"uint256"}],"outputs":[{"name":"","type":"bool","internalType":"bool"}],"stateMutability":"nonpayable"},{"type":"function","name":"adminSetPlayerGamePosition","inputs":[{"name":"_roomId","type":"uint256","internalType":"uint256"},{"name":"_playerIndex","type":"uint8","internalType":"uint8"},{"name":"_position","type":"uint8","internalType":"uint8"}],"outputs":[{"name":"","type":"bool","internalType":"bool"}],"stateMutability":"nonpayable"},{"type":"function","name":"adminSetPlayerInGame","inputs":[{"name":"_player","type":"address","internalType":"address"},{"name":"_roomId","type":"uint256","internalType":"uint256"}],"outputs":[{"name":"","type":"bool","internalType":"bool"}],"stateMutability":"nonpayable"},{"type":"function","name":"adminSpawnPlayer","inputs":[{"name":"_roomId","type":"uint256","internalType":"uint256"},{"name":"_playerIndex","type":"uint8","internalType":"uint8"}],"outputs":[{"name":"","type":"bool","internalType":"bool"}],"stateMutability":"nonpayable"},{"type":"function","name":"adminTransferFunds","inputs":[{"name":"_amount","type":"uint256","internalType":"uint256"},{"name":"_to","type":"address","internalType":"address"}],"outputs":[{"name":"","type":"bool","internalType":"bool"}],"stateMutability":"nonpayable"},{"type":"function","name":"admins","inputs":[{"name":"","type":"address","internalType":"address"}],"outputs":[{"name":"","type":"bool","internalType":"bool"}],"stateMutability":"view"},{"type":"function","name":"createGame","inputs":[{"name":"_minStake","type":"uint256","internalType":"uint256"}],"outputs":[{"name":"gameId","type":"uint256","internalType":"uint256"}],"stateMutability":"payable"},{"type":"function","name":"games","inputs":[{"name":"","type":"uint256","internalType":"uint256"}],"outputs":[{"name":"info","type":"tuple","internalType":"struct RRoyale.GameInfo","components":[{"name":"gameCreator","type":"address","internalType":"address"},{"name":"playersCount","type":"uint8","internalType":"uint8"},{"name":"itemCount","type":"uint8","internalType":"uint8"},{"name":"minStake","type":"uint256","internalType":"uint256"},{"name":"totalStaked","type":"uint256","internalType":"uint256"},{"name":"hasStarted","type":"bool","internalType":"bool"},{"name":"hasEnded","type":"bool","internalType":"bool"},{"name":"gamePaused","type":"bool","internalType":"bool"},{"name":"gameAbandoned","type":"bool","internalType":"bool"},{"name":"winner","type":"address","internalType":"address"}]}],"stateMutability":"view"},{"type":"function","name":"getGameInfo","inputs":[{"name":"_roomId","type":"uint256","internalType":"uint256"}],"outputs":[{"name":"","type":"tuple","internalType":"struct RRoyale.GameInfo","components":[{"name":"gameCreator","type":"address","internalType":"address"},{"name":"playersCount","type":"uint8","internalType":"uint8"},{"name":"itemCount","type":"uint8","internalType":"uint8"},{"name":"minStake","type":"uint256","internalType":"uint256"},{"name":"totalStaked","type":"uint256","internalType":"uint256"},{"name":"hasStarted","type":"bool","internalType":"bool"},{"name":"hasEnded","type":"bool","internalType":"bool"},{"name":"gamePaused","type":"bool","internalType":"bool"},{"name":"gameAbandoned","type":"bool","internalType":"bool"},{"name":"winner","type":"address","internalType":"address"}]}],"stateMutability":"view"},{"type":"function","name":"getGamesArray","inputs":[],"outputs":[{"name":"","type":"tuple[]","internalType":"struct RRoyale.GameRoom[]","components":[{"name":"info","type":"tuple","internalType":"struct RRoyale.GameInfo","components":[{"name":"gameCreator","type":"address","internalType":"address"},{"name":"playersCount","type":"uint8","internalType":"uint8"},{"name":"itemCount","type":"uint8","internalType":"uint8"},{"name":"minStake","type":"uint256","internalType":"uint256"},{"name":"totalStaked","type":"uint256","internalType":"uint256"},{"name":"hasStarted","type":"bool","internalType":"bool"},{"name":"hasEnded","type":"bool","internalType":"bool"},{"name":"gamePaused","type":"bool","internalType":"bool"},{"name":"gameAbandoned","type":"bool","internalType":"bool"},{"name":"winner","type":"address","internalType":"address"}]},{"name":"board","type":"tuple[100]","internalType":"struct RRoyale.Tile[100]","components":[{"name":"occupantId","type":"uint8","internalType":"uint8"},{"name":"isWall","type":"bool","internalType":"bool"}]},{"name":"playerIds","type":"address[4]","internalType":"address[4]"},{"name":"playerFTs","type":"uint16[4]","internalType":"uint16[4]"},{"name":"positions","type":"uint8[7]","internalType":"uint8[7]"},{"name":"playerAlive","type":"bool[4]","internalType":"bool[4]"},{"name":"playerReady","type":"bool[4]","internalType":"bool[4]"},{"name":"playerPauseVote","type":"bool[4]","internalType":"bool[4]"},{"name":"playerLastMoveTime","type":"uint256[4]","internalType":"uint256[4]"}]}],"stateMutability":"view"},{"type":"function","name":"getPiecePositions","inputs":[{"name":"_roomId","type":"uint256","internalType":"uint256"}],"outputs":[{"name":"","type":"uint8[7]","internalType":"uint8[7]"}],"stateMutability":"view"},{"type":"function","name":"getPlayerFTs","inputs":[{"name":"_roomId","type":"uint256","internalType":"uint256"}],"outputs":[{"name":"","type":"uint16[4]","internalType":"uint16[4]"}],"stateMutability":"view"},{"type":"function","name":"getPlayerIds","inputs":[{"name":"_roomId","type":"uint256","internalType":"uint256"}],"outputs":[{"name":"","type":"address[4]","internalType":"address[4]"}],"stateMutability":"view"},{"type":"function","name":"getPlayerLastMoveTime","inputs":[{"name":"_roomId","type":"uint256","internalType":"uint256"}],"outputs":[{"name":"","type":"uint256[4]","internalType":"uint256[4]"}],"stateMutability":"view"},{"type":"function","name":"getPlayerLives","inputs":[{"name":"_roomId","type":"uint256","internalType":"uint256"}],"outputs":[{"name":"","type":"bool[4]","internalType":"bool[4]"}],"stateMutability":"view"},{"type":"function","name":"getPlayerPauseVote","inputs":[{"name":"_roomId","type":"uint256","internalType":"uint256"}],"outputs":[{"name":"","type":"bool[4]","internalType":"bool[4]"}],"stateMutability":"view"},{"type":"function","name":"getPlayerReadiness","inputs":[{"name":"_roomId","type":"uint256","internalType":"uint256"}],"outputs":[{"name":"","type":"bool[4]","internalType":"bool[4]"}],"stateMutability":"view"},{"type":"function","name":"getRoomBoard","inputs":[{"name":"_roomId","type":"uint256","internalType":"uint256"},{"name":"_tilePos","type":"uint8","internalType":"uint8"}],"outputs":[{"name":"","type":"uint8","internalType":"uint8"},{"name":"","type":"bool","internalType":"bool"}],"stateMutability":"view"},{"type":"function","name":"getRoomMinStake","inputs":[{"name":"_roomId","type":"uint256","internalType":"uint256"}],"outputs":[{"name":"","type":"uint256","internalType":"uint256"}],"stateMutability":"view"},{"type":"function","name":"getRoomPlayersCount","inputs":[{"name":"_roomId","type":"uint256","internalType":"uint256"}],"outputs":[{"name":"","type":"uint8","internalType":"uint8"}],"stateMutability":"view"},{"type":"function","name":"getRoomTotalStaked","inputs":[{"name":"_roomId","type":"uint256","internalType":"uint256"}],"outputs":[{"name":"","type":"uint256","internalType":"uint256"}],"stateMutability":"view"},{"type":"function","name":"getTop10RanksByEarnings","inputs":[],"outputs":[{"name":"","type":"tuple[10]","internalType":"struct RRoyale.RankingRow[10]","components":[{"name":"player","type":"address","internalType":"address"},{"name":"amount","type":"uint256","internalType":"uint256"}]}],"stateMutability":"view"},{"type":"function","name":"getTop10RanksByWinnings","inputs":[],"outputs":[{"name":"","type":"tuple[10]","internalType":"struct RRoyale.RankingRow[10]","components":[{"name":"player","type":"address","internalType":"address"},{"name":"amount","type":"uint256","internalType":"uint256"}]}],"stateMutability":"view"},{"type":"function","name":"getTotalGames","inputs":[],"outputs":[{"name":"","type":"uint256","internalType":"uint256"}],"stateMutability":"view"},{"type":"function","name":"houseFee","inputs":[],"outputs":[{"name":"","type":"uint8","internalType":"uint8"}],"stateMutability":"view"},{"type":"function","name":"initialize","inputs":[],"outputs":[],"stateMutability":"nonpayable"},{"type":"function","name":"joinGame","inputs":[{"name":"_roomId","type":"uint256","internalType":"uint256"}],"outputs":[{"name":"","type":"address","internalType":"address"}],"stateMutability":"payable"},{"type":"function","name":"leaveGameB4start","inputs":[{"name":"_roomId","type":"uint256","internalType":"uint256"}],"outputs":[{"name":"","type":"bool","internalType":"bool"}],"stateMutability":"nonpayable"},{"type":"function","name":"movePlayer","inputs":[{"name":"_roomId","type":"uint256","internalType":"uint256"},{"name":"_dir","type":"uint8","internalType":"enum RRoyale.Dir"},{"name":"_player","type":"address","internalType":"address"},{"name":"_useBurner","type":"bool","internalType":"bool"}],"outputs":[{"name":"","type":"bool","internalType":"bool"}],"stateMutability":"nonpayable"},{"type":"function","name":"owner","inputs":[],"outputs":[{"name":"","type":"address","internalType":"address"}],"stateMutability":"view"},{"type":"function","name":"paused","inputs":[],"outputs":[{"name":"","type":"bool","internalType":"bool"}],"stateMutability":"view"},{"type":"function","name":"playerInGame","inputs":[{"name":"","type":"address","internalType":"address"}],"outputs":[{"name":"","type":"uint256","internalType":"uint256"}],"stateMutability":"view"},{"type":"function","name":"playerReadyUp","inputs":[{"name":"_roomId","type":"uint256","internalType":"uint256"},{"name":"_player","type":"address","internalType":"address"},{"name":"_useBurner","type":"bool","internalType":"bool"}],"outputs":[{"name":"","type":"bool","internalType":"bool"}],"stateMutability":"nonpayable"},{"type":"function","name":"playerTogglePause","inputs":[{"name":"_roomId","type":"uint256","internalType":"uint256"},{"name":"_player","type":"address","internalType":"address"},{"name":"_useBurner","type":"bool","internalType":"bool"}],"outputs":[{"name":"","type":"bool","internalType":"bool"}],"stateMutability":"nonpayable"},{"type":"function","name":"proxiableUUID","inputs":[],"outputs":[{"name":"","type":"bytes32","internalType":"bytes32"}],"stateMutability":"view"},{"type":"function","name":"renounceOwnership","inputs":[],"outputs":[],"stateMutability":"nonpayable"},{"type":"function","name":"setHouseFee","inputs":[{"name":"_houseFee","type":"uint8","internalType":"uint8"}],"outputs":[],"stateMutability":"nonpayable"},{"type":"function","name":"setStartingFT","inputs":[{"name":"_startingFT","type":"uint16","internalType":"uint16"}],"outputs":[],"stateMutability":"nonpayable"},{"type":"function","name":"startGame","inputs":[{"name":"_roomId","type":"uint256","internalType":"uint256"}],"outputs":[{"name":"","type":"bool","internalType":"bool"}],"stateMutability":"nonpayable"},{"type":"function","name":"starting_FT","inputs":[],"outputs":[{"name":"","type":"uint16","internalType":"uint16"}],"stateMutability":"view"},{"type":"function","name":"togglePause","inputs":[],"outputs":[],"stateMutability":"nonpayable"},{"type":"function","name":"top10Earned","inputs":[{"name":"","type":"uint256","internalType":"uint256"}],"outputs":[{"name":"player","type":"address","internalType":"address"},{"name":"amount","type":"uint256","internalType":"uint256"}],"stateMutability":"view"},{"type":"function","name":"top10Wins","inputs":[{"name":"","type":"uint256","internalType":"uint256"}],"outputs":[{"name":"player","type":"address","internalType":"address"},{"name":"amount","type":"uint256","internalType":"uint256"}],"stateMutability":"view"},{"type":"function","name":"transferOwnership","inputs":[{"name":"newOwner","type":"address","internalType":"address"}],"outputs":[],"stateMutability":"nonpayable"},{"type":"function","name":"upgradeToAndCall","inputs":[{"name":"newImplementation","type":"address","internalType":"address"},{"name":"data","type":"bytes","internalType":"bytes"}],"outputs":[],"stateMutability":"payable"},{"type":"function","name":"userStats","inputs":[{"name":"","type":"address","internalType":"address"}],"outputs":[{"name":"totalWins","type":"uint256","internalType":"uint256"},{"name":"totalLosses","type":"uint256","internalType":"uint256"},{"name":"totalGasEarned","type":"uint256","internalType":"uint256"},{"name":"totalGasLost","type":"uint256","internalType":"uint256"}],"stateMutability":"view"},{"type":"event","name":"EarningsTopped","inputs":[{"name":"_player","type":"address","indexed":true,"internalType":"address"},{"name":"_earnings","type":"uint256","indexed":false,"internalType":"uint256"}],"anonymous":false},{"type":"event","name":"GameAbandoned","inputs":[{"name":"_roomId","type":"uint256","indexed":true,"internalType":"uint256"}],"anonymous":false},{"type":"event","name":"GameCreated","inputs":[{"name":"_roomId","type":"uint256","indexed":true,"internalType":"uint256"},{"name":"_creator","type":"address","indexed":true,"internalType":"address"}],"anonymous":false},{"type":"event","name":"GameEnded","inputs":[{"name":"_roomId","type":"uint256","indexed":true,"internalType":"uint256"},{"name":"_winner","type":"address","indexed":true,"internalType":"address"}],"anonymous":false},{"type":"event","name":"GamePaused","inputs":[{"name":"_roomId","type":"uint256","indexed":false,"internalType":"uint256"}],"anonymous":false},{"type":"event","name":"GameStarted","inputs":[{"name":"_roomId","type":"uint256","indexed":true,"internalType":"uint256"}],"anonymous":false},{"type":"event","name":"GameUnPaused","inputs":[{"name":"_roomId","type":"uint256","indexed":false,"internalType":"uint256"}],"anonymous":false},{"type":"event","name":"Initialized","inputs":[{"name":"version","type":"uint64","indexed":false,"internalType":"uint64"}],"anonymous":false},{"type":"event","name":"ItemSpawned","inputs":[{"name":"_roomId","type":"uint256","indexed":false,"internalType":"uint256"},{"name":"_itemId","type":"uint8","indexed":false,"internalType":"uint8"},{"name":"_tile","type":"uint8","indexed":false,"internalType":"uint8"}],"anonymous":false},{"type":"event","name":"OwnershipTransferred","inputs":[{"name":"previousOwner","type":"address","indexed":true,"internalType":"address"},{"name":"newOwner","type":"address","indexed":true,"internalType":"address"}],"anonymous":false},{"type":"event","name":"Paused","inputs":[{"name":"account","type":"address","indexed":false,"internalType":"address"}],"anonymous":false},{"type":"event","name":"PlayerJoined","inputs":[{"name":"_roomId","type":"uint256","indexed":false,"internalType":"uint256"},{"name":"_player","type":"address","indexed":false,"internalType":"address"}],"anonymous":false},{"type":"event","name":"PlayerKilled","inputs":[{"name":"_roomId","type":"uint256","indexed":false,"internalType":"uint256"},{"name":"_player","type":"address","indexed":false,"internalType":"address"}],"anonymous":false},{"type":"event","name":"PlayerKilledPlayer","inputs":[{"name":"_roomId","type":"uint256","indexed":false,"internalType":"uint256"},{"name":"_aggressor","type":"address","indexed":false,"internalType":"address"},{"name":"_victim","type":"address","indexed":false,"internalType":"address"}],"anonymous":false},{"type":"event","name":"PlayerMoved","inputs":[{"name":"_roomId","type":"uint256","indexed":false,"internalType":"uint256"},{"name":"_player","type":"address","indexed":false,"internalType":"address"},{"name":"_destinationTile","type":"uint8","indexed":false,"internalType":"uint8"}],"anonymous":false},{"type":"event","name":"PlayerPaused","inputs":[{"name":"_roomId","type":"uint256","indexed":false,"internalType":"uint256"},{"name":"_player","type":"address","indexed":false,"internalType":"address"}],"anonymous":false},{"type":"event","name":"PlayerSpawned","inputs":[{"name":"_roomId","type":"uint256","indexed":false,"internalType":"uint256"},{"name":"_player","type":"address","indexed":false,"internalType":"address"},{"name":"_tile","type":"uint8","indexed":false,"internalType":"uint8"}],"anonymous":false},{"type":"event","name":"PlayerToggleReady","inputs":[{"name":"_roomId","type":"uint256","indexed":false,"internalType":"uint256"},{"name":"_player","type":"address","indexed":false,"internalType":"address"}],"anonymous":false},{"type":"event","name":"PlayerUnPaused","inputs":[{"name":"_roomId","type":"uint256","indexed":false,"internalType":"uint256"},{"name":"_player","type":"address","indexed":false,"internalType":"address"}],"anonymous":false},{"type":"event","name":"RewardSent","inputs":[{"name":"_roomId","type":"uint256","indexed":true,"internalType":"uint256"},{"name":"_winner","type":"address","indexed":true,"internalType":"address"},{"name":"_reward","type":"uint256","indexed":true,"internalType":"uint256"}],"anonymous":false},{"type":"event","name":"Unpaused","inputs":[{"name":"account","type":"address","indexed":false,"internalType":"address"}],"anonymous":false},{"type":"event","name":"Upgraded","inputs":[{"name":"implementation","type":"address","indexed":true,"internalType":"address"}],"anonymous":false},{"type":"event","name":"WinningsTopped","inputs":[{"name":"_player","type":"address","indexed":true,"internalType":"address"},{"name":"_winnings","type":"uint256","indexed":false,"internalType":"uint256"}],"anonymous":false},{"type":"error","name":"AddressEmptyCode","inputs":[{"name":"target","type":"address","internalType":"address"}]},{"type":"error","name":"ERC1967InvalidImplementation","inputs":[{"name":"implementation","type":"address","internalType":"address"}]},{"type":"error","name":"ERC1967NonPayable","inputs":[]},{"type":"error","name":"EnforcedPause","inputs":[]},{"type":"error","name":"ExpectedPause","inputs":[]},{"type":"error","name":"FailedInnerCall","inputs":[]},{"type":"error","name":"InvalidInitialization","inputs":[]},{"type":"error","name":"NotInitializing","inputs":[]},{"type":"error","name":"OwnableInvalidOwner","inputs":[{"name":"owner","type":"address","internalType":"address"}]},{"type":"error","name":"OwnableUnauthorizedAccount","inputs":[{"name":"account","type":"address","internalType":"address"}]},{"type":"error","name":"UUPSUnauthorizedCallContext","inputs":[]},{"type":"error","name":"UUPSUnsupportedProxiableUUID","inputs":[{"name":"slot","type":"bytes32","internalType":"bytes32"}]}],"bytecode":{"object":"0x60a08060405234620000e257306080526202006462ffffff1960005416176000557ff0c57e16840df040f15088dc2f81fe391c3923bec73e23a9662efc9c229c6a009081549060ff8260401c16620000d357506001600160401b036002600160401b0319828216016200008d575b60405161455a9081620000e8823960805181818161110201526111e80152f35b6001600160401b031990911681179091556040519081527fc7f505b2f371ae2175ee4913f4499e1f2633a7b5936321eed1cdaeb6115181d290602090a13880806200006d565b63f92ee8a960e01b8152600490fd5b600080fdfe6080604052600436101561001257600080fd5b60003560e01c806202727714612b7b578063026b875a14612b465780630ed469b814612b225780630ffb0e6214612aa9578063117a5b9014612a7c578063197614bb14612a5c578063235a3d2c146127a757806328547f4314611dcf5780632b78298114611d655780632d72b8bc14611d1e57806333e84b1014611a8457806338a8f68114611a4f5780633dbf0b5514610fd2578063429b62e514611a105780634411b3eb146119f457806346cbb38f146119a057806347e1d5501461196257806348e837b9146113975780634f1ef2861461116c57806352d1902d146110ef578063535b6d89146110a857806354c0fc121461104a578063571711dc14610ff35780635941905f14610fd757806359b7868114610fd25780635bd4349b14610fb45780635c975abb14610f84578063715018a614610f1a5780637282947f14610ed25780637d08163e14610e845780637dc9387214610e3c5780638129fc1c14610c525780638a65d87414610bf65780638da5cb5b14610bc057806393efecbb14610b76578063989b820014610b2b5780639bf0e1da14610b00578063ad3cb1cc14610a7f578063af3e942014610a5d578063b5cbde6814610a15578063ba425cce146109e7578063c4ae316814610914578063da078641146107e9578063e5ed1d59146106b7578063e63a7d911461066d578063e8c2f73414610621578063e9355718146105df578063ec6a7c9f146105a5578063efaa55a0146102d7578063f2fde38b146102ac5763fd6736dd1461024c57600080fd5b346102a75760403660031901126102a757604060043560ff61029361026f612ea1565b60046102838461028a84846102838a612c68565b5001613456565b50541695612c68565b505460081c16825191825215156020820152f35b600080fd5b346102a75760203660031901126102a7576102d56102c8612e58565b6102d0612fc3565b612ffc565b005b60203660031901126102a7576004356102ee613176565b336000526002602052610306604060002054156137af565b61030f81612c68565b509060ff80925460a01c1615158061058c575b156105625761033081612c68565b50916103438160038095015416156137ed565b61035e818461035185612c68565b50015460081c161561381e565b610379818461036c85612c68565b50015460181c161561384f565b6103af61038583612c68565b5061039583825460a01c166132dd565b815460ff60a01b191660a09190911b60ff60a01b16179055565b6103b882612c68565b50906103cb60018093015434101561377e565b816103d584612c68565b5001546103f060026103e686612c68565b5001918254613880565b905561040a816103ff85612c68565b505460a01c166132fe565b916000815b61050a575b7f87969bc7faf902221a147b95ceba76e011c5efb0339a0a8ee7a2bb82d9cfbbd66104fd866104e68787878c61045684606861044f89612c68565b50016132ee565b81546001600160a01b0391841b91821b19163390911b17905560005461ffff166104a861048f86606c6104888b612c68565b500161388d565b819391549060031b9161ffff809116831b921b19161790565b90556104c084606e6104b989612c68565b50016138a9565b81949154921b92831b921b191617905533600052600260205282604060002055826135f8565b506040805191825233602083015290918291820190565b0390a16020604051338152f35b61051385612c68565b50506004838216101561055d5761052f81606861044f88612c68565b905490871b1c6001600160a01b0316156105535761054d82916132dd565b9061040f565b92506104e6610414565b610414565b60405162461bcd60e51b8152602060048201526002602482015261114d60f21b6044820152606490fd5b5060048261059983612c68565b505460a01c1610610322565b346102a75760203660031901126102a7576001600160a01b036105c6612e58565b1660005260026020526020604060002054604051908152f35b346102a75760203660031901126102a75733600052600460205261060a60ff60406000205416613144565b60206106176004356131a1565b6040519015158152f35b346102a75760203660031901126102a757608060405161064081612cf9565b36903761066961065d606f610656600435612c68565b5001613533565b60405191829182612c38565b0390f35b346102a75760203660031901126102a757608060405161068c81612cf9565b36903760806106a860686106a1600435612c68565b5001613466565b6106b56040518092612eb1565bf35b346102a75760203660031901126102a7576004356106d3613176565b6106ed60ff60036106e384612c68565b50015416156137ed565b600160ff6106fa83612c68565b505460a01c1611156107bf5761070f81613b93565b156107945761072460ff600361036c84612c68565b61074261073082612c68565b50546001600160a01b03163314613144565b600361074d82612c68565b5001805460ff1916600117905561076381613bec565b507f50ad08f58a27f2851d7e3a1b3a6a46b290f2ce677e99642d30ff639721e77790600080a2602060405160018152f35b60405162461bcd60e51b815260206004820152600360248201526204531360ec1b6044820152606490fd5b60405162461bcd60e51b8152602060048201526002602482015261453960f01b6044820152606490fd5b346102a7577f0c6a58d9f79b85a8f6842da406726f10a43321574f1fb3d9f41ec3bfcfb783616108776108726108de61082136612e6e565b61082f959295949194613176565b61083f60ff60036106e389612c68565b801561090d57845b6001600160a01b0395861660009081526002602052604090205461086c9088146138c2565b86613957565b6132fe565b61088d60ff610885836135e6565b1615156138c2565b60ff61089e82606f6104b988612c68565b90549060031b1c16156108d16108b983606f6104b989612c68565b819391549060ff809160031b9316831b921b19161790565b9055606861044f85612c68565b90546040805194855260039290921b1c919091166001600160a01b0316602083015290a1602060405160018152f35b3394610847565b346102a75760003660031901126102a75733600052600460205261093f60ff60406000205416613144565b600080516020614505833981519152805460ff8116156109a95750805460ff8116156109975760ff191690557f5db9ee0a495bf2e6ff9c91a7834c1ba4fdd244a5e8aa4e537bd38aeae4b073aa6020604051338152a1005b604051638dfc202b60e01b8152600490fd5b6001906109b4613176565b60ff19161790557f62e78cea01bee320cd4e420270b5ea74000d11b0c9f74754ebdbfc544b05a2586020604051338152a1005b346102a75760203660031901126102a757602060ff610a07600435612c68565b505460a01c16604051908152f35b346102a75760203660031901126102a7576080604051610a3481612cf9565b3690376080610a506071610a49600435612c68565b5001613570565b6106b56040518092612f63565b346102a75760003660031901126102a757602061ffff60005416604051908152f35b346102a75760003660031901126102a757604051610a9c81612cc0565b60058152602090640352e302e360dc1b82820152604051828193825282519081818401526000935b828510610ae7575050604092506000838284010152601f80199101168101030190f35b8481018201518686016040015293810193859350610ac4565b346102a75760203660031901126102a75760206002610b20600435612c68565b500154604051908152f35b346102a75760203660031901126102a75760043561ffff81168091036102a757336000526004602052610b6560ff60406000205416613144565b61ffff196000541617600055600080f35b346102a75760403660031901126102a757610bb4610b92612ea1565b336000526004602052610bac60ff60406000205416613144565b6004356135f8565b50602060405160018152f35b346102a75760003660031901126102a7576000805160206144e5833981519152546040516001600160a01b039091168152602090f35b346102a75760203660031901126102a7576001600160a01b03610c17612e58565b166000526003602052608060406000208054906001810154906003600282015491015491604051938452602084015260408301526060820152f35b346102a75760003660031901126102a7577ff0c57e16840df040f15088dc2f81fe391c3923bec73e23a9662efc9c229c6a0080549060ff8260401c161567ffffffffffffffff831692831580610e35575b60018095149081610e2b575b159081610e22575b50610e105767ffffffffffffffff1981168417835581610df1575b50610cdb613103565b610ce3613103565b600080516020614505833981519152805460ff19169055610d02613103565b610d0a613103565b610d1333612ffc565b610d1b613103565b8254600160401b811015610ddb57610d3884820191828655612c68565b505015610dc55760008381527fb10e2d527612073b26eecdfd717e6a320cf44b4afac2b0732d9fcbe2b7fa0cf9805461ff001916610100179055805462ffffff191662020064179055610d8757005b805468ff0000000000000000191690556040519081527fc7f505b2f371ae2175ee4913f4499e1f2633a7b5936321eed1cdaeb6115181d290602090a1005b634e487b7160e01b600052603260045260246000fd5b634e487b7160e01b600052604160045260246000fd5b68ffffffffffffffffff19166801000000000000000117825583610cd2565b60405163f92ee8a960e01b8152600490fd5b90501585610cb7565b303b159150610caf565b5081610ca3565b346102a75760203660031901126102a7576080604051610e5b81612cf9565b3690376080610e77606c610e70600435612c68565b50016134a5565b6106b56040518092612ee2565b346102a75760203660031901126102a7576020610617600435610ea5613176565b610eb560ff60036106e384612c68565b3360005260028352610ecd81604060002054146138c2565b6139dc565b346102a75760203660031901126102a75760e0604051610ef181612d15565b36903760e0610f0d606d610f06600435612c68565b50016134dc565b6106b56040518092612f0e565b346102a75760003660031901126102a757610f33612fc3565b6000805160206144e583398151915280546001600160a01b031981169091556000906001600160a01b03167f8be0079c531659141344cd1fd0a4f28419497f9722a3daafe3b4186f6b6457e08280a3005b346102a75760003660031901126102a757602060ff60008051602061450583398151915254166040519015158152f35b346102a75760003660031901126102a7576020600154604051908152f35b612f8b565b346102a75760003660031901126102a757602060405160648152f35b346102a75760403660031901126102a75761100c612e58565b33600052600460205261102660ff60406000205416613144565b60018060a01b03166000526002602052602435604060002055602060405160018152f35b346102a75760403660031901126102a7576024356001600160a01b038116908190036102a75760008080806020943382526004865261108f60ff604084205416613144565b600435905af161109d613070565b506040519015158152f35b346102a75760203660031901126102a757600435600a8110156102a75760011b6019810154601a90910154604080516001600160a01b039093168352602083019190915290f35b346102a75760003660031901126102a7577f00000000000000000000000000000000000000000000000000000000000000006001600160a01b0316300361115a5760206040517f360894a13ba1a3210667c828492db98dca3e2076cc3735a920a3ca505d382bbc8152f35b60405163703e46dd60e11b8152600490fd5b60403660031901126102a757611180612e58565b602490813567ffffffffffffffff81116102a757366023820112156102a7578060040135916111ae83612fa7565b6111bb6040519182612d31565b83815260209384820193368783830101116102a75781600092888893018737830101526001600160a01b037f00000000000000000000000000000000000000000000000000000000000000008116308114908115611369575b5061115a57611221612fc3565b6040516352d1902d60e01b8152908316948082600481895afa918291600093611339575b505061126357604051634c9c8ce360e01b8152600481018690528690fd5b8490867f360894a13ba1a3210667c828492db98dca3e2076cc3735a920a3ca505d382bbc918281036113245750843b1561130e575080546001600160a01b03191682179055604051907fbc7cd75a20ee27fd9adebab32041f755214dbc6bffa90cc0225b39da2e5c2d3b600080a28151156112f4575060006102d59381925190845af46112ee613070565b916130a0565b92505050346112ff57005b63b398979f60e01b8152600490fd5b604051634c9c8ce360e01b815260048101849052fd5b60405190632a87526960e21b82526004820152fd5b9080929350813d8311611362575b6113518183612d31565b810103126102a75751908780611245565b503d611347565b9050817f360894a13ba1a3210667c828492db98dca3e2076cc3735a920a3ca505d382bbc5416141587611214565b60203660031901126102a7576113ab613176565b6113b960043534101561377e565b3360005260026020526113d1604060002054156137af565b6040516113dd81612ca3565b6113e561340a565b8152604051610c8080820182811067ffffffffffffffff821117610ddb5760405260005b81811061193f575050602082015260405161142381612cf9565b6080368237604082015260405161143981612cf9565b6080368237606082015260405161144f81612d15565b60e0368237608082015260405161146581612cf9565b608036823760a082015260405161147b81612cf9565b608036823760c082015260405161149181612cf9565b608036823760e08201526040516114a781612cf9565b60803682376101008201523381515260016020825101526004356060825101526004356080825101523360408201515261ffff6000541660608201515260005b60ff90600782821610156115125761150d916080840151611fe08360051b1601526132dd565b6114e7565b82600160a082015152600154600160401b811015610ddb5780600161153a9201600155612c68565b91909161192957805180518354602083015160ff60a01b60a09190911b166001600160a01b039092166001600160a81b031990911617178355611633906040810151845460ff60a81b191660a89190911b60ff60a81b16178455606081015160018501556080810151600285015560a081015160038501805460c084015161ff0090151560081b1692151560ff1661ffff199091161791909117905560e08101516003850180546101008401516101209094015162010000600160c01b031990911692151560101b62ff0000169290921792151560181b63ff000000169290921760209190911b640100000000600160c01b0316179055565b602081015160048301906000905b606482106118f257505050604081015160005b600481106118d2575050606081015160009060005b600481106118a1575050606c830155608081015160009060005b60078110611873575050606d83015560a081015160009060005b60048110611846575050606e83015560c081015160009060005b60048110611819575050606f83015560e081015160009060005b600481106117ec578461010085856070840155015160005b600481106117d55760015460001981019081116117bf57602090336000526002825280604060002055601a61171d82612c68565b5001805460ff19166001179055606d61173582612c68565b5001805460ff191660161790557f77e6743d8e2e96f1c711a902e1df1a77d6144b056ec2e83f86136c4267db0d99606061176e83612c68565b5060680154604080518581526001600160a01b0390921686830152601690820152a16040519033817fc3e0f84839dc888c892a013d10c8f9d6dc05a21a879d0ce468ca558013e9121c600080a38152f35b634e487b7160e01b600052601160045260246000fd5b6001906020835193019260718286010155016116e9565b909160206118106001928486511515919060ff809160031b9316831b921b19161790565b930191016116d1565b9091602061183d6001928486511515919060ff809160031b9316831b921b19161790565b930191016116b7565b9091602061186a6001928486511515919060ff809160031b9316831b921b19161790565b9301910161169d565b909160206118986001928460ff875116919060ff809160031b9316831b921b19161790565b93019101611683565b909160206118c960019261ffff8651169085851b60031b9161ffff809116831b921b19161790565b93019101611669565b81516001600160a01b031660688286010155602090910190600101611654565b80518051845460209283015161ff0090151560081b1660ff90921661ffff1990911617178455600191829101930191019091611641565b634e487b7160e01b600052600060045260246000fd5b60209060405161194e81612cc0565b600081526000838201528185015201611409565b346102a75760203660031901126102a75761197b61340a565b5061014061199361198d600435612c68565b50612d53565b6106b56040518092612ddf565b346102a75760203660031901126102a75760043560ff811681036102a7573360005260046020526119d860ff60406000205416613144565b62ff00006000549160101b169062ff0000191617600055600080f35b346102a75760003660031901126102a757602060405160048152f35b346102a75760203660031901126102a7576001600160a01b03611a31612e58565b166000526004602052602060ff604060002054166040519015158152f35b346102a75760203660031901126102a7576080604051611a6e81612cf9565b36903761066961065d606e610656600435612c68565b346102a75760003660031901126102a75760015467ffffffffffffffff8111610ddb5760405190611abb60208260051b0183612d31565b80825260208201809160016000527fb10e2d527612073b26eecdfd717e6a320cf44b4afac2b0732d9fcbe2b7fa0cf6916000905b828210611c0f5784866040519182916020830190602084525180915260408301919060005b818110611b22575050500390f35b9180945092909251611b35828251612ddf565b602081015160009061014084015b60648310611bea57505050611e20600192611bdc61010084611b7060406020970151611a40860190612eb1565b611b836060820151611ac0860190612ee2565b611b966080820151611b40860190612f0e565b611ba960a0820151611c20860190612f39565b611bbc60c0820151611ca0860190612f39565b611bcf60e0820151611d20860190612f39565b0151611da0830190612f63565b019401910191849392611b14565b6020604060019282855160ff8151168352015115158382015201920192019190611b43565b604051611c1b81612ca3565b611c2485612d53565b8152604051610c80810181811067ffffffffffffffff821117610ddb57604052600060048701825b60648310611cea5750505060019282602092836075950152611c7060688901613466565b6040820152611c81606c89016134a5565b6060820152611c92606d89016134dc565b6080820152611ca3606e8901613533565b60a0820152611cb4606f8901613533565b60c0820152611cc560708901613533565b60e0820152611cd660718901613570565b610100820152815201940191019092611aef565b600160208192604051611cfc81612cc0565b855460ff90818116835260081c16151583820152815201920192019190611c4c565b346102a75760203660031901126102a757600435600a8110156102a75760011b6005810154600690910154604080516001600160a01b039093168352602083019190915290f35b346102a75760603660031901126102a757611d7e612ea1565b6044359060ff82168092036102a7576108b9611dc291336000526004602052611dae60ff60406000205416613144565b606d611dbb600435612c68565b50016132c4565b9055602060405160018152f35b346102a75760803660031901126102a757600460243510156102a7576044356001600160a01b03811690036102a7576064351515606435036102a757611e13613176565b600160ff6003611e24600435612c68565b5001541615150361277d5760ff6003611e3e600435612c68565b50015460101c1661275257611e5b60ff6003610351600435612c68565b611e6d60ff600361036c600435612c68565b6064351561274c576044355b6001600160a01b0316600090815260026020526040902054611e9e90600435146138c2565b611ebc60ff611eb4606435604435600435613957565b161515613144565b600160ff611eec611ece600435612c68565b50606e611ee5610872606435604435600435613957565b91016138a9565b90549060031b1c1615150361272157611f0f610872606435604435600435613957565b60ff611f2282606d611dbb600435612c68565b90549060031b1c16611f35602435613f7a565b60000b8160000b0190607f198212607f8313176117bf5760ff600a600992611f5e600435612c68565b5050611f6e606486851610613f28565b8282820616158061270a575b6126f3575b061614806126dc575b6126c4575b60ff611faa611f9d600435612c68565b5060048484169101613456565b505460081c166126995760ff611fc4611f9d600435612c68565b50541661245f57611fdb9060ff1682600435613fbd565b505b600160ff611fec600435612c68565b505460a01c1614612029575b61200990607161044f600435612c68565b81549060031b9042821b91600019901b1916179055602060405160018152f35b6003612036600435612c68565b5001805461ff00191661010017905560005b612053600435612c68565b5050600460ff8216101561245557600160ff61207683606e6104b9600435612c68565b90549060031b1c161515146120935761208e906132dd565b612048565b6120a490606861044f600435612c68565b9054600391821b1c6001600160a01b031691906120f59083906120c8600435612c68565b50018054640100000000600160c01b03191660209290921b640100000000600160c01b0316919091179055565b816004357f3d5fcd8fa3235aeb3897f25c8ea49989174981afcb01b9d03189d1056a16775b600080a36121c4606461214f6002612133600435612c68565b50015460ff6121488160005460101c16613311565b1690613322565b0461216a600080808085895af1612164613070565b50613335565b80846004357f2d2c3375da5b0a5f617bbcefa38e413a9ef5f70e50d0f9c5f6cc0adc3fa35779600080a483600052600360205260406000206121ac8154613f0c565b905560016121bb600435612c68565b500154906137e0565b8260005260036020526121e06002604060002001918254613880565b90558160005260036020526002604060002001546018548111612346575b5081600052600360205260406000205491602c548311612233575b5061200991505b61222b600435613367565b509050611ff8565b60005b600a8110612284575b5061200992508060005260036020527f3c6f7494b388aaf4947e5d85eb5a50078031fc2332493b751f7596351f23c1b96020604060002054604051908152a282612219565b601a8160011b015484116122a05761229b90613f0c565b612236565b9260095b8481116122d65750601a846120099560011b601901846001600160601b0360a01b82541617905560011b01558361223f565b806000198101116117bf57600a60001982011015610dc5576019600019820160011b01546001600160a01b031690600a811015610dc557612341918160011b9081601901906001600160601b0360a01b825416179055601a80600019840160011b0154910155613f1b565b6122a4565b9060005b600a8110612399575b509050816000526003602052817f9cb8864a722bf07d0c04c1323e8c2768a9200d39440c236ee5f41d91b911ccf56020600260406000200154604051908152a2826121fe565b60068160011b015483116123b5576123b090613f0c565b61234a565b60099291925b8181116123e5575060011b6005810180546001600160a01b03191685179055600601558083612353565b806000198101116117bf57600a60001982011015610dc5576005600019820160011b01546001600160a01b031690600a811015610dc557612450918160011b9081600501906001600160601b0360a01b825416179055600680600019840160011b0154910155613f1b565b6123bb565b5061200990612220565b600460ff61247c6124708335612c68565b50838584169101613456565b50541611156126515760ff6124a56124ad92600461249a8135612c68565b509184169101613456565b5054166132fe565b6124d960ff6124c383606d611dbb600435612c68565b90549060031b1c1691606d611dbb600435612c68565b60ff82549160031b1b908119161790556124f98160046102838135612c68565b50805460ff1916905561253b612510600435612c68565b5061252160ff825460a81c166139cc565b815460ff60a81b191660a89190911b60ff60a81b16179055565b604051608260208201428152446040840152606f60631b60608401526054835261256483612cf9565b91519091200660010b60401901617fff198112617fff8213176117bf5761ffff61259584606c610488600435612c68565b90549060031b1c1660010b90617fff198160010b830112617fff8260010b840113176117bf57600181810b8301919060009083900b13612611575050506125de82600435614090565b5061ffff60005b166125fd575b506125f7600435613bec565b50611fdd565b61260a9082600435613fbd565b50816125eb565b61264a61ffff938461262a88606c610488600435612c68565b92909460010b01169083549060031b9161ffff809116831b921b19161790565b90556125e5565b600460ff6126626124708335612c68565b50541611156126715750611fdd565b61268960ff6124a561269293600461249a8135612c68565b8260043561422d565b50816125f7565b60405162461bcd60e51b815260206004820152600360248201526245313560e81b6044820152606490fd5b6126d760ff600a83821606161515613f28565b611f8d565b506126e8602435613f5a565b600360243514611f88565b61270584848488821606161415613f28565b611f7f565b50612716602435613f5a565b600160243514611f7a565b60405162461bcd60e51b815260206004820152600360248201526245313360e81b6044820152606490fd5b33611e79565b60405162461bcd60e51b815260206004820152600360248201526208a62760eb1b6044820152606490fd5b60405162461bcd60e51b815260206004820152600260248201526108a760f31b6044820152606490fd5b346102a7576127b536612e6e565b6127bd613176565b8015612a5657815b6001600160a01b03166000908152600260205260409020546127e89084146138c2565b6127f6610872828486613957565b9260ff9261280784610885876135e6565b61281082612c68565b5092846128676128248860708098016138a9565b98905461285b84612839848b6104b98c612c68565b91909360039d8e1b1c16159083549060ff809160031b9316831b921b19161790565b9055866104b987612c68565b905490881b1c166129d6575b50508261287f82612c68565b505460a01c169260009260005b61289584612c68565b505060048382161015612910576128b081836104b987612c68565b9054600191891b1c84161515811490816128ee575b506128d9575b6128d4906132dd565b61288c565b936128e66128d4916132dd565b9490506128cb565b90508361290083606e6104b989612c68565b9054908a1b1c16151514886128c5565b8387868516881485816129bc575b501561297657816020916129527f60f26477008aa4c656f8e1e30cdc74fa0be1c07ff15eead918e9614cdca8d16694612c68565b5001805462ff0000191662010000179055604051908152a15b602060405160018152f35b816020916129a47fd89f8445e94a8e31afc10a82c48d2518eff9f4efc746fdf7b029c28e3fc5463a94612c68565b5001805462ff000019169055604051908152a161296b565b9050816129c884612c68565b50015460101c16158361291e565b15612a2b57612a217f2b02cf7e1a7798ae84c4e889779d06feaed067d1a58cdbc014f6a98fb619f2bb915b604080518581526001600160a01b03909216602083015290918291820190565b0390a18480612873565b507f2b02cf7e1a7798ae84c4e889779d06feaed067d1a58cdbc014f6a98fb619f2bb612a2133612a01565b336127c5565b346102a75760203660031901126102a75760206001610b20600435612c68565b346102a75760203660031901126102a7576004356001548110156102a75761199361198d61014092612c68565b346102a75760003660031901126102a757612ac26135a3565b50604051612acf81612cdc565b60196000825b600a8210612aeb57604051806106698682612bf4565b600260019160405190612afd82612cc0565b838060a01b038654168252838601549160209283820152815201930191019091612ad5565b346102a75760003660031901126102a757602060ff60005460101c16604051908152f35b346102a75760203660031901126102a7576080604051612b6581612cf9565b36903761066961065d6070610656600435612c68565b346102a75760003660031901126102a757612b946135a3565b50604051612ba181612cdc565b60056000825b600a8210612bbd57604051806106698682612bf4565b600260019160405190612bcf82612cc0565b838060a01b038654168252838601549160209283820152815201930191019091612ba7565b610280810192916000915b600a8310612c0c57505050565b815180516001600160a01b03168252602090810151818301526001939093019290910190604001612bff565b6080810192916000915b60048310612c4f57505050565b6001908251151581526020809101920192019190612c42565b600154811015610dc5576075906001600052027fb10e2d527612073b26eecdfd717e6a320cf44b4afac2b0732d9fcbe2b7fa0cf60190600090565b610120810190811067ffffffffffffffff821117610ddb57604052565b6040810190811067ffffffffffffffff821117610ddb57604052565b610140810190811067ffffffffffffffff821117610ddb57604052565b6080810190811067ffffffffffffffff821117610ddb57604052565b60e0810190811067ffffffffffffffff821117610ddb57604052565b90601f8019910116810190811067ffffffffffffffff821117610ddb57604052565b90604051612d6081612cdc565b61012081938054600360018060a01b0392838316865260ff8381809560a01c16602089015260a81c1660408701526001810154606087015260028101546080870152015490808216151560a0860152808260081c16151560c0860152808260101c16151560e08601528160181c16151561010085015260201c16910152565b60018060a01b0380825116835260ff602083015116602084015260ff6040830151166040840152606082015160608401526080820151608084015260a0820151151560a084015260c0820151151560c084015260e0820151151560e0840152610100808301511515908401526101208092015116910152565b600435906001600160a01b03821682036102a757565b60609060031901126102a757600435906024356001600160a01b03811681036102a7579060443580151581036102a75790565b6024359060ff821682036102a757565b6000915b60048310612ec257505050565b81516001600160a01b031681526001929092019160209182019101612eb5565b6000915b60048310612ef357505050565b60019061ffff83511681526020809101920192019190612ee6565b6000915b60078310612f1f57505050565b60019060ff83511681526020809101920192019190612f12565b6000915b60048310612f4a57505050565b6001908251151581526020809101920192019190612f3d565b6000915b60048310612f7457505050565b600190825181526020809101920192019190612f67565b346102a75760003660031901126102a7576020604051600a8152f35b67ffffffffffffffff8111610ddb57601f01601f191660200190565b6000805160206144e5833981519152546001600160a01b03163303612fe457565b60405163118cdaa760e01b8152336004820152602490fd5b6001600160a01b03908116908115613057576000805160206144e583398151915280546001600160a01b031981168417909155167f8be0079c531659141344cd1fd0a4f28419497f9722a3daafe3b4186f6b6457e0600080a3565b604051631e4fbdf760e01b815260006004820152602490fd5b3d1561309b573d9061308182612fa7565b9161308f6040519384612d31565b82523d6000602084013e565b606090565b906130c757508051156130b557805190602001fd5b604051630a12f52160e11b8152600490fd5b815115806130fa575b6130d8575090565b604051639996b31560e01b81526001600160a01b039091166004820152602490fd5b50803b156130d0565b60ff7ff0c57e16840df040f15088dc2f81fe391c3923bec73e23a9662efc9c229c6a005460401c161561313257565b604051631afcd79f60e31b8152600490fd5b1561314b57565b60405162461bcd60e51b815260206004820152600360248201526222989960e91b6044820152606490fd5b60ff600080516020614505833981519152541661318f57565b60405163d93c066560e01b8152600490fd5b60005b6131ad82612c68565b505060ff90600482821610156132705780613210926131cb85612c68565b5090856131dc8460688095016132ee565b91909260018060a01b03809454600394851b1c1660005260026020528160406000205414613215575b5050505050506132dd565b6131a4565b6064613259600096958796956132346132659a899861044f8a99612c68565b9054911b1c169260016132468d612c68565b5001549061214881875460101c16613311565b04905af1612164613070565b803880808681613205565b505061327b81613367565b50600361328782612c68565b5001805463ff000000191663010000001790557fc6cdad3b3d7abda636116a8e94d054f37e923a63418e338faefe22d5cd582ab2600080a2600190565b9190916007831015610dc557601f908360051c01921690565b60ff1660ff81146117bf5760010190565b6004821015610dc5570190600090565b60ff6000199116019060ff82116117bf57565b60ff166064039060ff82116117bf57565b818102929181159184041417156117bf57565b1561333c57565b60405162461bcd60e51b815260206004820152600360248201526222989b60e91b6044820152606490fd5b60005b61337382612c68565b5050600460ff8216101561340357806133d69161338f84612c68565b5061339e8260688093016132ee565b60018060a01b03809254600392831b1c16600052600291602091838352604094898660002054146133db575b505050505050506132dd565b61336a565b6000966133eb9161044f8c612c68565b9054911b1c16845252812055803880808080806133ca565b5050600190565b6040519061341782612cdc565b816101206000918281528260208201528260408201528260608201528260808201528260a08201528260c08201528260e0820152826101008201520152565b6064821015610dc5570190600090565b60405191906000835b600482106134855750505061348382612cf9565b565b82546001600160a01b03168152600192830192919091019060200161346f565b90604051915461ffff908181168452818160101c166020850152818160201c16604085015260301c16606083015261348382612cf9565b90604051915460ff908181168452818160081c166020850152818160101c166040850152818160181c166060850152818160201c166080850152818160281c1660a085015260301c1660c083015261348382612d15565b9060ff604051925481811615158452818160081c1615156020850152818160101c161515604085015260181c161515606083015261348382612cf9565b60405191906000835b6004821061358d5750505061348382612cf9565b6001602081928554815201930191019091613579565b6040908151916135b283612cdc565b600083815b61014081106135c65750505050565b60209084516135d481612cc0565b848152848382015281840152016135b7565b60ff60019116019060ff82116117bf57565b61368a917f77e6743d8e2e96f1c711a902e1df1a77d6144b056ec2e83f86136c4267db0d9991600060ff8316806136c45750506136be60169485935b61363d816135e6565b60ff61364e87600461028389612c68565b50911660ff198254161790556108d161366c82606d611dbb88612c68565b60ff88939293169083549060ff809160031b9316831b921b19161790565b90546040805194855260039290921b1c6001600160a01b0316602084015260ff909316928201929092529081906060820190565b0390a190565b600181036136db5750506136be604d948593613634565b600281036137285750508260606136f784606861044f86612c68565b9054906040519185835260018060a01b039160031b1c166020820152601b6040820152a16136be601b948593613634565b600303613772575082606061374284606861044f86612c68565b60018060a01b0391549060031b1c1660405190848252602082015260486040820152a16136be6048948593613634565b6136be90948593613634565b1561378557565b60405162461bcd60e51b8152602060048201526002602482015261229960f11b6044820152606490fd5b156137b657565b60405162461bcd60e51b8152602060048201526002602482015261453360f01b6044820152606490fd5b919082039182116117bf57565b156137f457565b60405162461bcd60e51b8152602060048201526002602482015261453560f01b6044820152606490fd5b1561382557565b60405162461bcd60e51b8152602060048201526002602482015261229b60f11b6044820152606490fd5b1561385657565b60405162461bcd60e51b8152602060048201526002602482015261453760f01b6044820152606490fd5b919082018092116117bf57565b9190916004831015610dc557601e908360041c019260011b1690565b9190916004831015610dc557601f908360051c01921690565b156138c957565b60405162461bcd60e51b815260206004820152600360248201526245313160e81b6044820152606490fd5b60005b61390082612c68565b5050600460ff821610156139505761391d81606861044f85612c68565b905460039190911b1c6001600160a01b031633146139435761393e906132dd565b6138f7565b61394d91506135e6565b90565b5050600090565b9160005b61396484612c68565b5050600460ff821610156139c35761398181606861044f87612c68565b905483156139bc5784905b60018060a01b038092169260031b1c16146139af576139aa906132dd565b61395b565b91505061394d91506135e6565b339061398c565b50505050600090565b60ff1680156117bf576000190190565b6139e8610872826138f4565b60ff9081811615613b6857613b4b829160706104b986613a39613a2d6001613a1160649b612c68565b500154600080809c819482948d61214881865460101c16613311565b04335af1612164613070565b613a55613a4582612c68565b5061039588825460a01c166139cc565b6001613a6082612c68565b500154613a7b6002613a7184612c68565b50019182546137e0565b9055613aac613a8982612c68565b506004613a9b87606d611dbb87612c68565b99905460039a8b1b1c169101613456565b50805460ff19169055613ac484606861044f84612c68565b81546001600160a01b0391891b9190911b19169055613ae884606c61048884612c68565b61ffff825491891b1b19169055613b0484606d611dbb84612c68565b88825491891b1b90811916179055613b2184606e6104b984612c68565b88825491891b1b19169055613b3b84606f6104b984612c68565b88825491891b1b19169055612c68565b81939154921b1b1916905533815260026020526040812055600190565b5090613b7c613b8d9260036106e384612c68565b613b8861073082612c68565b6131a1565b50600190565b6000805b613ba083612c68565b5060ff80915460a01c168183161015613be357613bc282606f6104b987612c68565b90549060031b1c1615613bdd57613bd8906132dd565b613b97565b50905090565b50505050600190565b90600060045b613bfb84612c68565b505060ff60078183161015613c4b5780613c1a83606d611dbb89612c68565b90549060031b1c1603613c36575b613c31906132dd565b613bf2565b90613c43613c31916132dd565b919050613c28565b505091600090815b613c5c82612c68565b505060ff60048183161015613cb057600190613c7d83606e6104b987612c68565b90549060031b1c16151514613c9b575b613c96906132dd565b613c53565b91613ca8613c96916132dd565b929050613c8d565b50509092919260ff8080941660000b911660000b0390607f1990607f8313828412176117bf576000199260000b8301828112607f8213176117bf5760008082810b13600014613e4357505b9360045b613d0883612c68565b505060078282161015613e3857613d1e83612c68565b508280613d2f84606d8095016132c4565b90549060031b1c1614613d4c575b50613d47906132dd565b613cff565b909560000b906000821315613e2c576060837f7fa8af5a083dce9776f1c477855a76d7d16c984c6b39ac52003310cd5e71c35e92613ddf613dc38b613d938533168b613e6d565b938a86613dae876004610283613da8886135e6565b95612c68565b50911660ff19825416179055611dbb8b612c68565b93909216809383549060ff809160031b9316831b921b19161790565b9055613dfd613ded87612c68565b5061252187825460a81c166132dd565b613e06896135e6565b90604086815193898552166020840152820152a18381146117bf57840194613d47613d3d565b50505050505050600190565b505050505050600190565b9050613cfb565b6001600160a01b039081166003818102909216929181840414901517156117bf57565b60ff613ead60405160208101904282524460408201526001600160601b03198660601b16606082015260548152613ea381612cf9565b5190206064900690565b1660ff613ebf82600461028386612c68565b50541615801590613ee9575b15613ee35750613edd61394d92613e4a565b90613e6d565b91505090565b50613f07613efc82600461028386612c68565b505460081c60ff1690565b613ecb565b60001981146117bf5760010190565b80156117bf576000190190565b15613f2f57565b60405162461bcd60e51b8152602060048201526003602482015262114c4d60ea1b6044820152606490fd5b60041115613f6457565b634e487b7160e01b600052602160045260246000fd5b6004811015613f645760028103613f915750600a90565b80613f9d575060091990565b60018103613fac575060001990565b600303613fb857600190565b600090565b6140607f689254b753ca60742e68c59d0d98cc6d231f56da7de5fa9040dadc96ab3b0c5092614011613fee84612c68565b50600460ff61400285606d611dbb8a612c68565b90549060031b1c169101613456565b5060ff1990818154169055614025826135e6565b9060ff61403788600461028389612c68565b5092169082541617905561405361366c82606d611dbb87612c68565b9055606861044f84612c68565b90546040805193845260039290921b1c6001600160a01b0316602083015260ff84169082015280606081016136be565b6141976140a283606e6104b985612c68565b90805460ff600393841b1b191690556140df6140bd84612c68565b50600460ff6140d188606d611dbb8a612c68565b905490861b1c169101613456565b50805460ff191690556140f784606d611dbb86612c68565b60ff825491841b1b9081191617905561411584606c61048886612c68565b61ffff825491841b1b1916905561413f61412e84612c68565b5061039560ff825460a01c166139cc565b7f17bbddf7564415da2a525f1a441df1385857f5438a6c5836a1a5d71fa1c1bb8c61416f85606861044f87612c68565b90546040805187815292851b9190911c6001600160a01b039081166020840152948291820190565b0390a161421884606861044f856141b2848461044f8b612c68565b905490871b1c1696600097885285602052600160408920016141d48154613f0c565b905560016141e182612c68565b500154876141f3868661044f86612c68565b905490891b1c168952866020526142118760408b2001918254613880565b9055612c68565b9054911b1c1681526002602052604081205590565b909161423e81606d611dbb85612c68565b90549161424c8186866143a1565b60ff80871691161460001461430a57839285927f2840e066f6437c6fb9c7a3af38071a68da790571d095d010b1120d231f17c9eb856142c06142f861044f8761429a60ff996143069d614090565b506142aa8a606861044f88612c68565b949091606860018060a01b039485945498612c68565b90549060031b1c169060405194859460031b1c168a849160409194936060840195845260018060a01b03809216602085015216910152565b0390a160031b1c1691613fbd565b5090565b939150508161433a827f2840e066f6437c6fb9c7a3af38071a68da790571d095d010b1120d231f17c9eb94614090565b506136be61436961435086606861044f86612c68565b939060018060a01b039283915496606861044f85612c68565b90549060031b1c169160405195869560031b1c1690849160409194936060840195845260018060a01b03809216602085015216910152565b9190916143b383606c61048884612c68565b906143d184606c61048861ffff80968196549060031b1c1696612c68565b90549060031b1c1682018181116117bf5716801561448d57670de0b6b3a7640000808302928084048214811517156117bf5768056bc75e2d631000000292808404606414901517156117bf57808202918204036117bf5780156144775760646040516020810190428252446040820152600b60631b60608201526054815261445881612cf9565b5190200691600183018093116117bf570410614472575090565b905090565b634e487b7160e01b600052601260045260246000fd5b60405162461bcd60e51b815260206004820152602960248201527f6469766973696f6e206279207a65726f2077696c6c20726573756c7420696e2060448201526834b73334b734ba3c9760b91b6064820152608490fdfe9016d09d72d40fdae2fd8ceac6b6234c7706214fd39c1cd1e609a0528c199300cd5ed15c6e187e77e9aee88184c21f4f2182ab5827cb3b7e07fbedcd63f03300a264697066735822122077716436f0835a912886baa163b95688dfc8e5534c2c9154af91db42c9118a8864736f6c63430008140033","linkReferences":{}},"methodIdentifiers":{"MAP_HEIGHT()":"59b78681","MAP_WIDTH()":"3dbf0b55","MAX_PLAYERS()":"4411b3eb","TILE_COUNT()":"5941905f","UPGRADE_INTERFACE_VERSION()":"ad3cb1cc","adminBootAll(uint256)":"e9355718","adminSetPlayerGamePosition(uint256,uint8,uint8)":"2b782981","adminSetPlayerInGame(address,uint256)":"571711dc","adminSpawnPlayer(uint256,uint8)":"93efecbb","adminTransferFunds(uint256,address)":"54c0fc12","admins(address)":"429b62e5","createGame(uint256)":"48e837b9","games(uint256)":"117a5b90","getGameInfo(uint256)":"47e1d550","getGamesArray()":"33e84b10","getPiecePositions(uint256)":"7282947f","getPlayerFTs(uint256)":"7dc93872","getPlayerIds(uint256)":"e63a7d91","getPlayerLastMoveTime(uint256)":"b5cbde68","getPlayerLives(uint256)":"38a8f681","getPlayerPauseVote(uint256)":"026b875a","getPlayerReadiness(uint256)":"e8c2f734","getRoomBoard(uint256,uint8)":"fd6736dd","getRoomMinStake(uint256)":"197614bb","getRoomPlayersCount(uint256)":"ba425cce","getRoomTotalStaked(uint256)":"9bf0e1da","getTop10RanksByEarnings()":"00027277","getTop10RanksByWinnings()":"0ffb0e62","getTotalGames()":"5bd4349b","houseFee()":"0ed469b8","initialize()":"8129fc1c","joinGame(uint256)":"efaa55a0","leaveGameB4start(uint256)":"7d08163e","movePlayer(uint256,uint8,address,bool)":"28547f43","owner()":"8da5cb5b","paused()":"5c975abb","playerInGame(address)":"ec6a7c9f","playerReadyUp(uint256,address,bool)":"da078641","playerTogglePause(uint256,address,bool)":"235a3d2c","proxiableUUID()":"52d1902d","renounceOwnership()":"715018a6","setHouseFee(uint8)":"46cbb38f","setStartingFT(uint16)":"989b8200","startGame(uint256)":"e5ed1d59","starting_FT()":"af3e9420","togglePause()":"c4ae3168","top10Earned(uint256)":"2d72b8bc","top10Wins(uint256)":"535b6d89","transferOwnership(address)":"f2fde38b","upgradeToAndCall(address,bytes)":"4f1ef286","userStats(address)":"8a65d874"},"id":30}