{
    "abi": [
        {
            "type": "constructor",
            "inputs": [],
            "stateMutability": "nonpayable"
        },
        {
            "type": "function",
            "name": "MAP_HEIGHT",
            "inputs": [],
            "outputs": [
                {
                    "name": "",
                    "type": "uint8",
                    "internalType": "uint8"
                }
            ],
            "stateMutability": "view"
        },
        {
            "type": "function",
            "name": "MAP_WIDTH",
            "inputs": [],
            "outputs": [
                {
                    "name": "",
                    "type": "uint8",
                    "internalType": "uint8"
                }
            ],
            "stateMutability": "view"
        },
        {
            "type": "function",
            "name": "MAX_PLAYERS",
            "inputs": [],
            "outputs": [
                {
                    "name": "",
                    "type": "uint8",
                    "internalType": "uint8"
                }
            ],
            "stateMutability": "view"
        },
        {
            "type": "function",
            "name": "TILE_COUNT",
            "inputs": [],
            "outputs": [
                {
                    "name": "",
                    "type": "uint8",
                    "internalType": "uint8"
                }
            ],
            "stateMutability": "view"
        },
        {
            "type": "function",
            "name": "UPGRADE_INTERFACE_VERSION",
            "inputs": [],
            "outputs": [
                {
                    "name": "",
                    "type": "string",
                    "internalType": "string"
                }
            ],
            "stateMutability": "view"
        },
        {
            "type": "function",
            "name": "adminBootAll",
            "inputs": [
                {
                    "name": "_roomId",
                    "type": "uint256",
                    "internalType": "uint256"
                }
            ],
            "outputs": [
                {
                    "name": "",
                    "type": "bool",
                    "internalType": "bool"
                }
            ],
            "stateMutability": "nonpayable"
        },
        {
            "type": "function",
            "name": "adminSetPlayerGamePosition",
            "inputs": [
                {
                    "name": "_roomId",
                    "type": "uint256",
                    "internalType": "uint256"
                },
                {
                    "name": "_playerIndex",
                    "type": "uint8",
                    "internalType": "uint8"
                },
                {
                    "name": "_position",
                    "type": "uint8",
                    "internalType": "uint8"
                }
            ],
            "outputs": [
                {
                    "name": "",
                    "type": "bool",
                    "internalType": "bool"
                }
            ],
            "stateMutability": "nonpayable"
        },
        {
            "type": "function",
            "name": "adminSetPlayerInGame",
            "inputs": [
                {
                    "name": "_player",
                    "type": "address",
                    "internalType": "address"
                },
                {
                    "name": "_roomId",
                    "type": "uint256",
                    "internalType": "uint256"
                }
            ],
            "outputs": [
                {
                    "name": "",
                    "type": "bool",
                    "internalType": "bool"
                }
            ],
            "stateMutability": "nonpayable"
        },
        {
            "type": "function",
            "name": "adminSpawnPlayer",
            "inputs": [
                {
                    "name": "_roomId",
                    "type": "uint256",
                    "internalType": "uint256"
                },
                {
                    "name": "_playerIndex",
                    "type": "uint8",
                    "internalType": "uint8"
                }
            ],
            "outputs": [
                {
                    "name": "",
                    "type": "bool",
                    "internalType": "bool"
                }
            ],
            "stateMutability": "nonpayable"
        },
        {
            "type": "function",
            "name": "adminTransferFunds",
            "inputs": [
                {
                    "name": "_amount",
                    "type": "uint256",
                    "internalType": "uint256"
                },
                {
                    "name": "_to",
                    "type": "address",
                    "internalType": "address"
                }
            ],
            "outputs": [
                {
                    "name": "",
                    "type": "bool",
                    "internalType": "bool"
                }
            ],
            "stateMutability": "nonpayable"
        },
        {
            "type": "function",
            "name": "checkAdmin",
            "inputs": [
                {
                    "name": "_admin",
                    "type": "address",
                    "internalType": "address"
                }
            ],
            "outputs": [
                {
                    "name": "",
                    "type": "bool",
                    "internalType": "bool"
                }
            ],
            "stateMutability": "view"
        },
        {
            "type": "function",
            "name": "createGame",
            "inputs": [
                {
                    "name": "_minStake",
                    "type": "uint256",
                    "internalType": "uint256"
                }
            ],
            "outputs": [
                {
                    "name": "gameId",
                    "type": "uint256",
                    "internalType": "uint256"
                }
            ],
            "stateMutability": "payable"
        },
        {
            "type": "function",
            "name": "games",
            "inputs": [
                {
                    "name": "",
                    "type": "uint256",
                    "internalType": "uint256"
                }
            ],
            "outputs": [
                {
                    "name": "info",
                    "type": "tuple",
                    "internalType": "struct RRoyale.GameInfo",
                    "components": [
                        {
                            "name": "gameCreator",
                            "type": "address",
                            "internalType": "address"
                        },
                        {
                            "name": "playersCount",
                            "type": "uint8",
                            "internalType": "uint8"
                        },
                        {
                            "name": "itemCount",
                            "type": "uint8",
                            "internalType": "uint8"
                        },
                        {
                            "name": "minStake",
                            "type": "uint256",
                            "internalType": "uint256"
                        },
                        {
                            "name": "totalStaked",
                            "type": "uint256",
                            "internalType": "uint256"
                        },
                        {
                            "name": "hasStarted",
                            "type": "bool",
                            "internalType": "bool"
                        },
                        {
                            "name": "hasEnded",
                            "type": "bool",
                            "internalType": "bool"
                        },
                        {
                            "name": "gamePaused",
                            "type": "bool",
                            "internalType": "bool"
                        },
                        {
                            "name": "gameAbandoned",
                            "type": "bool",
                            "internalType": "bool"
                        },
                        {
                            "name": "winner",
                            "type": "address",
                            "internalType": "address"
                        }
                    ]
                }
            ],
            "stateMutability": "view"
        },
        {
            "type": "function",
            "name": "getGameInfo",
            "inputs": [
                {
                    "name": "_roomId",
                    "type": "uint256",
                    "internalType": "uint256"
                }
            ],
            "outputs": [
                {
                    "name": "",
                    "type": "tuple",
                    "internalType": "struct RRoyale.GameInfo",
                    "components": [
                        {
                            "name": "gameCreator",
                            "type": "address",
                            "internalType": "address"
                        },
                        {
                            "name": "playersCount",
                            "type": "uint8",
                            "internalType": "uint8"
                        },
                        {
                            "name": "itemCount",
                            "type": "uint8",
                            "internalType": "uint8"
                        },
                        {
                            "name": "minStake",
                            "type": "uint256",
                            "internalType": "uint256"
                        },
                        {
                            "name": "totalStaked",
                            "type": "uint256",
                            "internalType": "uint256"
                        },
                        {
                            "name": "hasStarted",
                            "type": "bool",
                            "internalType": "bool"
                        },
                        {
                            "name": "hasEnded",
                            "type": "bool",
                            "internalType": "bool"
                        },
                        {
                            "name": "gamePaused",
                            "type": "bool",
                            "internalType": "bool"
                        },
                        {
                            "name": "gameAbandoned",
                            "type": "bool",
                            "internalType": "bool"
                        },
                        {
                            "name": "winner",
                            "type": "address",
                            "internalType": "address"
                        }
                    ]
                }
            ],
            "stateMutability": "view"
        },
        {
            "type": "function",
            "name": "getGamesArray",
            "inputs": [],
            "outputs": [
                {
                    "name": "",
                    "type": "tuple[]",
                    "internalType": "struct RRoyale.GameRoom[]",
                    "components": [
                        {
                            "name": "info",
                            "type": "tuple",
                            "internalType": "struct RRoyale.GameInfo",
                            "components": [
                                {
                                    "name": "gameCreator",
                                    "type": "address",
                                    "internalType": "address"
                                },
                                {
                                    "name": "playersCount",
                                    "type": "uint8",
                                    "internalType": "uint8"
                                },
                                {
                                    "name": "itemCount",
                                    "type": "uint8",
                                    "internalType": "uint8"
                                },
                                {
                                    "name": "minStake",
                                    "type": "uint256",
                                    "internalType": "uint256"
                                },
                                {
                                    "name": "totalStaked",
                                    "type": "uint256",
                                    "internalType": "uint256"
                                },
                                {
                                    "name": "hasStarted",
                                    "type": "bool",
                                    "internalType": "bool"
                                },
                                {
                                    "name": "hasEnded",
                                    "type": "bool",
                                    "internalType": "bool"
                                },
                                {
                                    "name": "gamePaused",
                                    "type": "bool",
                                    "internalType": "bool"
                                },
                                {
                                    "name": "gameAbandoned",
                                    "type": "bool",
                                    "internalType": "bool"
                                },
                                {
                                    "name": "winner",
                                    "type": "address",
                                    "internalType": "address"
                                }
                            ]
                        },
                        {
                            "name": "board",
                            "type": "tuple[100]",
                            "internalType": "struct RRoyale.Tile[100]",
                            "components": [
                                {
                                    "name": "occupantId",
                                    "type": "uint8",
                                    "internalType": "uint8"
                                },
                                {
                                    "name": "isWall",
                                    "type": "bool",
                                    "internalType": "bool"
                                }
                            ]
                        },
                        {
                            "name": "playerIds",
                            "type": "address[4]",
                            "internalType": "address[4]"
                        },
                        {
                            "name": "playerFTs",
                            "type": "uint16[4]",
                            "internalType": "uint16[4]"
                        },
                        {
                            "name": "positions",
                            "type": "uint8[7]",
                            "internalType": "uint8[7]"
                        },
                        {
                            "name": "playerAlive",
                            "type": "bool[4]",
                            "internalType": "bool[4]"
                        },
                        {
                            "name": "playerReady",
                            "type": "bool[4]",
                            "internalType": "bool[4]"
                        },
                        {
                            "name": "playerPauseVote",
                            "type": "bool[4]",
                            "internalType": "bool[4]"
                        },
                        {
                            "name": "playerLastMoveTime",
                            "type": "uint256[4]",
                            "internalType": "uint256[4]"
                        }
                    ]
                }
            ],
            "stateMutability": "view"
        },
        {
            "type": "function",
            "name": "getPiecePositions",
            "inputs": [
                {
                    "name": "_roomId",
                    "type": "uint256",
                    "internalType": "uint256"
                }
            ],
            "outputs": [
                {
                    "name": "",
                    "type": "uint8[7]",
                    "internalType": "uint8[7]"
                }
            ],
            "stateMutability": "view"
        },
        {
            "type": "function",
            "name": "getPlayerFTs",
            "inputs": [
                {
                    "name": "_roomId",
                    "type": "uint256",
                    "internalType": "uint256"
                }
            ],
            "outputs": [
                {
                    "name": "",
                    "type": "uint16[4]",
                    "internalType": "uint16[4]"
                }
            ],
            "stateMutability": "view"
        },
        {
            "type": "function",
            "name": "getPlayerIds",
            "inputs": [
                {
                    "name": "_roomId",
                    "type": "uint256",
                    "internalType": "uint256"
                }
            ],
            "outputs": [
                {
                    "name": "",
                    "type": "address[4]",
                    "internalType": "address[4]"
                }
            ],
            "stateMutability": "view"
        },
        {
            "type": "function",
            "name": "getPlayerLastMoveTime",
            "inputs": [
                {
                    "name": "_roomId",
                    "type": "uint256",
                    "internalType": "uint256"
                }
            ],
            "outputs": [
                {
                    "name": "",
                    "type": "uint256[4]",
                    "internalType": "uint256[4]"
                }
            ],
            "stateMutability": "view"
        },
        {
            "type": "function",
            "name": "getPlayerLives",
            "inputs": [
                {
                    "name": "_roomId",
                    "type": "uint256",
                    "internalType": "uint256"
                }
            ],
            "outputs": [
                {
                    "name": "",
                    "type": "bool[4]",
                    "internalType": "bool[4]"
                }
            ],
            "stateMutability": "view"
        },
        {
            "type": "function",
            "name": "getPlayerPauseVote",
            "inputs": [
                {
                    "name": "_roomId",
                    "type": "uint256",
                    "internalType": "uint256"
                }
            ],
            "outputs": [
                {
                    "name": "",
                    "type": "bool[4]",
                    "internalType": "bool[4]"
                }
            ],
            "stateMutability": "view"
        },
        {
            "type": "function",
            "name": "getPlayerReadiness",
            "inputs": [
                {
                    "name": "_roomId",
                    "type": "uint256",
                    "internalType": "uint256"
                }
            ],
            "outputs": [
                {
                    "name": "",
                    "type": "bool[4]",
                    "internalType": "bool[4]"
                }
            ],
            "stateMutability": "view"
        },
        {
            "type": "function",
            "name": "getRoomBoard",
            "inputs": [
                {
                    "name": "_roomId",
                    "type": "uint256",
                    "internalType": "uint256"
                },
                {
                    "name": "_tilePos",
                    "type": "uint8",
                    "internalType": "uint8"
                }
            ],
            "outputs": [
                {
                    "name": "",
                    "type": "uint8",
                    "internalType": "uint8"
                },
                {
                    "name": "",
                    "type": "bool",
                    "internalType": "bool"
                }
            ],
            "stateMutability": "view"
        },
        {
            "type": "function",
            "name": "getRoomMinStake",
            "inputs": [
                {
                    "name": "_roomId",
                    "type": "uint256",
                    "internalType": "uint256"
                }
            ],
            "outputs": [
                {
                    "name": "",
                    "type": "uint256",
                    "internalType": "uint256"
                }
            ],
            "stateMutability": "view"
        },
        {
            "type": "function",
            "name": "getRoomPlayersCount",
            "inputs": [
                {
                    "name": "_roomId",
                    "type": "uint256",
                    "internalType": "uint256"
                }
            ],
            "outputs": [
                {
                    "name": "",
                    "type": "uint8",
                    "internalType": "uint8"
                }
            ],
            "stateMutability": "view"
        },
        {
            "type": "function",
            "name": "getRoomTotalStaked",
            "inputs": [
                {
                    "name": "_roomId",
                    "type": "uint256",
                    "internalType": "uint256"
                }
            ],
            "outputs": [
                {
                    "name": "",
                    "type": "uint256",
                    "internalType": "uint256"
                }
            ],
            "stateMutability": "view"
        },
        {
            "type": "function",
            "name": "getTop10RanksByEarnings",
            "inputs": [],
            "outputs": [
                {
                    "name": "",
                    "type": "tuple[10]",
                    "internalType": "struct RRoyale.RankingRow[10]",
                    "components": [
                        {
                            "name": "player",
                            "type": "address",
                            "internalType": "address"
                        },
                        {
                            "name": "amount",
                            "type": "uint256",
                            "internalType": "uint256"
                        }
                    ]
                }
            ],
            "stateMutability": "view"
        },
        {
            "type": "function",
            "name": "getTop10RanksByWinnings",
            "inputs": [],
            "outputs": [
                {
                    "name": "",
                    "type": "tuple[10]",
                    "internalType": "struct RRoyale.RankingRow[10]",
                    "components": [
                        {
                            "name": "player",
                            "type": "address",
                            "internalType": "address"
                        },
                        {
                            "name": "amount",
                            "type": "uint256",
                            "internalType": "uint256"
                        }
                    ]
                }
            ],
            "stateMutability": "view"
        },
        {
            "type": "function",
            "name": "getTotalGames",
            "inputs": [],
            "outputs": [
                {
                    "name": "",
                    "type": "uint256",
                    "internalType": "uint256"
                }
            ],
            "stateMutability": "view"
        },
        {
            "type": "function",
            "name": "houseFee",
            "inputs": [],
            "outputs": [
                {
                    "name": "",
                    "type": "uint8",
                    "internalType": "uint8"
                }
            ],
            "stateMutability": "view"
        },
        {
            "type": "function",
            "name": "initialize",
            "inputs": [],
            "outputs": [],
            "stateMutability": "nonpayable"
        },
        {
            "type": "function",
            "name": "joinGame",
            "inputs": [
                {
                    "name": "_roomId",
                    "type": "uint256",
                    "internalType": "uint256"
                }
            ],
            "outputs": [
                {
                    "name": "",
                    "type": "address",
                    "internalType": "address"
                }
            ],
            "stateMutability": "payable"
        },
        {
            "type": "function",
            "name": "leaveGameB4start",
            "inputs": [
                {
                    "name": "_roomId",
                    "type": "uint256",
                    "internalType": "uint256"
                }
            ],
            "outputs": [
                {
                    "name": "",
                    "type": "bool",
                    "internalType": "bool"
                }
            ],
            "stateMutability": "nonpayable"
        },
        {
            "type": "function",
            "name": "movePlayer",
            "inputs": [
                {
                    "name": "_roomId",
                    "type": "uint256",
                    "internalType": "uint256"
                },
                {
                    "name": "_dir",
                    "type": "uint8",
                    "internalType": "enum RRoyale.Dir"
                },
                {
                    "name": "_player",
                    "type": "address",
                    "internalType": "address"
                },
                {
                    "name": "_useBurner",
                    "type": "bool",
                    "internalType": "bool"
                }
            ],
            "outputs": [
                {
                    "name": "",
                    "type": "bool",
                    "internalType": "bool"
                }
            ],
            "stateMutability": "nonpayable"
        },
        {
            "type": "function",
            "name": "owner",
            "inputs": [],
            "outputs": [
                {
                    "name": "",
                    "type": "address",
                    "internalType": "address"
                }
            ],
            "stateMutability": "view"
        },
        {
            "type": "function",
            "name": "paused",
            "inputs": [],
            "outputs": [
                {
                    "name": "",
                    "type": "bool",
                    "internalType": "bool"
                }
            ],
            "stateMutability": "view"
        },
        {
            "type": "function",
            "name": "playerInGame",
            "inputs": [
                {
                    "name": "",
                    "type": "address",
                    "internalType": "address"
                }
            ],
            "outputs": [
                {
                    "name": "",
                    "type": "uint256",
                    "internalType": "uint256"
                }
            ],
            "stateMutability": "view"
        },
        {
            "type": "function",
            "name": "playerReadyUp",
            "inputs": [
                {
                    "name": "_roomId",
                    "type": "uint256",
                    "internalType": "uint256"
                },
                {
                    "name": "_player",
                    "type": "address",
                    "internalType": "address"
                },
                {
                    "name": "_useBurner",
                    "type": "bool",
                    "internalType": "bool"
                }
            ],
            "outputs": [
                {
                    "name": "",
                    "type": "bool",
                    "internalType": "bool"
                }
            ],
            "stateMutability": "nonpayable"
        },
        {
            "type": "function",
            "name": "playerTogglePause",
            "inputs": [
                {
                    "name": "_roomId",
                    "type": "uint256",
                    "internalType": "uint256"
                },
                {
                    "name": "_player",
                    "type": "address",
                    "internalType": "address"
                },
                {
                    "name": "_useBurner",
                    "type": "bool",
                    "internalType": "bool"
                }
            ],
            "outputs": [
                {
                    "name": "",
                    "type": "bool",
                    "internalType": "bool"
                }
            ],
            "stateMutability": "nonpayable"
        },
        {
            "type": "function",
            "name": "proxiableUUID",
            "inputs": [],
            "outputs": [
                {
                    "name": "",
                    "type": "bytes32",
                    "internalType": "bytes32"
                }
            ],
            "stateMutability": "view"
        },
        {
            "type": "function",
            "name": "renounceOwnership",
            "inputs": [],
            "outputs": [],
            "stateMutability": "nonpayable"
        },
        {
            "type": "function",
            "name": "setHouseFee",
            "inputs": [
                {
                    "name": "_houseFee",
                    "type": "uint8",
                    "internalType": "uint8"
                }
            ],
            "outputs": [],
            "stateMutability": "nonpayable"
        },
        {
            "type": "function",
            "name": "setStartingFT",
            "inputs": [
                {
                    "name": "_startingFT",
                    "type": "uint16",
                    "internalType": "uint16"
                }
            ],
            "outputs": [],
            "stateMutability": "nonpayable"
        },
        {
            "type": "function",
            "name": "startGame",
            "inputs": [
                {
                    "name": "_roomId",
                    "type": "uint256",
                    "internalType": "uint256"
                }
            ],
            "outputs": [
                {
                    "name": "",
                    "type": "bool",
                    "internalType": "bool"
                }
            ],
            "stateMutability": "nonpayable"
        },
        {
            "type": "function",
            "name": "starting_FT",
            "inputs": [],
            "outputs": [
                {
                    "name": "",
                    "type": "uint16",
                    "internalType": "uint16"
                }
            ],
            "stateMutability": "view"
        },
        {
            "type": "function",
            "name": "togglePause",
            "inputs": [],
            "outputs": [],
            "stateMutability": "nonpayable"
        },
        {
            "type": "function",
            "name": "toggleSetAdmin",
            "inputs": [
                {
                    "name": "_admin",
                    "type": "address",
                    "internalType": "address"
                }
            ],
            "outputs": [],
            "stateMutability": "nonpayable"
        },
        {
            "type": "function",
            "name": "top10Earned",
            "inputs": [
                {
                    "name": "",
                    "type": "uint256",
                    "internalType": "uint256"
                }
            ],
            "outputs": [
                {
                    "name": "player",
                    "type": "address",
                    "internalType": "address"
                },
                {
                    "name": "amount",
                    "type": "uint256",
                    "internalType": "uint256"
                }
            ],
            "stateMutability": "view"
        },
        {
            "type": "function",
            "name": "top10Wins",
            "inputs": [
                {
                    "name": "",
                    "type": "uint256",
                    "internalType": "uint256"
                }
            ],
            "outputs": [
                {
                    "name": "player",
                    "type": "address",
                    "internalType": "address"
                },
                {
                    "name": "amount",
                    "type": "uint256",
                    "internalType": "uint256"
                }
            ],
            "stateMutability": "view"
        },
        {
            "type": "function",
            "name": "transferOwnership",
            "inputs": [
                {
                    "name": "newOwner",
                    "type": "address",
                    "internalType": "address"
                }
            ],
            "outputs": [],
            "stateMutability": "nonpayable"
        },
        {
            "type": "function",
            "name": "upgradeToAndCall",
            "inputs": [
                {
                    "name": "newImplementation",
                    "type": "address",
                    "internalType": "address"
                },
                {
                    "name": "data",
                    "type": "bytes",
                    "internalType": "bytes"
                }
            ],
            "outputs": [],
            "stateMutability": "payable"
        },
        {
            "type": "function",
            "name": "userStats",
            "inputs": [
                {
                    "name": "",
                    "type": "address",
                    "internalType": "address"
                }
            ],
            "outputs": [
                {
                    "name": "totalWins",
                    "type": "uint256",
                    "internalType": "uint256"
                },
                {
                    "name": "totalLosses",
                    "type": "uint256",
                    "internalType": "uint256"
                },
                {
                    "name": "totalGasEarned",
                    "type": "uint256",
                    "internalType": "uint256"
                },
                {
                    "name": "totalGasLost",
                    "type": "uint256",
                    "internalType": "uint256"
                }
            ],
            "stateMutability": "view"
        },
        {
            "type": "event",
            "name": "EarningsTopped",
            "inputs": [
                {
                    "name": "_player",
                    "type": "address",
                    "indexed": true,
                    "internalType": "address"
                },
                {
                    "name": "_earnings",
                    "type": "uint256",
                    "indexed": false,
                    "internalType": "uint256"
                }
            ],
            "anonymous": false
        },
        {
            "type": "event",
            "name": "GameAbandoned",
            "inputs": [
                {
                    "name": "_roomId",
                    "type": "uint256",
                    "indexed": true,
                    "internalType": "uint256"
                }
            ],
            "anonymous": false
        },
        {
            "type": "event",
            "name": "GameCreated",
            "inputs": [
                {
                    "name": "_roomId",
                    "type": "uint256",
                    "indexed": true,
                    "internalType": "uint256"
                },
                {
                    "name": "_creator",
                    "type": "address",
                    "indexed": true,
                    "internalType": "address"
                }
            ],
            "anonymous": false
        },
        {
            "type": "event",
            "name": "GameEnded",
            "inputs": [
                {
                    "name": "_roomId",
                    "type": "uint256",
                    "indexed": true,
                    "internalType": "uint256"
                },
                {
                    "name": "_winner",
                    "type": "address",
                    "indexed": true,
                    "internalType": "address"
                }
            ],
            "anonymous": false
        },
        {
            "type": "event",
            "name": "GamePaused",
            "inputs": [
                {
                    "name": "_roomId",
                    "type": "uint256",
                    "indexed": false,
                    "internalType": "uint256"
                }
            ],
            "anonymous": false
        },
        {
            "type": "event",
            "name": "GameStarted",
            "inputs": [
                {
                    "name": "_roomId",
                    "type": "uint256",
                    "indexed": true,
                    "internalType": "uint256"
                }
            ],
            "anonymous": false
        },
        {
            "type": "event",
            "name": "GameUnPaused",
            "inputs": [
                {
                    "name": "_roomId",
                    "type": "uint256",
                    "indexed": false,
                    "internalType": "uint256"
                }
            ],
            "anonymous": false
        },
        {
            "type": "event",
            "name": "Initialized",
            "inputs": [
                {
                    "name": "version",
                    "type": "uint64",
                    "indexed": false,
                    "internalType": "uint64"
                }
            ],
            "anonymous": false
        },
        {
            "type": "event",
            "name": "ItemSpawned",
            "inputs": [
                {
                    "name": "_roomId",
                    "type": "uint256",
                    "indexed": false,
                    "internalType": "uint256"
                },
                {
                    "name": "_itemId",
                    "type": "uint8",
                    "indexed": false,
                    "internalType": "uint8"
                },
                {
                    "name": "_tile",
                    "type": "uint8",
                    "indexed": false,
                    "internalType": "uint8"
                }
            ],
            "anonymous": false
        },
        {
            "type": "event",
            "name": "OwnershipTransferred",
            "inputs": [
                {
                    "name": "previousOwner",
                    "type": "address",
                    "indexed": true,
                    "internalType": "address"
                },
                {
                    "name": "newOwner",
                    "type": "address",
                    "indexed": true,
                    "internalType": "address"
                }
            ],
            "anonymous": false
        },
        {
            "type": "event",
            "name": "Paused",
            "inputs": [
                {
                    "name": "account",
                    "type": "address",
                    "indexed": false,
                    "internalType": "address"
                }
            ],
            "anonymous": false
        },
        {
            "type": "event",
            "name": "PlayerJoined",
            "inputs": [
                {
                    "name": "_roomId",
                    "type": "uint256",
                    "indexed": false,
                    "internalType": "uint256"
                },
                {
                    "name": "_player",
                    "type": "address",
                    "indexed": false,
                    "internalType": "address"
                }
            ],
            "anonymous": false
        },
        {
            "type": "event",
            "name": "PlayerKilled",
            "inputs": [
                {
                    "name": "_roomId",
                    "type": "uint256",
                    "indexed": false,
                    "internalType": "uint256"
                },
                {
                    "name": "_player",
                    "type": "address",
                    "indexed": false,
                    "internalType": "address"
                }
            ],
            "anonymous": false
        },
        {
            "type": "event",
            "name": "PlayerKilledPlayer",
            "inputs": [
                {
                    "name": "_roomId",
                    "type": "uint256",
                    "indexed": false,
                    "internalType": "uint256"
                },
                {
                    "name": "_aggressor",
                    "type": "address",
                    "indexed": false,
                    "internalType": "address"
                },
                {
                    "name": "_victim",
                    "type": "address",
                    "indexed": false,
                    "internalType": "address"
                }
            ],
            "anonymous": false
        },
        {
            "type": "event",
            "name": "PlayerMoved",
            "inputs": [
                {
                    "name": "_roomId",
                    "type": "uint256",
                    "indexed": false,
                    "internalType": "uint256"
                },
                {
                    "name": "_player",
                    "type": "address",
                    "indexed": false,
                    "internalType": "address"
                },
                {
                    "name": "_destinationTile",
                    "type": "uint8",
                    "indexed": false,
                    "internalType": "uint8"
                }
            ],
            "anonymous": false
        },
        {
            "type": "event",
            "name": "PlayerPaused",
            "inputs": [
                {
                    "name": "_roomId",
                    "type": "uint256",
                    "indexed": false,
                    "internalType": "uint256"
                },
                {
                    "name": "_player",
                    "type": "address",
                    "indexed": false,
                    "internalType": "address"
                }
            ],
            "anonymous": false
        },
        {
            "type": "event",
            "name": "PlayerSpawned",
            "inputs": [
                {
                    "name": "_roomId",
                    "type": "uint256",
                    "indexed": false,
                    "internalType": "uint256"
                },
                {
                    "name": "_player",
                    "type": "address",
                    "indexed": false,
                    "internalType": "address"
                },
                {
                    "name": "_tile",
                    "type": "uint8",
                    "indexed": false,
                    "internalType": "uint8"
                }
            ],
            "anonymous": false
        },
        {
            "type": "event",
            "name": "PlayerToggleReady",
            "inputs": [
                {
                    "name": "_roomId",
                    "type": "uint256",
                    "indexed": false,
                    "internalType": "uint256"
                },
                {
                    "name": "_player",
                    "type": "address",
                    "indexed": false,
                    "internalType": "address"
                }
            ],
            "anonymous": false
        },
        {
            "type": "event",
            "name": "PlayerUnPaused",
            "inputs": [
                {
                    "name": "_roomId",
                    "type": "uint256",
                    "indexed": false,
                    "internalType": "uint256"
                },
                {
                    "name": "_player",
                    "type": "address",
                    "indexed": false,
                    "internalType": "address"
                }
            ],
            "anonymous": false
        },
        {
            "type": "event",
            "name": "RewardSent",
            "inputs": [
                {
                    "name": "_roomId",
                    "type": "uint256",
                    "indexed": true,
                    "internalType": "uint256"
                },
                {
                    "name": "_winner",
                    "type": "address",
                    "indexed": true,
                    "internalType": "address"
                },
                {
                    "name": "_reward",
                    "type": "uint256",
                    "indexed": true,
                    "internalType": "uint256"
                }
            ],
            "anonymous": false
        },
        {
            "type": "event",
            "name": "Unpaused",
            "inputs": [
                {
                    "name": "account",
                    "type": "address",
                    "indexed": false,
                    "internalType": "address"
                }
            ],
            "anonymous": false
        },
        {
            "type": "event",
            "name": "Upgraded",
            "inputs": [
                {
                    "name": "implementation",
                    "type": "address",
                    "indexed": true,
                    "internalType": "address"
                }
            ],
            "anonymous": false
        },
        {
            "type": "event",
            "name": "WinningsTopped",
            "inputs": [
                {
                    "name": "_player",
                    "type": "address",
                    "indexed": true,
                    "internalType": "address"
                },
                {
                    "name": "_winnings",
                    "type": "uint256",
                    "indexed": false,
                    "internalType": "uint256"
                }
            ],
            "anonymous": false
        },
        {
            "type": "error",
            "name": "AddressEmptyCode",
            "inputs": [
                {
                    "name": "target",
                    "type": "address",
                    "internalType": "address"
                }
            ]
        },
        {
            "type": "error",
            "name": "ERC1967InvalidImplementation",
            "inputs": [
                {
                    "name": "implementation",
                    "type": "address",
                    "internalType": "address"
                }
            ]
        },
        {
            "type": "error",
            "name": "ERC1967NonPayable",
            "inputs": []
        },
        {
            "type": "error",
            "name": "EnforcedPause",
            "inputs": []
        },
        {
            "type": "error",
            "name": "ExpectedPause",
            "inputs": []
        },
        {
            "type": "error",
            "name": "FailedInnerCall",
            "inputs": []
        },
        {
            "type": "error",
            "name": "InvalidInitialization",
            "inputs": []
        },
        {
            "type": "error",
            "name": "NotInitializing",
            "inputs": []
        },
        {
            "type": "error",
            "name": "OwnableInvalidOwner",
            "inputs": [
                {
                    "name": "owner",
                    "type": "address",
                    "internalType": "address"
                }
            ]
        },
        {
            "type": "error",
            "name": "OwnableUnauthorizedAccount",
            "inputs": [
                {
                    "name": "account",
                    "type": "address",
                    "internalType": "address"
                }
            ]
        },
        {
            "type": "error",
            "name": "UUPSUnauthorizedCallContext",
            "inputs": []
        },
        {
            "type": "error",
            "name": "UUPSUnsupportedProxiableUUID",
            "inputs": [
                {
                    "name": "slot",
                    "type": "bytes32",
                    "internalType": "bytes32"
                }
            ]
        }
    ],
    "bytecode": {
        "object": "0x60a08060405234620000e257306080526202006462ffffff1960005416176000557ff0c57e16840df040f15088dc2f81fe391c3923bec73e23a9662efc9c229c6a009081549060ff8260401c16620000d357506001600160401b036002600160401b0319828216016200008d575b6040516145bf9081620000e8823960805181818161116001526112920152f35b6001600160401b031990911681179091556040519081527fc7f505b2f371ae2175ee4913f4499e1f2633a7b5936321eed1cdaeb6115181d290602090a13880806200006d565b63f92ee8a960e01b8152600490fd5b600080fdfe6080604052600436101561001257600080fd5b60003560e01c806202727714612be0578063026b875a14612bab5780630ed469b814612b875780630ffb0e6214612b0e578063117a5b9014612ae1578063197614bb14612ac1578063235a3d2c1461280c57806328547f4314611e345780632b78298114611dca5780632d72b8bc14611d8357806333e84b1014611ae957806338a8f68114611ab45780633dbf0b55146110305780634411b3eb14611a9857806346cbb38f14611a4457806347e1d55014611a0657806348e837b9146114415780634f1ef2861461121657806351e37795146111ca57806352d1902d1461114d578063535b6d891461110657806354c0fc12146110a8578063571711dc146110515780635941905f1461103557806359b78681146110305780635bd4349b146110125780635c975abb14610fe2578063715018a614610f785780637282947f14610f305780637d08163e14610ee25780637dc9387214610e9a5780638129fc1c14610c9c5780638a65d87414610c405780638da5cb5b14610c0a5780639026dee814610bcb57806393efecbb14610b81578063989b820014610b365780639bf0e1da14610b0b578063ad3cb1cc14610a8a578063af3e942014610a68578063b5cbde6814610a20578063ba425cce146109f2578063c4ae31681461091f578063da078641146107f4578063e5ed1d59146106c2578063e63a7d9114610678578063e8c2f7341461062c578063e9355718146105ea578063ec6a7c9f146105b0578063efaa55a0146102e2578063f2fde38b146102b75763fd6736dd1461025757600080fd5b346102b25760403660031901126102b257604060043560ff61029e61027a612f06565b600461028e84610295848461028e8a612ccd565b50016134bb565b50541695612ccd565b505460081c16825191825215156020820152f35b600080fd5b346102b25760203660031901126102b2576102e06102d3612ebd565b6102db613028565b613061565b005b60203660031901126102b2576004356102f96131db565b33600052600260205261031160406000205415613814565b61031a81612ccd565b509060ff80925460a01c16151580610597575b1561056d5761033b81612ccd565b509161034e816003809501541615613852565b610369818461035c85612ccd565b50015460081c1615613883565b610384818461037785612ccd565b50015460181c16156138b4565b6103ba61039083612ccd565b506103a083825460a01c16613342565b815460ff60a01b191660a09190911b60ff60a01b16179055565b6103c382612ccd565b50906103d66001809301543410156137e3565b816103e084612ccd565b5001546103fb60026103f186612ccd565b50019182546138e5565b90556104158161040a85612ccd565b505460a01c16613363565b916000815b610515575b7f87969bc7faf902221a147b95ceba76e011c5efb0339a0a8ee7a2bb82d9cfbbd6610508866104f18787878c61046184606861045a89612ccd565b5001613353565b81546001600160a01b0391841b91821b19163390911b17905560005461ffff166104b361049a86606c6104938b612ccd565b50016138f2565b819391549060031b9161ffff809116831b921b19161790565b90556104cb84606e6104c489612ccd565b500161390e565b81949154921b92831b921b1916179055336000526002602052826040600020558261365d565b506040805191825233602083015290918291820190565b0390a16020604051338152f35b61051e85612ccd565b5050600483821610156105685761053a81606861045a88612ccd565b905490871b1c6001600160a01b03161561055e576105588291613342565b9061041a565b92506104f161041f565b61041f565b60405162461bcd60e51b8152602060048201526002602482015261114d60f21b6044820152606490fd5b506004826105a483612ccd565b505460a01c161061032d565b346102b25760203660031901126102b2576001600160a01b036105d1612ebd565b1660005260026020526020604060002054604051908152f35b346102b25760203660031901126102b25733600052600460205261061560ff604060002054166131a9565b6020610622600435613206565b6040519015158152f35b346102b25760203660031901126102b257608060405161064b81612d5e565b369037610674610668606f610661600435612ccd565b5001613598565b60405191829182612c9d565b0390f35b346102b25760203660031901126102b257608060405161069781612d5e565b36903760806106b360686106ac600435612ccd565b50016134cb565b6106c06040518092612f16565bf35b346102b25760203660031901126102b2576004356106de6131db565b6106f860ff60036106ee84612ccd565b5001541615613852565b600160ff61070583612ccd565b505460a01c1611156107ca5761071a81613bf8565b1561079f5761072f60ff600361037784612ccd565b61074d61073b82612ccd565b50546001600160a01b031633146131a9565b600361075882612ccd565b5001805460ff1916600117905561076e81613c51565b507f50ad08f58a27f2851d7e3a1b3a6a46b290f2ce677e99642d30ff639721e77790600080a2602060405160018152f35b60405162461bcd60e51b815260206004820152600360248201526204531360ec1b6044820152606490fd5b60405162461bcd60e51b8152602060048201526002602482015261453960f01b6044820152606490fd5b346102b2577f0c6a58d9f79b85a8f6842da406726f10a43321574f1fb3d9f41ec3bfcfb7836161088261087d6108e961082c36612ed3565b61083a9592959491946131db565b61084a60ff60036106ee89612ccd565b801561091857845b6001600160a01b03958616600090815260026020526040902054610877908814613927565b866139bc565b613363565b61089860ff6108908361364b565b161515613927565b60ff6108a982606f6104c488612ccd565b90549060031b1c16156108dc6108c483606f6104c489612ccd565b819391549060ff809160031b9316831b921b19161790565b9055606861045a85612ccd565b90546040805194855260039290921b1c919091166001600160a01b0316602083015290a1602060405160018152f35b3394610852565b346102b25760003660031901126102b25733600052600460205261094a60ff604060002054166131a9565b60008051602061456a833981519152805460ff8116156109b45750805460ff8116156109a25760ff191690557f5db9ee0a495bf2e6ff9c91a7834c1ba4fdd244a5e8aa4e537bd38aeae4b073aa6020604051338152a1005b604051638dfc202b60e01b8152600490fd5b6001906109bf6131db565b60ff19161790557f62e78cea01bee320cd4e420270b5ea74000d11b0c9f74754ebdbfc544b05a2586020604051338152a1005b346102b25760203660031901126102b257602060ff610a12600435612ccd565b505460a01c16604051908152f35b346102b25760203660031901126102b2576080604051610a3f81612d5e565b3690376080610a5b6071610a54600435612ccd565b50016135d5565b6106c06040518092612fc8565b346102b25760003660031901126102b257602061ffff60005416604051908152f35b346102b25760003660031901126102b257604051610aa781612d25565b60058152602090640352e302e360dc1b82820152604051828193825282519081818401526000935b828510610af2575050604092506000838284010152601f80199101168101030190f35b8481018201518686016040015293810193859350610acf565b346102b25760203660031901126102b25760206002610b2b600435612ccd565b500154604051908152f35b346102b25760203660031901126102b25760043561ffff81168091036102b257336000526004602052610b7060ff604060002054166131a9565b61ffff196000541617600055600080f35b346102b25760403660031901126102b257610bbf610b9d612f06565b336000526004602052610bb760ff604060002054166131a9565b60043561365d565b50602060405160018152f35b346102b25760203660031901126102b2576001600160a01b03610bec612ebd565b166000526004602052602060ff604060002054166040519015158152f35b346102b25760003660031901126102b25760008051602061454a833981519152546040516001600160a01b039091168152602090f35b346102b25760203660031901126102b2576001600160a01b03610c61612ebd565b166000526003602052608060406000208054906001810154906003600282015491015491604051938452602084015260408301526060820152f35b346102b25760003660031901126102b2577ff0c57e16840df040f15088dc2f81fe391c3923bec73e23a9662efc9c229c6a0080549060ff8260401c161567ffffffffffffffff831692831580610e93575b60018095149081610e89575b159081610e80575b50610e6e5767ffffffffffffffff1981168417835581610e4f575b50610d25613168565b610d2d613168565b60ff1960008051602061456a833981519152818154169055610d4d613168565b610d55613168565b610d5e33613061565b610d66613168565b8354600160401b811015610e3957610d8385820191828755612ccd565b505015610e23577fb10e2d527612073b26eecdfd717e6a320cf44b4afac2b0732d9fcbe2b7fa0cf961010061ff00198254161790556202006462ffffff19600054161760005533600052600460205283604060002091825416179055610de557005b805468ff0000000000000000191690556040519081527fc7f505b2f371ae2175ee4913f4499e1f2633a7b5936321eed1cdaeb6115181d290602090a1005b634e487b7160e01b600052603260045260246000fd5b634e487b7160e01b600052604160045260246000fd5b68ffffffffffffffffff19166801000000000000000117825583610d1c565b60405163f92ee8a960e01b8152600490fd5b90501585610d01565b303b159150610cf9565b5081610ced565b346102b25760203660031901126102b2576080604051610eb981612d5e565b3690376080610ed5606c610ece600435612ccd565b500161350a565b6106c06040518092612f47565b346102b25760203660031901126102b2576020610622600435610f036131db565b610f1360ff60036106ee84612ccd565b3360005260028352610f2b8160406000205414613927565b613a41565b346102b25760203660031901126102b25760e0604051610f4f81612d7a565b36903760e0610f6b606d610f64600435612ccd565b5001613541565b6106c06040518092612f73565b346102b25760003660031901126102b257610f91613028565b60008051602061454a83398151915280546001600160a01b031981169091556000906001600160a01b03167f8be0079c531659141344cd1fd0a4f28419497f9722a3daafe3b4186f6b6457e08280a3005b346102b25760003660031901126102b257602060ff60008051602061456a83398151915254166040519015158152f35b346102b25760003660031901126102b2576020600154604051908152f35b612ff0565b346102b25760003660031901126102b257602060405160648152f35b346102b25760403660031901126102b25761106a612ebd565b33600052600460205261108460ff604060002054166131a9565b60018060a01b03166000526002602052602435604060002055602060405160018152f35b346102b25760403660031901126102b2576024356001600160a01b038116908190036102b2576000808080602094338252600486526110ed60ff6040842054166131a9565b600435905af16110fb6130d5565b506040519015158152f35b346102b25760203660031901126102b257600435600a8110156102b25760011b6019810154601a90910154604080516001600160a01b039093168352602083019190915290f35b346102b25760003660031901126102b2577f00000000000000000000000000000000000000000000000000000000000000006001600160a01b031630036111b85760206040517f360894a13ba1a3210667c828492db98dca3e2076cc3735a920a3ca505d382bbc8152f35b60405163703e46dd60e11b8152600490fd5b346102b25760203660031901126102b2576111e3612ebd565b6111eb613028565b6001600160a01b03166000908152600460205260409020805460ff818116151660ff19909116179055005b60403660031901126102b25761122a612ebd565b602490813567ffffffffffffffff81116102b257366023820112156102b2578060040135916112588361300c565b6112656040519182612d96565b83815260209384820193368783830101116102b25781600092888893018737830101526001600160a01b037f00000000000000000000000000000000000000000000000000000000000000008116308114908115611413575b506111b8576112cb613028565b6040516352d1902d60e01b8152908316948082600481895afa9182916000936113e3575b505061130d57604051634c9c8ce360e01b8152600481018690528690fd5b8490867f360894a13ba1a3210667c828492db98dca3e2076cc3735a920a3ca505d382bbc918281036113ce5750843b156113b8575080546001600160a01b03191682179055604051907fbc7cd75a20ee27fd9adebab32041f755214dbc6bffa90cc0225b39da2e5c2d3b600080a281511561139e575060006102e09381925190845af46113986130d5565b91613105565b92505050346113a957005b63b398979f60e01b8152600490fd5b604051634c9c8ce360e01b815260048101849052fd5b60405190632a87526960e21b82526004820152fd5b9080929350813d831161140c575b6113fb8183612d96565b810103126102b257519087806112ef565b503d6113f1565b9050817f360894a13ba1a3210667c828492db98dca3e2076cc3735a920a3ca505d382bbc54161415876112be565b60203660031901126102b2576114556131db565b6114636004353410156137e3565b33600052600260205261147b60406000205415613814565b60405161148781612d08565b61148f61346f565b8152604051610c8080820182811067ffffffffffffffff821117610e395760405260005b8181106119e357505060208201526040516114cd81612d5e565b608036823760408201526040516114e381612d5e565b608036823760608201526040516114f981612d7a565b60e0368237608082015260405161150f81612d5e565b608036823760a082015260405161152581612d5e565b608036823760c082015260405161153b81612d5e565b608036823760e082015260405161155181612d5e565b60803682376101008201523381515260016020825101526004356060825101526004356080825101523360408201515261ffff6000541660608201515260005b60ff90600782821610156115bc576115b7916080840151611fe08360051b160152613342565b611591565b82600160a082015152600154600160401b811015610e39578060016115e49201600155612ccd565b9190916119cd578051805183546020830151604084015160ff60a01b60a092831b166001600160a01b039094166001600160b01b0319909316929092179290921760a89190911b60ff60a81b16178455606082015160018501556080820151600285015581015160038401805460ff191691151560ff169190911781556116d79160c0810151825461ff00191690151560081b61ff001617825560e081015182546101008301516101209093015162010000600160c01b031990911691151560101b62ff0000169190911791151560181b63ff000000169190911760209190911b640100000000600160c01b0316179055565b602081015160048301906000905b6064821061199657505050604081015160005b60048110611976575050606081015160009060005b60048110611945575050606c830155608081015160009060005b60078110611917575050606d83015560a081015160009060005b600481106118ea575050606e83015560c081015160009060005b600481106118bd575050606f83015560e081015160009060005b60048110611890578461010085856070840155015160005b6004811061187957600154600019810190811161186357602090336000526002825280604060002055601a6117c182612ccd565b500160ff19906001828254161790556016606d6117dd84612ccd565b5001918254161790557f77e6743d8e2e96f1c711a902e1df1a77d6144b056ec2e83f86136c4267db0d99606061181283612ccd565b5060680154604080518581526001600160a01b0390921686830152601690820152a16040519033817fc3e0f84839dc888c892a013d10c8f9d6dc05a21a879d0ce468ca558013e9121c600080a38152f35b634e487b7160e01b600052601160045260246000fd5b60019060208351930192607182860101550161178d565b909160206118b46001928486511515919060ff809160031b9316831b921b19161790565b93019101611775565b909160206118e16001928486511515919060ff809160031b9316831b921b19161790565b9301910161175b565b9091602061190e6001928486511515919060ff809160031b9316831b921b19161790565b93019101611741565b9091602061193c6001928460ff875116919060ff809160031b9316831b921b19161790565b93019101611727565b9091602061196d60019261ffff8651169085851b60031b9161ffff809116831b921b19161790565b9301910161170d565b81516001600160a01b0316606882860101556020909101906001016116f8565b80518051845460209283015161ff0090151560081b1660ff90921661ffff19909116171784556001918291019301910190916116e5565b634e487b7160e01b600052600060045260246000fd5b6020906040516119f281612d25565b6000815260008382015281850152016114b3565b346102b25760203660031901126102b257611a1f61346f565b50610140611a37611a31600435612ccd565b50612db8565b6106c06040518092612e44565b346102b25760203660031901126102b25760043560ff811681036102b257336000526004602052611a7c60ff604060002054166131a9565b62ff00006000549160101b169062ff0000191617600055600080f35b346102b25760003660031901126102b257602060405160048152f35b346102b25760203660031901126102b2576080604051611ad381612d5e565b369037610674610668606e610661600435612ccd565b346102b25760003660031901126102b25760015467ffffffffffffffff8111610e395760405190611b2060208260051b0183612d96565b80825260208201809160016000527fb10e2d527612073b26eecdfd717e6a320cf44b4afac2b0732d9fcbe2b7fa0cf6916000905b828210611c745784866040519182916020830190602084525180915260408301919060005b818110611b87575050500390f35b9180945092909251611b9a828251612e44565b602081015160009061014084015b60648310611c4f57505050611e20600192611c4161010084611bd560406020970151611a40860190612f16565b611be86060820151611ac0860190612f47565b611bfb6080820151611b40860190612f73565b611c0e60a0820151611c20860190612f9e565b611c2160c0820151611ca0860190612f9e565b611c3460e0820151611d20860190612f9e565b0151611da0830190612fc8565b019401910191849392611b79565b6020604060019282855160ff8151168352015115158382015201920192019190611ba8565b604051611c8081612d08565b611c8985612db8565b8152604051610c80810181811067ffffffffffffffff821117610e3957604052600060048701825b60648310611d4f5750505060019282602092836075950152611cd5606889016134cb565b6040820152611ce6606c890161350a565b6060820152611cf7606d8901613541565b6080820152611d08606e8901613598565b60a0820152611d19606f8901613598565b60c0820152611d2a60708901613598565b60e0820152611d3b607189016135d5565b610100820152815201940191019092611b54565b600160208192604051611d6181612d25565b855460ff90818116835260081c16151583820152815201920192019190611cb1565b346102b25760203660031901126102b257600435600a8110156102b25760011b6005810154600690910154604080516001600160a01b039093168352602083019190915290f35b346102b25760603660031901126102b257611de3612f06565b6044359060ff82168092036102b2576108c4611e2791336000526004602052611e1360ff604060002054166131a9565b606d611e20600435612ccd565b5001613329565b9055602060405160018152f35b346102b25760803660031901126102b257600460243510156102b2576044356001600160a01b03811690036102b2576064351515606435036102b257611e786131db565b600160ff6003611e89600435612ccd565b500154161515036127e25760ff6003611ea3600435612ccd565b50015460101c166127b757611ec060ff600361035c600435612ccd565b611ed260ff6003610377600435612ccd565b606435156127b1576044355b6001600160a01b0316600090815260026020526040902054611f039060043514613927565b611f2160ff611f196064356044356004356139bc565b1615156131a9565b600160ff611f51611f33600435612ccd565b50606e611f4a61087d6064356044356004356139bc565b910161390e565b90549060031b1c1615150361278657611f7461087d6064356044356004356139bc565b60ff611f8782606d611e20600435612ccd565b90549060031b1c16611f9a602435613fdf565b60000b8160000b0190607f198212607f8313176118635760ff600a600992611fc3600435612ccd565b5050611fd3606486851610613f8d565b8282820616158061276f575b612758575b06161480612741575b612729575b60ff61200f612002600435612ccd565b50600484841691016134bb565b505460081c166126fe5760ff612029612002600435612ccd565b5054166124c4576120409060ff1682600435614022565b505b600160ff612051600435612ccd565b505460a01c161461208e575b61206e90607161045a600435612ccd565b81549060031b9042821b91600019901b1916179055602060405160018152f35b600361209b600435612ccd565b5001805461ff00191661010017905560005b6120b8600435612ccd565b5050600460ff821610156124ba57600160ff6120db83606e6104c4600435612ccd565b90549060031b1c161515146120f8576120f390613342565b6120ad565b61210990606861045a600435612ccd565b9054600391821b1c6001600160a01b0316919061215a90839061212d600435612ccd565b50018054640100000000600160c01b03191660209290921b640100000000600160c01b0316919091179055565b816004357f3d5fcd8fa3235aeb3897f25c8ea49989174981afcb01b9d03189d1056a16775b600080a361222960646121b46002612198600435612ccd565b50015460ff6121ad8160005460101c16613376565b1690613387565b046121cf600080808085895af16121c96130d5565b5061339a565b80846004357f2d2c3375da5b0a5f617bbcefa38e413a9ef5f70e50d0f9c5f6cc0adc3fa35779600080a483600052600360205260406000206122118154613f71565b90556001612220600435612ccd565b50015490613845565b82600052600360205261224560026040600020019182546138e5565b905581600052600360205260026040600020015460185481116123ab575b5081600052600360205260406000205491602c548311612298575b5061206e91505b6122906004356133cc565b50905061205d565b60005b600a81106122e9575b5061206e92508060005260036020527f3c6f7494b388aaf4947e5d85eb5a50078031fc2332493b751f7596351f23c1b96020604060002054604051908152a28261227e565b601a8160011b015484116123055761230090613f71565b61229b565b9260095b84811161233b5750601a8461206e9560011b601901846001600160601b0360a01b82541617905560011b0155836122a4565b8060001981011161186357600a60001982011015610e23576019600019820160011b01546001600160a01b031690600a811015610e23576123a6918160011b9081601901906001600160601b0360a01b825416179055601a80600019840160011b0154910155613f80565b612309565b9060005b600a81106123fe575b509050816000526003602052817f9cb8864a722bf07d0c04c1323e8c2768a9200d39440c236ee5f41d91b911ccf56020600260406000200154604051908152a282612263565b60068160011b0154831161241a5761241590613f71565b6123af565b60099291925b81811161244a575060011b6005810180546001600160a01b031916851790556006015580836123b8565b8060001981011161186357600a60001982011015610e23576005600019820160011b01546001600160a01b031690600a811015610e23576124b5918160011b9081600501906001600160601b0360a01b825416179055600680600019840160011b0154910155613f80565b612420565b5061206e90612285565b600460ff6124e16124d58335612ccd565b508385841691016134bb565b50541611156126b65760ff61250a6125129260046124ff8135612ccd565b5091841691016134bb565b505416613363565b61253e60ff61252883606d611e20600435612ccd565b90549060031b1c1691606d611e20600435612ccd565b60ff82549160031b1b9081191617905561255e81600461028e8135612ccd565b50805460ff191690556125a0612575600435612ccd565b5061258660ff825460a81c16613a31565b815460ff60a81b191660a89190911b60ff60a81b16179055565b604051608260208201428152446040840152606f60631b6060840152605483526125c983612d5e565b91519091200660010b60401901617fff198112617fff8213176118635761ffff6125fa84606c610493600435612ccd565b90549060031b1c1660010b90617fff198160010b830112617fff8260010b8401131761186357600181810b8301919060009083900b1361267657505050612643826004356140f5565b5061ffff60005b16612662575b5061265c600435613c51565b50612042565b61266f9082600435614022565b5081612650565b6126af61ffff938461268f88606c610493600435612ccd565b92909460010b01169083549060031b9161ffff809116831b921b19161790565b905561264a565b600460ff6126c76124d58335612ccd565b50541611156126d65750612042565b6126ee60ff61250a6126f79360046124ff8135612ccd565b82600435614292565b508161265c565b60405162461bcd60e51b815260206004820152600360248201526245313560e81b6044820152606490fd5b61273c60ff600a83821606161515613f8d565b611ff2565b5061274d602435613fbf565b600360243514611fed565b61276a84848488821606161415613f8d565b611fe4565b5061277b602435613fbf565b600160243514611fdf565b60405162461bcd60e51b815260206004820152600360248201526245313360e81b6044820152606490fd5b33611ede565b60405162461bcd60e51b815260206004820152600360248201526208a62760eb1b6044820152606490fd5b60405162461bcd60e51b815260206004820152600260248201526108a760f31b6044820152606490fd5b346102b25761281a36612ed3565b6128226131db565b8015612abb57815b6001600160a01b031660009081526002602052604090205461284d908414613927565b61285b61087d8284866139bc565b9260ff9261286c846108908761364b565b61287582612ccd565b5092846128cc61288988607080980161390e565b9890546128c08461289e848b6104c48c612ccd565b91909360039d8e1b1c16159083549060ff809160031b9316831b921b19161790565b9055866104c487612ccd565b905490881b1c16612a3b575b5050826128e482612ccd565b505460a01c169260009260005b6128fa84612ccd565b5050600483821610156129755761291581836104c487612ccd565b9054600191891b1c8416151581149081612953575b5061293e575b61293990613342565b6128f1565b9361294b61293991613342565b949050612930565b90508361296583606e6104c489612ccd565b9054908a1b1c161515148861292a565b838786851688148581612a21575b50156129db57816020916129b77f60f26477008aa4c656f8e1e30cdc74fa0be1c07ff15eead918e9614cdca8d16694612ccd565b5001805462ff0000191662010000179055604051908152a15b602060405160018152f35b81602091612a097fd89f8445e94a8e31afc10a82c48d2518eff9f4efc746fdf7b029c28e3fc5463a94612ccd565b5001805462ff000019169055604051908152a16129d0565b905081612a2d84612ccd565b50015460101c161583612983565b15612a9057612a867f2b02cf7e1a7798ae84c4e889779d06feaed067d1a58cdbc014f6a98fb619f2bb915b604080518581526001600160a01b03909216602083015290918291820190565b0390a184806128d8565b507f2b02cf7e1a7798ae84c4e889779d06feaed067d1a58cdbc014f6a98fb619f2bb612a8633612a66565b3361282a565b346102b25760203660031901126102b25760206001610b2b600435612ccd565b346102b25760203660031901126102b2576004356001548110156102b257611a37611a3161014092612ccd565b346102b25760003660031901126102b257612b27613608565b50604051612b3481612d41565b60196000825b600a8210612b5057604051806106748682612c59565b600260019160405190612b6282612d25565b838060a01b038654168252838601549160209283820152815201930191019091612b3a565b346102b25760003660031901126102b257602060ff60005460101c16604051908152f35b346102b25760203660031901126102b2576080604051612bca81612d5e565b3690376106746106686070610661600435612ccd565b346102b25760003660031901126102b257612bf9613608565b50604051612c0681612d41565b60056000825b600a8210612c2257604051806106748682612c59565b600260019160405190612c3482612d25565b838060a01b038654168252838601549160209283820152815201930191019091612c0c565b610280810192916000915b600a8310612c7157505050565b815180516001600160a01b03168252602090810151818301526001939093019290910190604001612c64565b6080810192916000915b60048310612cb457505050565b6001908251151581526020809101920192019190612ca7565b600154811015610e23576075906001600052027fb10e2d527612073b26eecdfd717e6a320cf44b4afac2b0732d9fcbe2b7fa0cf60190600090565b610120810190811067ffffffffffffffff821117610e3957604052565b6040810190811067ffffffffffffffff821117610e3957604052565b610140810190811067ffffffffffffffff821117610e3957604052565b6080810190811067ffffffffffffffff821117610e3957604052565b60e0810190811067ffffffffffffffff821117610e3957604052565b90601f8019910116810190811067ffffffffffffffff821117610e3957604052565b90604051612dc581612d41565b61012081938054600360018060a01b0392838316865260ff8381809560a01c16602089015260a81c1660408701526001810154606087015260028101546080870152015490808216151560a0860152808260081c16151560c0860152808260101c16151560e08601528160181c16151561010085015260201c16910152565b60018060a01b0380825116835260ff602083015116602084015260ff6040830151166040840152606082015160608401526080820151608084015260a0820151151560a084015260c0820151151560c084015260e0820151151560e0840152610100808301511515908401526101208092015116910152565b600435906001600160a01b03821682036102b257565b60609060031901126102b257600435906024356001600160a01b03811681036102b2579060443580151581036102b25790565b6024359060ff821682036102b257565b6000915b60048310612f2757505050565b81516001600160a01b031681526001929092019160209182019101612f1a565b6000915b60048310612f5857505050565b60019061ffff83511681526020809101920192019190612f4b565b6000915b60078310612f8457505050565b60019060ff83511681526020809101920192019190612f77565b6000915b60048310612faf57505050565b6001908251151581526020809101920192019190612fa2565b6000915b60048310612fd957505050565b600190825181526020809101920192019190612fcc565b346102b25760003660031901126102b2576020604051600a8152f35b67ffffffffffffffff8111610e3957601f01601f191660200190565b60008051602061454a833981519152546001600160a01b0316330361304957565b60405163118cdaa760e01b8152336004820152602490fd5b6001600160a01b039081169081156130bc5760008051602061454a83398151915280546001600160a01b031981168417909155167f8be0079c531659141344cd1fd0a4f28419497f9722a3daafe3b4186f6b6457e0600080a3565b604051631e4fbdf760e01b815260006004820152602490fd5b3d15613100573d906130e68261300c565b916130f46040519384612d96565b82523d6000602084013e565b606090565b9061312c575080511561311a57805190602001fd5b604051630a12f52160e11b8152600490fd5b8151158061315f575b61313d575090565b604051639996b31560e01b81526001600160a01b039091166004820152602490fd5b50803b15613135565b60ff7ff0c57e16840df040f15088dc2f81fe391c3923bec73e23a9662efc9c229c6a005460401c161561319757565b604051631afcd79f60e31b8152600490fd5b156131b057565b60405162461bcd60e51b815260206004820152600360248201526222989960e91b6044820152606490fd5b60ff60008051602061456a83398151915254166131f457565b60405163d93c066560e01b8152600490fd5b60005b61321282612ccd565b505060ff90600482821610156132d557806132759261323085612ccd565b509085613241846068809501613353565b91909260018060a01b03809454600394851b1c166000526002602052816040600020541461327a575b505050505050613342565b613209565b60646132be600096958796956132996132ca9a899861045a8a99612ccd565b9054911b1c169260016132ab8d612ccd565b500154906121ad81875460101c16613376565b04905af16121c96130d5565b80388080868161326a565b50506132e0816133cc565b5060036132ec82612ccd565b5001805463ff000000191663010000001790557fc6cdad3b3d7abda636116a8e94d054f37e923a63418e338faefe22d5cd582ab2600080a2600190565b9190916007831015610e2357601f908360051c01921690565b60ff1660ff81146118635760010190565b6004821015610e23570190600090565b60ff6000199116019060ff821161186357565b60ff166064039060ff821161186357565b8181029291811591840414171561186357565b156133a157565b60405162461bcd60e51b815260206004820152600360248201526222989b60e91b6044820152606490fd5b60005b6133d882612ccd565b5050600460ff82161015613468578061343b916133f484612ccd565b50613403826068809301613353565b60018060a01b03809254600392831b1c1660005260029160209183835260409489866000205414613440575b50505050505050613342565b6133cf565b6000966134509161045a8c612ccd565b9054911b1c168452528120558038808080808061342f565b5050600190565b6040519061347c82612d41565b816101206000918281528260208201528260408201528260608201528260808201528260a08201528260c08201528260e0820152826101008201520152565b6064821015610e23570190600090565b60405191906000835b600482106134ea575050506134e882612d5e565b565b82546001600160a01b0316815260019283019291909101906020016134d4565b90604051915461ffff908181168452818160101c166020850152818160201c16604085015260301c1660608301526134e882612d5e565b90604051915460ff908181168452818160081c166020850152818160101c166040850152818160181c166060850152818160201c166080850152818160281c1660a085015260301c1660c08301526134e882612d7a565b9060ff604051925481811615158452818160081c1615156020850152818160101c161515604085015260181c16151560608301526134e882612d5e565b60405191906000835b600482106135f2575050506134e882612d5e565b60016020819285548152019301910190916135de565b60409081519161361783612d41565b600083815b610140811061362b5750505050565b602090845161363981612d25565b8481528483820152818401520161361c565b60ff60019116019060ff821161186357565b6136ef917f77e6743d8e2e96f1c711a902e1df1a77d6144b056ec2e83f86136c4267db0d9991600060ff83168061372957505061372360169485935b6136a28161364b565b60ff6136b387600461028e89612ccd565b50911660ff198254161790556108dc6136d182606d611e2088612ccd565b60ff88939293169083549060ff809160031b9316831b921b19161790565b90546040805194855260039290921b1c6001600160a01b0316602084015260ff909316928201929092529081906060820190565b0390a190565b60018103613740575050613723604d948593613699565b6002810361378d57505082606061375c84606861045a86612ccd565b9054906040519185835260018060a01b039160031b1c166020820152601b6040820152a1613723601b948593613699565b6003036137d757508260606137a784606861045a86612ccd565b60018060a01b0391549060031b1c1660405190848252602082015260486040820152a16137236048948593613699565b61372390948593613699565b156137ea57565b60405162461bcd60e51b8152602060048201526002602482015261229960f11b6044820152606490fd5b1561381b57565b60405162461bcd60e51b8152602060048201526002602482015261453360f01b6044820152606490fd5b9190820391821161186357565b1561385957565b60405162461bcd60e51b8152602060048201526002602482015261453560f01b6044820152606490fd5b1561388a57565b60405162461bcd60e51b8152602060048201526002602482015261229b60f11b6044820152606490fd5b156138bb57565b60405162461bcd60e51b8152602060048201526002602482015261453760f01b6044820152606490fd5b9190820180921161186357565b9190916004831015610e2357601e908360041c019260011b1690565b9190916004831015610e2357601f908360051c01921690565b1561392e57565b60405162461bcd60e51b815260206004820152600360248201526245313160e81b6044820152606490fd5b60005b61396582612ccd565b5050600460ff821610156139b55761398281606861045a85612ccd565b905460039190911b1c6001600160a01b031633146139a8576139a390613342565b61395c565b6139b2915061364b565b90565b5050600090565b9160005b6139c984612ccd565b5050600460ff82161015613a28576139e681606861045a87612ccd565b90548315613a215784905b60018060a01b038092169260031b1c1614613a1457613a0f90613342565b6139c0565b9150506139b2915061364b565b33906139f1565b50505050600090565b60ff168015611863576000190190565b613a4d61087d82613959565b60ff9081811615613bcd57613bb0829160706104c486613a9e613a926001613a7660649b612ccd565b500154600080809c819482948d6121ad81865460101c16613376565b04335af16121c96130d5565b613aba613aaa82612ccd565b506103a088825460a01c16613a31565b6001613ac582612ccd565b500154613ae06002613ad684612ccd565b5001918254613845565b9055613b11613aee82612ccd565b506004613b0087606d611e2087612ccd565b99905460039a8b1b1c1691016134bb565b50805460ff19169055613b2984606861045a84612ccd565b81546001600160a01b0391891b9190911b19169055613b4d84606c61049384612ccd565b61ffff825491891b1b19169055613b6984606d611e2084612ccd565b88825491891b1b90811916179055613b8684606e6104c484612ccd565b88825491891b1b19169055613ba084606f6104c484612ccd565b88825491891b1b19169055612ccd565b81939154921b1b1916905533815260026020526040812055600190565b5090613be1613bf29260036106ee84612ccd565b613bed61073b82612ccd565b613206565b50600190565b6000805b613c0583612ccd565b5060ff80915460a01c168183161015613c4857613c2782606f6104c487612ccd565b90549060031b1c1615613c4257613c3d90613342565b613bfc565b50905090565b50505050600190565b90600060045b613c6084612ccd565b505060ff60078183161015613cb05780613c7f83606d611e2089612ccd565b90549060031b1c1603613c9b575b613c9690613342565b613c57565b90613ca8613c9691613342565b919050613c8d565b505091600090815b613cc182612ccd565b505060ff60048183161015613d1557600190613ce283606e6104c487612ccd565b90549060031b1c16151514613d00575b613cfb90613342565b613cb8565b91613d0d613cfb91613342565b929050613cf2565b50509092919260ff8080941660000b911660000b0390607f1990607f831382841217611863576000199260000b8301828112607f8213176118635760008082810b13600014613ea857505b9360045b613d6d83612ccd565b505060078282161015613e9d57613d8383612ccd565b508280613d9484606d809501613329565b90549060031b1c1614613db1575b50613dac90613342565b613d64565b909560000b906000821315613e91576060837f7fa8af5a083dce9776f1c477855a76d7d16c984c6b39ac52003310cd5e71c35e92613e44613e288b613df88533168b613ed2565b938a86613e1387600461028e613e0d8861364b565b95612ccd565b50911660ff19825416179055611e208b612ccd565b93909216809383549060ff809160031b9316831b921b19161790565b9055613e62613e5287612ccd565b5061258687825460a81c16613342565b613e6b8961364b565b90604086815193898552166020840152820152a183811461186357840194613dac613da2565b50505050505050600190565b505050505050600190565b9050613d60565b6001600160a01b0390811660038181029092169291818404149015171561186357565b60ff613f1260405160208101904282524460408201526001600160601b03198660601b16606082015260548152613f0881612d5e565b5190206064900690565b1660ff613f2482600461028e86612ccd565b50541615801590613f4e575b15613f485750613f426139b292613eaf565b90613ed2565b91505090565b50613f6c613f6182600461028e86612ccd565b505460081c60ff1690565b613f30565b60001981146118635760010190565b8015611863576000190190565b15613f9457565b60405162461bcd60e51b8152602060048201526003602482015262114c4d60ea1b6044820152606490fd5b60041115613fc957565b634e487b7160e01b600052602160045260246000fd5b6004811015613fc95760028103613ff65750600a90565b80614002575060091990565b60018103614011575060001990565b60030361401d57600190565b600090565b6140c57f689254b753ca60742e68c59d0d98cc6d231f56da7de5fa9040dadc96ab3b0c509261407661405384612ccd565b50600460ff61406785606d611e208a612ccd565b90549060031b1c1691016134bb565b5060ff199081815416905561408a8261364b565b9060ff61409c88600461028e89612ccd565b509216908254161790556140b86136d182606d611e2087612ccd565b9055606861045a84612ccd565b90546040805193845260039290921b1c6001600160a01b0316602083015260ff8416908201528060608101613723565b6141fc61410783606e6104c485612ccd565b90805460ff600393841b1b1916905561414461412284612ccd565b50600460ff61413688606d611e208a612ccd565b905490861b1c1691016134bb565b50805460ff1916905561415c84606d611e2086612ccd565b60ff825491841b1b9081191617905561417a84606c61049386612ccd565b61ffff825491841b1b191690556141a461419384612ccd565b506103a060ff825460a01c16613a31565b7f17bbddf7564415da2a525f1a441df1385857f5438a6c5836a1a5d71fa1c1bb8c6141d485606861045a87612ccd565b90546040805187815292851b9190911c6001600160a01b039081166020840152948291820190565b0390a161427d84606861045a85614217848461045a8b612ccd565b905490871b1c1696600097885285602052600160408920016142398154613f71565b9055600161424682612ccd565b50015487614258868661045a86612ccd565b905490891b1c168952866020526142768760408b20019182546138e5565b9055612ccd565b9054911b1c1681526002602052604081205590565b90916142a381606d611e2085612ccd565b9054916142b1818686614406565b60ff80871691161460001461436f57839285927f2840e066f6437c6fb9c7a3af38071a68da790571d095d010b1120d231f17c9eb8561432561435d61045a876142ff60ff9961436b9d6140f5565b5061430f8a606861045a88612ccd565b949091606860018060a01b039485945498612ccd565b90549060031b1c169060405194859460031b1c168a849160409194936060840195845260018060a01b03809216602085015216910152565b0390a160031b1c1691614022565b5090565b939150508161439f827f2840e066f6437c6fb9c7a3af38071a68da790571d095d010b1120d231f17c9eb946140f5565b506137236143ce6143b586606861045a86612ccd565b939060018060a01b039283915496606861045a85612ccd565b90549060031b1c169160405195869560031b1c1690849160409194936060840195845260018060a01b03809216602085015216910152565b91909161441883606c61049384612ccd565b9061443684606c61049361ffff80968196549060031b1c1696612ccd565b90549060031b1c168201818111611863571680156144f257670de0b6b3a7640000808302928084048214811517156118635768056bc75e2d6310000002928084046064149015171561186357808202918204036118635780156144dc5760646040516020810190428252446040820152600b60631b6060820152605481526144bd81612d5e565b5190200691600183018093116118635704106144d7575090565b905090565b634e487b7160e01b600052601260045260246000fd5b60405162461bcd60e51b815260206004820152602960248201527f6469766973696f6e206279207a65726f2077696c6c20726573756c7420696e2060448201526834b73334b734ba3c9760b91b6064820152608490fdfe9016d09d72d40fdae2fd8ceac6b6234c7706214fd39c1cd1e609a0528c199300cd5ed15c6e187e77e9aee88184c21f4f2182ab5827cb3b7e07fbedcd63f03300a264697066735822122014168fee1f19b666d7964e96938544b779ea7fdcc59606393ee5c519bc6fb1e064736f6c63430008140033",
        "linkReferences": {}
    },
    "methodIdentifiers": {
        "MAP_HEIGHT()": "59b78681",
        "MAP_WIDTH()": "3dbf0b55",
        "MAX_PLAYERS()": "4411b3eb",
        "TILE_COUNT()": "5941905f",
        "UPGRADE_INTERFACE_VERSION()": "ad3cb1cc",
        "adminBootAll(uint256)": "e9355718",
        "adminSetPlayerGamePosition(uint256,uint8,uint8)": "2b782981",
        "adminSetPlayerInGame(address,uint256)": "571711dc",
        "adminSpawnPlayer(uint256,uint8)": "93efecbb",
        "adminTransferFunds(uint256,address)": "54c0fc12",
        "checkAdmin(address)": "9026dee8",
        "createGame(uint256)": "48e837b9",
        "games(uint256)": "117a5b90",
        "getGameInfo(uint256)": "47e1d550",
        "getGamesArray()": "33e84b10",
        "getPiecePositions(uint256)": "7282947f",
        "getPlayerFTs(uint256)": "7dc93872",
        "getPlayerIds(uint256)": "e63a7d91",
        "getPlayerLastMoveTime(uint256)": "b5cbde68",
        "getPlayerLives(uint256)": "38a8f681",
        "getPlayerPauseVote(uint256)": "026b875a",
        "getPlayerReadiness(uint256)": "e8c2f734",
        "getRoomBoard(uint256,uint8)": "fd6736dd",
        "getRoomMinStake(uint256)": "197614bb",
        "getRoomPlayersCount(uint256)": "ba425cce",
        "getRoomTotalStaked(uint256)": "9bf0e1da",
        "getTop10RanksByEarnings()": "00027277",
        "getTop10RanksByWinnings()": "0ffb0e62",
        "getTotalGames()": "5bd4349b",
        "houseFee()": "0ed469b8",
        "initialize()": "8129fc1c",
        "joinGame(uint256)": "efaa55a0",
        "leaveGameB4start(uint256)": "7d08163e",
        "movePlayer(uint256,uint8,address,bool)": "28547f43",
        "owner()": "8da5cb5b",
        "paused()": "5c975abb",
        "playerInGame(address)": "ec6a7c9f",
        "playerReadyUp(uint256,address,bool)": "da078641",
        "playerTogglePause(uint256,address,bool)": "235a3d2c",
        "proxiableUUID()": "52d1902d",
        "renounceOwnership()": "715018a6",
        "setHouseFee(uint8)": "46cbb38f",
        "setStartingFT(uint16)": "989b8200",
        "startGame(uint256)": "e5ed1d59",
        "starting_FT()": "af3e9420",
        "togglePause()": "c4ae3168",
        "toggleSetAdmin(address)": "51e37795",
        "top10Earned(uint256)": "2d72b8bc",
        "top10Wins(uint256)": "535b6d89",
        "transferOwnership(address)": "f2fde38b",
        "upgradeToAndCall(address,bytes)": "4f1ef286",
        "userStats(address)": "8a65d874"
    },
    "id": 30
}